:030000000212FFEA
:0C12FF00787FE4F6D8FD758121021346CB
:0E0DE9004201B900004201B600004101B8000D
:0F16D4007DF57C0CED1D70011C144C70F7DFF1DF
:0116E30022E4
:1016C100538E7F5389F0E4F58A758C28C28DD28CB4
:0316D100D2A92279
:100F5200E4F592F591F596F59512158712000312B4
:040F620016C1D2AF33
:100F6600120046900184EBF0A3EAF0A3E9F0120523
:100F7600B7247E603124E1603224FC60632424605F
:100F860003021070C2979001B9E0FEA3E0FFE4FCF3
:100F9600FD1216747F0312170FA295E433FD7F022C
:100FA6001216F4021070D297021070900184E0FBC2
:100FB600A3E0FAA3E0F99000011205D024FE601325
:100FC6000460030210709000031205D024FF92946F
:100FD6000210709000031205D024FF929502107043
:100FE600900184E0FBA3E0FAA3E0F990000112056A
:050FF600D024FC707521
:100FFB0090000E1206831216E4900187EFF0900119
:10100B0084E0FBA3E0FAA3E0F990000E1206831232
:10101B0005B7700690018774FFF0900187E0B40864
:10102B0000503F901035F828287302104D021051D4
:10103B0002105502105902105D0210610210650278
:10104B001069C2A0801FC2A1801BC2A28017C2A3BD
:10105B008013C2A4800FC2A5800BC2A68007C2A7B3
:05106B00800375A0FFE9
:06107000121716EF602EBE
:101076009001B9E0FEA3E0FF9001B6E06E7003A315
:10108600E06F601AE4FCFD1216747F0312170F90CE
:0E10960001B9E0FFA3E09001B6CFF0A3EFF0A8
:0510A4007F0A1216D4C2
:0310A900020F66CD
:03000B000215DDFE
:0D15DD00C0E0C083C082C0D075D000C00740
:1015EA009001B8E0FF04F0C3EF9432748094804015
:1015FA0010E4F09001BAE004F070069001B9E0043A
:01160A00F0EF
:0B160B00D007D0D0D082D083D0E032D6
:020DF700C10930
:10169600759A50438E0475D7B875D6FF438E10439E
:0616A600AF0153BAFE2261
:0B000E00900191EBF0A3EAF0A3E9F0F1
:10001900AF05AE071FEE601C2009FD900191E0FBC2
:10002900A3E475F00112061FA9F0FA1205B7F59BB2
:04003900D20980DE8A
:01003D0022A0
:0300430002152C77
:10152C00C0E0C0F0C083C082C0D075D000C000C085
:10153C0001C002C003C004C005C006C007E59A3054
:0C154C00E105539AFDC209E59A30E01455
:101558009001B0E59BF0539AFE7B017A0179B07D4A
:04156800011213FC5D
:10156C00D007D006D005D004D003D002D001D000D3
:0B157C00D0D0D082D083D0F0D0E0327D
:10161600256C75000000000000005A5A5AB4B4B494
:10162600F3F3F3FFFFFF87CEFAFFC0CBFF80008006
:101636008000007AFFFFFF00008000FF00FFFF0030
:071646000080008000FFFF9F
:100DF9006040002800000000000000000000000022
:100E090000000000000000000000000000000000D9
:100E190000000000000000000000000000000000C9
:100E290000000000000000000000000000000000B9
:100E390000000000608000C4000000000000000005
:100E49000000000000000000000000000000000099
:100E59000000000000000000000000000000000089
:100E69000000000000000000000000000000000079
:100E79000000000000000000000000000000000069
:100E89000000000000000000000000000000000059
:100E99000000000000000000000000000000000049
:100EA9000000000000000000000000000000000039
:100EB90000000000000000006028000000000000A1
:100EC9000000000000000000000000000000000019
:100ED9000000000000000000000000000000000009
:100EE900000000006028009C0000000000000000D5
:100EF90000000000000000000000000000000000E9
:100F090000000000000000000000000000000000D8
:100F190060200068000000000000000000000000E0
:100F290000000000000000000000000000000000B8
:100F390000000000470144000000000100284701AB
:080F49004B000000000100C490
:1015870012169612138B9000887402F0A3E4F0A34E
:101597007410F0E4A3F0A3F0A37440F0A3E4F0A365
:1015A7007480F0A3E4F0A37414F0E4A3F0A3F0A311
:1015B7001206520000000090009812065200000028
:1015C7000090000074BEF0A37410F090009C74BEED
:0615D700F0A37410F022E5
:10138B00E4900144F0A3F0A3F0A3F0FE7F40FD7BBB
:10139B00017A0079281206D9E490014BF0A3F0A34F
:1013AB00F0A3F0FE7F80FD7B017A0079C41206D991
:1013BB009000941206520000000090009812065202
:1013CB0000000000E4900152F0A3F0A3F0A3F0A3FF
:1013DB00F0A3F0A3F090015FF07B017A017963A396
:1013EB0004F0A3EAF0A3E9F07E007F217D00020662
:0113FB00D918
:0700030090008B7401F02254
:0E13FC009001B1EBF0A3EAF0A3E9F0A3EDF04D
:10140A00E4A3F090008BE06055E49001B5F0900100
:10141A00B4E0FFA3E0FEC39F50449001B1E0FBA3F8
:10142A00E0FAA3E0F98E827583001205D0FF9001DD
:10143A0048E0FBA3E0FAA3E0F9900146E475F00165
:10144A0012061F85F082F583EF1205FDE49001462E
:0E145A00F0A3E0543FF09001B5E004F080B044
:011468002261
:06171600900093E0FF22A9
:10004600E4900152F090008BE070030204BA900134
:1000560046E0FEA3E0FF900144E0FCA3E0FD6F70E4
:0800660002EC6E70030203DCE2
:10006E00E4900188F0A3F0900146A3E0D39DEE9CAE
:10007E00400BEF9DFDEE9CFCFEAF058015900144FC
:10008E00E0FCA3E0FDC374409DCDE49CCD2FFFEDBD
:10009E003EFE90018AEEF0A3EFF0C39406EE9400BC
:1000AE0050030203DC900144E0FFA3E0900188CFEF
:1000BE00F0A3EFF0900148E0FBA3E0FAA3E0F99083
:1000CE000188E475F00112061F85F082F583120592
:1000DE00D064BE60030203C4900188F0A3E0543FD5
:1000EE00F0900148E0FBA3E0FAA3E0F9900188E06C
:1000FE00FEA3E0FFF5828E831205D054F0641060EB
:04010E00030203C421
:1001120090018CF0A3F0EF2401FFEF543FFF900118
:1001220088E4F0A3EFF0900188E0FEA3E0F5828E70
:10013200831205D0FF90018CF0C3940674809480E2
:1001420050030203C4D3EF942874809480400302C6
:0201520003C4E4
:10015400E0FE24FD90018EF0E4A3F0A3F0EEFFC3D3
:1001640090018BE09F90018AE0940050030203DC2D
:10017400900189E02401FFEF543FFF90018FE4F0E8
:10018400A3EFF090018CE0900002F0E490018DF078
:1001940090018EE0FF90018DE0C39F504290014892
:1001A400E0FBA3E0FAA3E0F990018FE0FEA3E0FFF7
:1001B400F5828E831205D0FD90018DE02403F58233
:1001C400E43400F583EDF0EF2401FFEF543FFF909A
:1001D400018FE4F0A3EFF090018DE004F080B19082
:1001E400018CE0FF24FFF582E434FFF583E064ED45
:1001F40060030203C474FE2FF582E434FFF583E048
:1002040064EB60030203C4900003E0900152F09099
:100214000093E0701C900152E0648160147481F0DA
:10022400900144E0FFA3E0900188CFF0A3EFF080B9
:100234006790018FE0FEA3E0FF4E900148700DE04F
:10024400FBA3E0FAA3E0F990003F8012E0FBA3E0F7
:10025400FAA3E0F974FF2FF58274FF3EF583E412EC
:1002640005FD90018FE0FFA3E0900188CFF0A3EF9C
:10027400F0900152E06484601F900098E0FCA3E0D9
:10028400FDA3E0FEA3E02401FFE43EFEE43DFDE423
:100294003CFC900098120646900152E01206B3020C
:1002A400CB8102D78202DF8402EA8502FD91031822
:1002B400920333A10335A40347A50392A60392A78F
:1002C40003B4A8000003C49000937401F012170152
:1002D4000203C4E4900093F00203C4121708E490EC
:1002E4000152F00203C4900004E0900153F0900026
:1002F40005E0900154F00203C4900004E090015919
:10030400F0900005E090015AF0900006E090015B47
:10031400F00203C4900004E090015CF0900005E05A
:1003240090015DF0900006E090015EF00203C4804D
:1003340000900004E0900153F0900005E090015516
:10034400F0807D900004E0900153F090018CE02453
:10035400F9FFE434FFFE900160E0FBA3E0FAA3E0C0
:10036400F8AC02AD037B017A007905120591900186
:100374008CE024F9FFE434FFFE900160E0FBA3E08D
:10038400FAA3E0F98F828E83E41205FD8032900097
:1003940004E0900153F0900005E0900156F09000C5
:1003A40006E0900157F0900007E0900158F08010AB
:1003B400900004E0900153F0900005E090015FF09C
:1003C400900189E0543FFF900144E4F0A3EFF090E2
:0803D4000152E0700302005425
:1003DC0090014DE0FEA3E0FF90014BE0FCA3E0FD9B
:1003EC006F7002EC6E70030204BAC3ED9FEC9E506A
:1003FC006290014BE0FEA3E0FFA3E0FCA3E0FDC391
:10040C009FFFEC9EFEC3EF9414EE9400502FA3E0DC
:10041C00FBA3E0FAA3E0F990014BE0FEA3E0FFE9B7
:10042C002FF9EA3EFAC3ED9FFD12000E90014DE04C
:10043C00FFA3E090014BCFF0A3EFF0807190014F40
:10044C00E0FBA3E0FAA3E0F990014BE0FEA3E0FF90
:10045C00E9802390014BE0FEA3E0FFC374809FFD75
:10046C00E49EFCD3ED9414EC940090014FE0FBA3BC
:10047C00E0FAA3E0401A2FF9EA3EFA7D1412000EBE
:10048C0090014CE02414F090014BE03400F0801EFD
:10049C00F990014BE0FEA3E0FFE92FF9EA3EFAC325
:1004AC0074809FFD12000EE490014BF0A3F07B01D1
:0404BC007A017952F6
:0104C0002219
:1010AC00E0FBA3E0FAA3E0F99000021205D0FD905A
:0A10BC0001997401F0FB7A00799CA1
:1010C600900195EBF0A3EAF0A3E9F0A3EDF0900010
:1010D6008BE070030211E7900198E0FBFF7E009021
:1010E600014DE0FCA3E0FD2FFFEE3CFEC3EF948034
:1010F600EE94005038EBFF7E00A3E0FBA3E0FAA3DA
:10110600E02DF9EA3CA801FCAD03900195E0FBA3B4
:10111600E0FAA3E0F9120591900198E0FF90014EE4
:0D112600E02FF090014DE03400F00211C008
:1011330090014DE0FCA3E0FDFFC374809FFF90018D
:101143009AF07E0090014FE0FBA3E0FAA3E02DF9B3
:10115300EA3CA801FCAD03900195E0FBA3E0FAA3F0
:10116300E0F912059190019AE0FF900198E0C39F86
:10117300FFE49400FE900195E0FBA3E0FAA3E0F9FD
:1011830090019AE0FD7C00E92DF9EC3AFAC003C026
:101193000290014FE0FBA3E0FAA3E0F8AC02AD0339
:1011A300D002D00312059190019AE0FF900198E0DC
:0D11B300C39FFEE4940090014DF0A3CEF028
:1011C000900199E06401701F900094E0FCA3E0FDA1
:1011D000A3E0FEA3E02401FFE43EFEE43DFDE43C89
:0811E000FC9000941206462267
:05146900900191EDF07F
:10146E00A37401F0A37400F0A3749CF0EFC39480F6
:10147E00504CEF6049900192E0FBA3E0FAA3E0F933
:10148E0090000274061205FD900003EF1205FD9008
:10149E00000474EB1205FD90000574ED1205FD902D
:1014AE000192E0FBA3E0FAA3E0F99000021205D04E
:0E14BE00FD900191E0900199F07B011210C2A7
:0114CC0022FD
:0514CD00900188EBF026
:1014D200A37401F0A37400F0A3749CF0EFC3948092
:1014E2005047EF6044ED6041900189E0FBA3E0FAD0
:1014F200A3E0F990000274081205FD900003EF12B8
:1015020005FD900004ED1205FD900188E0900005B4
:101512001205FD90000674EB1205FD90000774EDB4
:091522001205FD9001891210ACC4
:01152B00229D
:1011E800900188EFF0A3EDF0A3EBF0A3EAF0A3E9F8
:0111F800F006
:1011F900A37401F0A37400F0A3749CF090018AE039
:10120900FBA3E0FAA3E0F91216ACE4FCFD9001900F
:10121900120646900188E0FFC3948040030212FE43
:10122900EF70030212FEA3E070030212FEA3A3E013
:10123900FAA3E04A700A90019012065200000000D9
:10124900E47F20FEFDFC900190E0F8A3E0F9A3E023
:10125900FAA3E0FBD3120635400A90019012065218
:1012690000000020900190A3A3A3E02407FF9001B0
:101279008DE0FBA3E0FAA3E0F9900002EF1205FD6F
:10128900900188E09000031205FD900189E090002B
:10129900041205FD900190A3A3E0FEA3E0FF9001D5
:1012A9008DE0FBA3E0FAA3E02405F9E43AA801FCE8
:1012B900AD0390018AE0FBA3E0FAA3E0F9120591DE
:1012C90090018DE0FBA3E0FAA3E0F990000212057A
:1012D900D0249AF582E43400F58374EBF09000028F
:1012E9001205D0249BF582E43400F58374EDF09067
:0512F900018D1210AC94
:0112FE0022CD
:07170100E4FD7F0102146901
:07170800E4FD7F03021469F8
:0D16F400AE05AD07AF06AB077F540214CD65
:07170F00AD077F550211E850
:1016E40090018BE4F0A3F0A3F0A3740AF0020B972B
:1016740090018B74FFF0A37416F0A37416F0A312F8
:1016840006467B017A0079681208977B017A007913
:021694006822CA
:10130B00020F52E493A3F8E493A34003F68001F297
:10131B0008DFF48029E493A3F85407240CC8C333E3
:10132B00C4540F4420C8834004F456800146F6DFB2
:10133B00E4800B0102040810204080900DE9E47E4C
:10134B00019360BCA3FF543F30E509541FFEE493A7
:10135B00A360010ECF54C025E060A840B8E493A36E
:10136B00FAE493A3F8E493A3C8C582C8CAC583CA99
:10137B00F0A3C8C582C8CAC583CADFE9DEE780BE51
:010F5100009F
:1004C100E709F608DFFA8046E709F208DFFA803E1D
:1004D10088828C83E709F0A3DFFA8032E309F6080A
:1004E100DFFA8078E309F208DFFA807088828C8372
:1004F100E309F0A3DFFA806489828A83E0A3F60826
:10050100DFFA805889828A83E0A3F208DFFA804CFF
:1005110080D280FA80C680D4806980F280338010D6
:1005210080A680EA809A80A880DA80E280CA80333F
:1005310089828A83ECFAE493A3C8C582C8CCC583B7
:10054100CCF0A3C8C582C8CCC583CCDFE9DEE78087
:100551000D89828A83E493A3F608DFF9ECFAA9F006
:10056100EDFB2289828A83ECFAE0A3C8C582C8CC5C
:10057100C583CCF0A3C8C582C8CCC583CCDFEADE75
:10058100E880DB89828A83E493A3F208DFF980CCD7
:1005910088F0EF60010E4E60C388F0ED2402B404D0
:1005A1000050B9F582EB2402B4040050AF23234577
:0605B10082239005117386
:1005B700BB010689828A83E0225002E722BBFE0242
:0905C700E32289828A83E4932275
:1005D000BB010CE58229F582E5833AF583E02250E0
:1005E00006E92582F8E622BBFE06E92582F8E2222A
:0D05F000E58229F582E5833AF583E4932244
:1005FD00F8BB010DE58229F582E5833AF583E8F034
:10060D00225006E92582C8F622BBFE05E92582C8DF
:02061D00F222C7
:10061F00A3F8E0C5F025F0F0E5821582700215838E
:06062F00E0C838F0E822EB
:10063500EB9FF5F0EA9E42F0E99D42F0E89C45F01B
:010645002292
:0C064600ECF0A3EDF0A3EEF0A3EFF02227
:10065200A8828583F0D083D08212066912066912BD
:100662000669120669E473E493A3C583C5F0C583E2
:10067200C8C582C8F0A3C583C5F0C583C8C582C8F2
:010682002255
:10068300BB010DE58229F582E5833AF583020793E1
:100693005007E92582F802078ABBFE07E92582F89D
:1006A3000207BCE58229F582E5833AF5830207C593
:1006B300D083D082F8E4937012740193700DA3A3D6
:1006C30093F8740193F5828883E4737402936860EA
:0606D300EFA3A3A380DFEA
:10083200E508248BF582E43401F583E00508229073
:10084200018830070390018BE475F00112079C02C6
:1008520005B72000E97F2ED2008018EF540F2490B4
:10086200D43440D4FF30040BEF24BFB41A00500339
:100872002461FFE50960021509050CE50C7002050B
:100882000B30070E900188E475F00112079CEF020D
:10089200070502164D7403D2078003E4C207F50868
:1008A2009001881207B3E4F509F50BF50CE5096030
:1008B200077F2012087580F5750AFFC201C200C2C7
:1008C20002C203C205C206C208120841FF700D30FF
:1008D20007057F00120886AF0CAE0B22B4255FC25B
:1008E200D5C204120841FF24D0B40A00501A75F090
:1008F2000A780930D50508B6FF0106C6A426F620F7
:10090200D5047002D20380D924CFB41A00EF500468
:10091200C2E5D204020A87D20180C6D20080C0D2C8
:100922000280BCD2D580BAD20580B47F201208756D
:100932002002077401B5090040F1120832FF1208C3
:10094200750208AFD208D2068095120832FB12084F
:1009520032FA120832F94A4B700679587A0B7BFF49
:1009620020022EE509602A7E008E82758300120520
:10097200D060060EEE650A70F0C2D5EBC0E0EAC0A8
:10098200E0E9C0E0EE120ACED0E0F9D0E0FAD0E021
:10099200FB1205B7FF60AAEBC0E0EAC0E0E9C0E0E5
:1009A200120875D0E02401F9D0E03400FAD0E0FB5F
:1009B200E50A0460DCD50AD980877BFF7A0A79CA06
:1009C200D202809C791080027908C206C20880088F
:1009D200D2D5790A8004790AC2D5E50A047002F5F3
:1009E2000AE4FAFDFEFF120832FC7B082001131212
:1009F2000832FD7B1030000A120832FE120832FF64
:100A02007B20EC3382D592D55013C3E43000069F8D
:100A1200FFE49EFEE42001039DFDE49CFCE4CBF890
:100A2200C201EC700CCFCECDCCE824F8F870F38084
:100A320017C3EF33FFEE33FEED33FDEC33FCEB3344
:100A4200FB994002FB0FD8E9EB300105F8D0E0C476
:100A520048B201C0E00AEC4D4E4F78207B0070C2D4
:100A6200EAB50A0040BCC0E0120AD0D0F0D0E020C3
:100A72000104C4C0E0C4B201C0F012085ED0F0D5D7
:100A8200F0EB0208AF1206B3094C5309C658091D10
:100A92004C09194209CA4F09D24409D249093243C1
:080AA20009D85509BC4609BC46
:100AAA004509BC470B785009212D09252E09482BE9
:100ABA000929230946200B612A08E1480000094058
:100ACA003F3F3F00790AA2D5200314300509B91027
:100ADA00020404B9080104A2D52006025001042028
:100AEA0002689202B509005034C0E07F2030031931
:100AFA007F30A20272067205500F120B27C202C281
:100B0A0006C205C2087F30800F300503E9C0E01233
:100B1A000875300503D0E0F9D0E0B509CC300517E7
:100B2A007F30B9100C1208757F583004077F78801F
:100B3A0003B908031208753002057F2D0208757F74
:100B4A00202008F87F2B2006F322920280CF286EFD
:100B5A00756C6C2900D2011208323001F8C2017892
:100B6A000930D50108F60208E12D50434958120808
:100B7A00322403B405004001E4900B739312086613
:0D0B8A00743A120866D2037509040209C608
:1016AC00E4FFFE1205B7600C0FEF70010E09E97034
:0516BC00F20A80EF229C
:100B9700900188EBF0A3EAF0A3E9F0900191120627
:100BA7005200000000E490018FF0A3F090018BE069
:100BB700FBA3E0FAA3E0F9EA494B6020900188E043
:100BC700FBA3E0FAA3E0F9EBC0E0EAC0E0E9C0E08C
:100BD700A3E0FBA3E0FAA3E0F91207D1900188E0B4
:100BE700FBA3E475F00112061FA9F0FA1205B790EE
:100BF7000195F0E0FFC394094006EFD3940D40DC64
:100C0700EF642060D7EFB42D0C90018FE0F0A3E0E4
:100C17004403F0801D900195E0B42B0C90018FE008
:100C2700F0A3E04401F0800A90018974FFF5F01207
:100C3700071790018EE0600464107051900188E0FE
:100C4700FBA3E0FAA3E0F91205B76430600B90014B
:100C57008EE07039740AF080349000011205D0FFDD
:100C670064786004EFB4581C90018FE0F0A3E0446F
:100C770001F090018E7410F0900189E475F0021272
:100C87000717800990018EE070037408F0900188BF
:100C9700E0FBA3E475F00112061FA9F0FA1205B7ED
:100CA700900195F0E0FFC39461400AEFD3947A5026
:100CB70004EF54DFF0900195E024D0F0E0FFC394F7
:100CC7000A400FEF94115003020D76900195E0242E
:100CD700F9F090018EE0FB900195E0C39B40030281
:100CE7000D7690018FE0F0A3E04401F0A3E0FCA3B0
:100CF700E0FDA3E0FEA3E0FF900196120646EBFF9E
:100D07007E00E4FCFD900191E0F8A3E0F9A3E0FA8E
:100D1700A3E0FB12072DC8ECC8C9EDC9CAEECACBC0
:100D2700EFCB900195E0FFE4FCFDFEEB2FFFEE3AE1
:100D3700FEED39FDEC38FC900191120646900191C9
:100D4700E0FCA3E0FDA3E0FEA3E0FF900196E0F83E
:100D5700A3E0F9A3E0FAA3E0FBD3120635500302A0
:100D67000C9490018FE0F0A3E04404F0020C9490FF
:100D77000190E020E003E4804390018BE0FBA3E0D7
:100D8700FAA3E0F9EA494B6026900188E0FBA3E06B
:100D9700FAA3E024FFF9EA34FFFAEBC0E0EAC0E087
:100DA700E9C0E0A3E0FBA3E0FAA3E0F91207D190C2
:100DB700018FE0FAA3E0FB30E20774FFFFFEFDFCC2
:100DC70022EB90019130E10EE0FCA3E0FDA3E0FEF1
:100DD700A3E0FF02077CE0FCA3E0FDA3E0FEA3E0A5
:020DE700FF22E9
:1006D900EF4E6012EF60010EEDBB010B89828A8338
:1006E900F0A3DFFCDEFA2289F05007F709DFFCA945
:0C06F900F022BBFEFCF309DFFCA9F0229C
:10070500BB010689828A83F0225002F722BBFE01D3
:02071500F322CD
:10071700C5F0F8A3E028F0C5F0F8E582158270026D
:060727001583E038F0220A
:10072D00E88FF0A4CC8BF0A42CFCE98EF0A42CFC6B
:10073D008AF0EDA42CFCEA8EF0A4CDA8F08BF0A4E9
:10074D002DCC3825F0FDE98FF0A42CCD35F0FCEB48
:10075D008EF0A4FEA9F0EB8FF0A4CFC5F02ECD390D
:0F076D00FEE43CFCEAA42DCE35F0FDE43CFC227A
:0E077C00C3E49FFFE49EFEE49DFDE49CFC228E
:09078A00E6FB08E6FA08E6F92294
:09079300E0FBA3E0FAA3E0F92267
:10079C00F8E0FBA3A3E0F925F0F0E58215827002E6
:0707AC001583E0FA38F0228A
:0907B300EBF0A3EAF0A3E9F02247
:0907BC00E2FB08E2FA08E2F9226E
:0C07C500E493FB740193FA740293F92290
:1007D100BB011A89828A83D0F0D0E0F8D0E0F9D049
:1007E100E0FAD0E0FBE8C0E0C0F00207B35016E940
:1007F100F8D083D082D0E0F9D0E0FAD0E0FBC0821B
:10080100C083020820BBFE16E9F8D083D082D0E075
:0F081100F9D0E0FAD0E0FBC082C08302082922B0
:10164D00EFB40A07740D121658740A309811A89940
:10165D00B8130CC2983098FDA899C298B811F630FD
:07166D0099FDC299F59922D5
:09082000EBF608EAF608E9F622FD
:09082900EBF208EAF208E9F22200
:00000001FF
