C51 COMPILER V9.60.0.0   MAIN                                                              03/09/2025 14:24:40 PAGE 1   


C51 COMPILER V9.60.0.0, COMPILATION OF MODULE MAIN
OBJECT MODULE PLACED IN .\Objects\main.obj
COMPILER INVOKED BY: E:\Program Files\Keil_v5\C51\BIN\C51.EXE User\main.c LARGE OPTIMIZE(8,SPEED) BROWSE INCDIR(.\User;.
                    -\wexcube_sdk) DEBUG OBJECTEXTEND PRINT(.\Listings\main.lst) OBJECT(.\Objects\main.obj)

line level    source

   1          #include "stc8h.h"
   2          #include "intrins.h"
   3          
   4          #include "wexcube.h"
   5          
   6          // 设备控制页面控件ID
   7          #define BUTTON_ID       1   // 按钮控件ID
   8          #define SWITCH_ID       2   // 开关控件ID
   9          #define TEXT_ID         3   // 文本框控件ID
  10          #define INPUT_ID        4   // 输入框控件ID
  11          
  12          #define MAIN_Fosc       33177600L   //定义主时钟
  13          
  14          wex_u16_t seconds = 0;
  15          
  16          //========================================================================
  17          // 函数: void delay_ms(u8 ms)
  18          // 描述: 延时函数。
  19          // 参数: ms,要延时的ms数, 这里只支持1~255ms. 自动适应主时钟.
  20          // 返回: none.
  21          // 版本: VER1.0
  22          // 日期: 2021-3-9
  23          // 备注: 
  24          //========================================================================
  25          void delay_ms(wex_u8_t ms)
  26          {
  27   1           wex_u16_t i;
  28   1           do{
  29   2                i = MAIN_Fosc / 10000;
  30   2                while(--i);   //10T per loop
  31   2           }while(--ms);
  32   1      }
  33          
  34          void timer0_init(void)
  35          {
  36   1              //20毫秒@33.1776MHz
  37   1              AUXR &= 0x7F;                   //定时器时钟12T模式
  38   1              TMOD &= 0xF0;                   //设置定时器模式
  39   1              TL0 = 0x00;                             //设置定时初始值
  40   1              TH0 = 0x28;                             //设置定时初始值
  41   1              TF0 = 0;                                //清除TF0标志
  42   1              TR0 = 1;                                //定时器0开始计时
  43   1              ET0 = 1;                                //使能定时器0中断
  44   1      }
  45          
  46          void main(void)
  47          {
  48   1              P1M0 = 0x00;
  49   1          P1M1 = 0x00;
  50   1              P2M0 = 0x00;
  51   1          P2M1 = 0x00;
  52   1              
  53   1              wex_init();
  54   1              wex_start();
C51 COMPILER V9.60.0.0   MAIN                                                              03/09/2025 14:24:40 PAGE 2   

  55   1              
  56   1              timer0_init();
  57   1      
  58   1          EA = 1;
  59   1              
  60   1              while (1)
  61   1              {
  62   2                      const t_sWexCmd *psWexCmd = wex_process();
  63   2                      switch (psWexCmd->eCmdType)             // 接收到的指令
  64   2                      {
  65   3                              case eWexCmd_Connect:           // WeXCube 连接指令
  66   3                              {
  67   4                                      P17 = 0;
  68   4                                      
  69   4                                      // 把当前状态发送给页面
  70   4                                      wex_setText(TEXT_ID, wex_uintToStr(seconds));
  71   4                                      wex_setValue(SWITCH_ID, P15);
  72   4                              }
  73   3                              break;
  74   3                              
  75   3                              case eWexCmd_Disconnect:        // WeXCube 断开指令
  76   3                              {
  77   4                                      P17 = 1;
  78   4                              }
  79   3                              break;
  80   3      
  81   3                              case eWexCmd_Event:         // 控件事件触发
  82   3                              {
  83   4                                      switch (psWexCmd->ucCtrlId)
  84   4                                      {
  85   5                                              case BUTTON_ID:
  86   5                                              {
  87   6                                                      P14 = psWexCmd->ucValue;
  88   6                                              }
  89   5                                              break;
  90   5                                              
  91   5                                              case SWITCH_ID:
  92   5                                              {
  93   6                                                      P15 = psWexCmd->ucValue;
  94   6                                              }
  95   5                                              break;
  96   5                                              
  97   5                                              default:
  98   5                                              break;
  99   5                                      }
 100   4                              }
 101   3                              break;
 102   3                              
 103   3                              case eWexCmd_Text:              // 控件文本
 104   3                              {
 105   4                                      switch (psWexCmd->ucCtrlId)
 106   4                                      {
 107   5                                              case INPUT_ID:
 108   5                                              {
 109   6                                                      wex_u8_t pin = wex_strToUint(psWexCmd->pcText);
 110   6                                                      if (psWexCmd->pcText[0] == '\0') pin = -1;
 111   6                                                      switch (pin)
 112   6                                                      {
 113   7                                                              case 0:
 114   7                                                                      P20 = 0;
 115   7                                                              break;
 116   7                                                              
C51 COMPILER V9.60.0.0   MAIN                                                              03/09/2025 14:24:40 PAGE 3   

 117   7                                                              case 1:
 118   7                                                                      P21 = 0;
 119   7                                                              break;
 120   7                                                              
 121   7                                                              case 2:
 122   7                                                                      P22 = 0;
 123   7                                                              break;
 124   7                                                              
 125   7                                                              case 3:
 126   7                                                                      P23 = 0;
 127   7                                                              break;
 128   7                                                              
 129   7                                                              case 4:
 130   7                                                                      P24 = 0;
 131   7                                                              break;
 132   7                                                              
 133   7                                                              case 5:
 134   7                                                                      P25 = 0;
 135   7                                                              break;
 136   7                                                              
 137   7                                                              case 6:
 138   7                                                                      P26 = 0;
 139   7                                                              break;
 140   7                                                              
 141   7                                                              case 7:
 142   7                                                                      P27 = 0;
 143   7                                                              break;
 144   7                                                              
 145   7                                                              default:
 146   7                                                                      P2 = 0xff;
 147   7                                                              break;
 148   7                                                      }
 149   6                                              }
 150   5                                              break;
 151   5                                              
 152   5                                              default:
 153   5                                              break;
 154   5                                      }
 155   4                              }
 156   3                              break;
 157   3                              
 158   3                              default:
 159   3                              break;
 160   3                      }
 161   2                      
 162   2                      // WeXCube 连接好就向页面传输计数值
 163   2                      if (wex_getConnectState())
 164   2                      {
 165   3                              static wex_u16_t lastSeconds = 0;
 166   3                              if (lastSeconds != seconds)
 167   3                              {
 168   4                                      wex_setText(TEXT_ID, wex_uintToStr(seconds));
 169   4                                      lastSeconds = seconds;
 170   4                              }
 171   3                      }
 172   2                      
 173   2                      // 向 WeXCube 发送数据时不能太频繁容易造成蓝牙发送阻塞
 174   2                      delay_ms(10);
 175   2              }
 176   1      }
 177          
 178          
C51 COMPILER V9.60.0.0   MAIN                                                              03/09/2025 14:24:40 PAGE 4   

 179          // 定时器0中断
 180          void Timer0_Isr(void) interrupt 1
 181          {
 182   1              static wex_u8_t n = 0;
 183   1              
 184   1              if (n++ >= 50)
 185   1              {
 186   2                      n = 0;
 187   2                      seconds++;
 188   2              }
 189   1      }


MODULE INFORMATION:   STATIC OVERLAYABLE
   CODE SIZE        =    438    ----
   CONSTANT SIZE    =   ----    ----
   XDATA SIZE       =      5       4
   PDATA SIZE       =   ----    ----
   DATA SIZE        =   ----    ----
   IDATA SIZE       =   ----    ----
   BIT SIZE         =   ----    ----
END OF MODULE INFORMATION.


C51 COMPILATION COMPLETE.  0 WARNING(S),  0 ERROR(S)
