:10000000020C7C7E340001E4020D0C02000ECA5981
:10001000CA39C0D1C083C0829001B67EEBA07CBA41
:1000200004F0BEA0324010E49001B6F09001B20B93
:10003000EA300B341BEA30D082D083D0D1DA39DAFF
:02004000593233
:10004300020BDCCA3B6D339001541BEA3090008BEA
:10005300E0700302044302039A6D339001440BEAF8
:10006300209001460BEA00BD0228067D109D1280F8
:10007300087E1400409D122D1090018A1BEA10BEC9
:1000830014000650030203AD7D720B74900148699E
:100093001E00020BEA002D127E0BB0B4BE028003D9
:1000A3000203845E74003F900148691E00020BEA5C
:1000B300007F202D577E2BB054F0B4100280030232
:1000C30003840B745E74003F2D177E0BD0BED006E5
:1000D3005003020384BED02828030203840A2D7D23
:1000E300529E54000390018CF090018D1BEA3090D6
:1000F300018A0BEA30BD2328030203AD7D370B349D
:100103005E34003F90018D1BEA309000027AEBD001
:100113006CCC803690018D0BEA10900148693E004B
:10012300020BEA202D317E1BB00A3C2E3400037AE9
:1001330071827A6183F090018D0BEA300B345E3467
:10014300003F90018D1BEA300BC090018CE0BCCBCB
:1001530040C20A3D7D232E24FFFF7A51827A4183D8
:10016300E0B4ED0280030203842E34FFFE7A718231
:100173007A6183E0B4EB028003020384900003E01E
:100183000A3B9001541BEA30900093E0701E9001EB
:10019300540BEA30BE34008168127E340081900132
:1001A300541BEA309001440BEA70805290018D0B8E
:1001B300EA104D117811E4900148693E00020BEA00
:1001C3002039B1003F8012E41B14900148693E00BE
:1001D300020BEA202D317A1BB090018D0BEA70904F
:1001E30001540BEA30BE3400846813900098693ED2
:1001F30000020BEA200B1C793E00021BEA2090014F
:10020300540BEA509E540081BE540028400302035D
:10021300847EA003A490021C730202940202A00233
:1002230003840202A80202B60203840203840203C7
:10023300840203840203840203840203840203848A
:100243000203840203840203840202C90202E40259
:1002530003840203840203840203840203840203EB
:10026300840203840203840203840203840203845A
:100273000203840203840203840202FF0203840252
:100283000384020301020313020352020352020313
:10029300747401900093F0120003020384E490004D
:1002A30093F0020384120E786D339001541BEA30ED
:1002B300020384900004E0900156F0900005E09062
:1002C3000157F0020384900004E090015CF0900079
:1002D30005E090015DF0900006E090015EF00203FE
:1002E30084900004E090015FF0900005E0900160CD
:1002F300F0900006E0900161F0020384800090001A
:1003030004E0900156F0900005E0900158F08071F0
:10031300900004E0900156F00A3D9E340007CA396C
:100323007E3400057E240001900163691E00020BE8
:10033300EA00120DA41BFDE40A1D900163693E004F
:10034300020BEA202D312E34FFF97A1BB080329054
:100353000004E0900156F0900005E0900159F09000
:100363000006E090015AF0900007E090015BF080F6
:1003730010900004E0900156F0900005E0900162B7
:10038300F07D375E34003F9001441BEA3090015406
:100393000BEA304D3378139001460BEA2090014469
:1003A3000BEA30BD32680302005C90014E0BEA5049
:1003B30090014C0BEA40BD457803020443BD455010
:1003C300219D54BE540014502D900150691E00020B
:1003D3000BEA002D14120DE390014E0BEA30805A04
:1003E300801490014C0BEA207E7400807D379D328F
:1003F300BE340014282390014C0BEA30900150695D
:100403001E00020BEA002D137414120DE390014C2D
:100413000BEA302E340014802490014C0BEA309008
:100423000150691E00020BEA002D1390014C0BEAE8
:10043300407D579D54120DE36D3390014C1BEA3000
:100443007E3401547E240001DA3B227F707F517E8B
:10045300C400017ED401B27E9404610204A4400569
:10046300E47A7BB0227A7BB00B7C227D02AD31AD86
:10047300102D2122540F2490D43440D430F30CBED9
:10048300B0414007BEB05B500224204CCC68021B35
:10049300C00B84D389944CCC680B742012048E80D7
:1004A300F5CA3B6D889F337CAE7E5BB00B5C7007F7
:1004B300C37D38DA3B8994B42569C2F37E5BB00B04
:1004C3005CA5F824D0BEB00A501B7E500A20F60D5E
:1004D300AC5CA52D7CCB70034EF00180DDAC5DA53B
:1004E3002D7CDB80D524CFBEB01AA5E850055E0075
:1004F300DFD2F390071AA3E4936011BCB078F774CA
:1005030014934CAB30F6B34EF08080AEA3E493600B
:1005130010BCB078F77413937C3B741D937C2B89C8
:10052300147CB08013742012048E20F205BEC00226
:1005330050F31B6D29B6000112048E0204991B6E41
:10054300691600020B6A00BE08000078087E0400EA
:10055300FF7E140E9820F21E4CCC681A7F10E47EA6
:100563001B804C8868070B1C04BCBD78F2C2F6CA1A
:100573000B120678DA0B7E0BB060C0CA0B12048E26
:10058300DA0B0B0C4CDD68EE1BD078EA80ADD2F0B1
:100593007E101080037E10085EB05F800AD2F67E64
:1005A300100A80057E100AC2F66D119F117E00208D
:1005B3001B6C7E6B7030F6021A3720F1051B6C7EC4
:1005C3006B6030F6041A261A2430F0051B6D0B6A93
:1005D30020A5EC3382F692F6500A7CEA9F229F21F3
:1005E3007F127CAE4C44780F7C457C567C676C77DD
:1005F3002E00F878EF80122F117CB3337C3B9CB133
:1006030040047C3B0B70A5D8EE7CB230E005DAB831
:10061300C44C3BCA380B207E00207E3000BE18003D
:100623000078C1BE1008780730F404C2F480B5CA5C
:10063300287CB2BCBD38027CBD120678DA28BC2DFA
:10064300500A1BD0E4CA2812047780F07CB213DA74
:10065300B84004C4CAB8C4CA28BEF08040095CDDEF
:100663007805A5DA0260065EF07F120477DA28A522
:10067300DADA020499BEF001680F30F40224022092
:10068300F50620F70330F6010420F229BCBC5025FF
:10069300CAB87CBF13B0E67420501174307C8A5EF4
:1006A30080F068081206B85EA00F800312048EDA89
:1006B300B8BCBC78DB30F40F743012048E7458303D
:1006C300F302747812048E30F605742D02048E74CE
:1006D3002B20F5F8742020F7F3221B6C7E6BB010EF
:1006E300F1021B6C20F60B30E704F404D2F27CCB4E
:1006F300800520E7057CDB0204BD5EF07F80F81BEC
:100703006E691600020B6A0030F0076D221B0A2087
:100713000B0D1B0A800204A82D2B204C4248232ECC
:100723000053584F44494355502A4E00042080013A
:1007330002001040419398A0A02DA791DD0205056A
:100743000505050505050607759200759100759663
:1007530000759500120B6C120E87120E3CD2AF126D
:1007630000467F310B3A302E34FF7E68392E34FF3A
:10077300E168381B3668592E340024680302084B9D
:10078300C2979001B20BEA306D22120D7E7F017485
:1007930003120E807402CAB8A295E4337C7BDAB8E4
:1007A300120E6D02084BD29702084B29B300021BAD
:1007B300B1681204680302084B297300042E70FF0A
:1007C300929402084B297300042E70FF929580784F
:1007D30029B300021BB27870691300116903000F7B
:1007E300120E937CB7900189F069330011692300DD
:1007F3000F7E1BB0700674FF900189F0900189E0B1
:10080300BEB00850407EA003A490081073020828CD
:1008130002082C02083002083402083802083C029D
:100823000840020844C2A0801FC2A1801BC2A2804C
:1008330017C2A38013C2A4800FC2A5800BC2A680D7
:1008430007C2A7800375A0FF120E8E60289001B225
:100853000BEA309001B40BEA20BD2368186D221215
:100863000D7E7F017403120E809001B20BEA30906B
:1008730001B41BEA30740A120DFC020762CA3B7F03
:100883003090018CF090018A1BEA307E34009C7E0C
:1008930024000190018D793E00021BEA20120E5FB5
:1008A3006D2290018A0BEA107C13BE108040030274
:1008B30009664D11780302096690018CE07003020A
:1008C3000966BE38000078029F11BE180020280474
:1008D3007E1800207F012E08000790018D695E00BD
:1008E300020BEA403932000290018A0BEA109001B0
:1008F3008D695E00020BEA403932000390018CE0FF
:1009030090018D691E00020BEA0039B00004CA3958
:100913007F1390018D691E00020BEA002E1400055F
:10092300120DA41BFD74EB90018D693E00020BEACE
:100933002029A100020A1A7D012E04009A7A11824D
:100943007A0183F074ED2E14009B7A31827A21832D
:10095300F07E14009C7E04000129B100027E700128
:10096300120969DA3B22CA3B7CE77CFB9001911BAD
:10097300EA00791E000290008BE07003020A370A36
:100983002F90014E0BEA307D132D12BE14008050C0
:1009930029CA29900150691E00020BEA002D139009
:1009A3000191693E00020BEA20120DA41BFD0A2FE0
:1009B30090014E0BEA302D32805F90014E0BEA30EE
:1009C3007E6400809D630A3DCA3990014E0BEA3074
:1009D300900150691E00020BEA002D1390019169EA
:1009E3003E00020BEA20120DA41BFD0A2D0A3F9DB7
:1009F30032CA390A1D900191693E00020BEA202D8B
:100A030031900150691E00020BEA00120DA41BFD78
:100A13000A2D0A3F9D3290014E1BEA30BEE0017859
:100A230013900094693E00020BEA200B1C793E00F0
:100A3300021BEA20DA3B22CA3B7F302EF8000580F6
:100A4300020B747E3BB0120E2840F674017AFBB0A1
:100A53007E3BB0BEB02B6803B42D147E3BB00B7449
:100A6300BEB02D68057E700180026C777AFB709FA3
:100A730011793FFFFE792FFFFC80267E14000A695F
:100A83003FFFFE692FFFFC12046E7E3B301A131AE0
:100A9300029E0800302F10793FFFFE792FFFFC0BD9
:100AA300747E3BB0120E4F40D27EFBB0600A693FAA
:100AB300FFFE692FFFFC8012693FFFFE692FFFFCD9
:100AC3006E34FFFF6E24FFFF0B1C9EF80005DA3B1C
:100AD300226D339001441BEA309001461BEA307EBD
:100AE3001400287E0400017E340040E4120DC96D19
:100AF3003390014C1BEA3090014E1BEA307E140008
:100B0300C47E0400017E340080E4120DC99F11905D
:100B13000094793E00021BEA20900098793E00027F
:100B23001BEA209001541BEA30E4900156F0900137
:100B330057F0900158F0900159F090015AF090014C
:100B43005BF0900162F07E3401677E240001900126
:100B530063793E00021BEA20900163691E00020BC9
:100B6300EA007E340021020DC9120E12120AD47E4D
:100B73003402009000881BEA30741090008AF0E47D
:100B830090008BF07E34004090008C1BEA307E3462
:100B9300008090008E1BEA307E3400149000901B7E
:100BA300EA30900092F0900093F09F1190009479B6
:100BB3003E00021BEA20900098793E00021BEA20C7
:100BC30074BE900000F07410900001F074BE9000A9
:100BD3009CF0741090009DF022CA7BCA6BCA5BCA5A
:100BE3004BCA2BCA1BCA0BC0D1C0D0C083C082E57D
:100BF3009A30E105539AFDC200E59A30E016E59B71
:100C0300900188F0539AFE7E1401887E04000174DB
:100C130001120CC5D082D083D0D0D0D1DA0BDA1B2D
:100C2300DA2BDA4BDA5BDA6BDA7B327C957CAB7DE1
:100C3300137E34009C7E2400017CB3BEB080503808
:100C43004D1168344CAA6830740839B10002393147
:100C5300000339A100043991000574EB39B1000692
:100C630074ED39B100077E14009C7E04000129B1A4
:100C730000027E7001020969227584017E44041F0B
:100C8300E47A49B01B4478F97EF80020C2007E0460
:100C930000FF7E140E9C0B0A405D4468222950001D
:100CA300020A25693000032E0800050B44800A7EE2
:100CB3000BB07A1BB00B1C0B0C1B4478F280D702D1
:100CC300074B7CAB7F7090008BE0603C6C7780348B
:100CD3000A277F072D127E0B609001460BEA207DC9
:100CE300120B141BEA10900148691E00020BEA0064
:100CF3002D127A0B609001460BEA205E24003F1B05
:100D0300EA200B70BC7A40C8227CAB7D137E340092
:100D13009C7E2400017CB3BEB080502B4D1168270C
:100D2300740639B100023931000374EB39B10004A0
:100D330074ED39B100057E14009C7E04000129B1D5
:100D430000027C7A020969220000000000005A5A5E
:100D53005AB4B4B4F3F3F3FFFFFF87CEFAFFC0CB6B
:100D6300FF8000808000007AFFFFFF00008000FF0B
:100D730000FFFF000080008000FFFF9001AE793E7E
:100D830000021BEA207E1400687E0400017E3410FA
:100D9300157E2400FF12044E7E3400687E24000179
:100DA300227F217F707F10800A7E2B307A1B300BCD
:100DB300540B34691FFFFD7D011B04790FFFFD4DAB
:100DC3001178E67F1722CAF87DF37CFB7F207F1022
:100DD30080071BF47A2BF00B544DFF78F5DAF822D9
:100DE3007CAB800C2000FD7E0BB00B14F59BD20076
:100DF3007C7A1BA0A5BF00EC227CAB7E4415997DB9
:100E0300341B347D4378F87CBA147CAB78ED2275BF
:100E13009A50438E0475D7B875D6FF438E1043AFEF
:100E23000153BAFE227C7BBE70094005BE700E40A2
:100E330004A5BF2002D322C322538E7F5389F075AA
:100E43008A00758C28C28DD28CD2A9227C7BBE707D
:100E5300304007BE703A5002D322C3226D33800262
:100E63000B347E0BB00B1470F7227CA77E34005436
:100E73007C5A020C2E7E340003E4020D0C7E3400F7
:100E830055020880740190008BF022900093E022B9
:100E93007F10020A3A2830290000020101B2000043
:100EA30000020101B4000000010101B600002801A5
:100EB300000000000000000000000000000000002F
:100EC300000000000000000000000000000000001F
:100ED30000000000000000000000004001002800A6
:100EE30000000000000000000000000000000000FF
:100EF30000000000000000000000000000000000EF
:100F030000000000000000000000000000000000DE
:100F130000000000000000000000000000000000CE
:100F23002001006800000000000000000000000035
:100F330000000000000000000000000000000000AE
:100F430000000000002801009C00000000000000D9
:100F5300000000000000000000000000000000008E
:100F6300000000000000000000000000000000007E
:100F73000000800100C40000000000000000000029
:100F8300000000000000000000000000000000005E
:100F9300000000000000000000000000000000004E
:100FA300000000000000000000000000000000003E
:100FB300000000000000000000000000000000002E
:100FC300000000000000000000000000000000001E
:100FD300000000000000000000000000000000000E
:100FE30000000000000000000000000000000000FE
:100FF30000000000000000080101440000000000A0
:10100300010028000801014C00000000000100C499
:061013000000256C7500D1
:00000001FF
