:020000021000EC
:100000006FD0A1430000000000180118002801284B
:100010000228032800290129022903290429052986
:10002000062907290829002A012A022A032A042A64
:10003000052AA62AB0DA0200F20E0100F81001002B
:1000400038110100A8100100961001006E3900203F
:100050005C110100261201004E120100A8130100DC
:1000600034140100020E0100320D01009C0D01004C
:100070005E0D0100D4170100AA39002056110100BD
:1000800090150100449D0200029F0200749F02002F
:10009000D65F0200E65F020086FC010042F001002C
:1000A0000CA70200BE1501001C6602008AAE01000A
:1000B00010AF010068AF01005C1D0100A81D010028
:1000C0001E1C0100C86E0100CA6901007A77010098
:1000D000467B0100EE7E0100405C0100DE5B01001A
:1000E000C45F01008C5C0100B45B0100385C01005E
:1000F000665B0100085D0100605D0100105D0100AC
:10010000145D0100B05D0100685D01009A5D0100B1
:10011000BC620100C4620100045D01000C5D0100CD
:10012000AC5D0100C0620100605E0100F863010087
:10013000E68C0100608D01008E8D0100847001004D
:1001400096700100B870010022560100EA560100C5
:10015000425701005C390100D2340100D24F010046
:1001600044350100264F0100CCBB020050B902000B
:100170002EC302008CCF0200C0CE0200FED10200CE
:10018000FAD1020094AC020092D2020006AA020048
:1001900022D2020034C802004EC8020072C8020017
:1001A00002D30200F8CC02008ECC020072D302000F
:1001B00014AC02009CAC0200C0AC020062AC0200B5
:1001C000387C0200046B020052710200E46B0200F2
:1001D00044760200ACA70200AAA6020036AA0200DA
:1001E0004C1901007661020000660200D26602002E
:1001F000CC920200FA920200749302004A74010049
:10020000F67B0200BC760200506E0200EC78020021
:10021000BC6A0200A814010034620200987E020049
:10022000FE80020046810200AC7F02007A130100CA
:10023000B27101000000000000000000000000009A
:100240006373B60082801C419105110523AEF5FE53
:10025000C5BF938701B51387C1FF6373F700828021
:0802600023A007009107D5BFA0
:1002680049C5AA870145C1C58D07C207C183F19B4E
:10027800C207C183130740036366F70203A581B56C
:1002880083A601B56393A60203A781D3014525C3BD
:100298004111C20706C60545DD8D0297B2400145EA
:1002A8004101828003A541B5E1BF0357650005EF11
:1002B800035745006369F702B306F74021466370A8
:1002C800D6021041938687001D8FAA96611790C2A7
:1002D8002392E6002393060014C12312F50023138A
:1002E800B50021058280084171BF01458280828066
:1002F80009C903A881B583A501B50147C28763E38E
:10030800B70082809443636DF50663EBA6061386F7
:100318008700E368C5FE03D56700216605066317F5
:10032800C50003C681C10506238CC1C023930700FD
:100338006383070303A641B5630FF60003566700FE
:1003480019EA83D7470014C383564700B697A10715
:100358002312F700BA879843E305B7FA83A641B595
:10036800E301D7FA83566700C9FE83D647000356D0
:1003780047001843A106B2962392D70098C38280FB
:100388003E87B687ADBF19CDB71700401307700574
:100398002380E704130780FA2380E7042396A70243
:1003A80023800704828019C1814799E982803387B5
:1003B800F500834607003307F50085072300D700BB
:1003C800E397C7FEE5B719C1FD5781E9828091051A
:1003D80003A7C5FF1105232EE5FE7D16E319F6FEDA
:1003E800F5B7797126D283A741D606D622D44AD04A
:1003F8004ECE52CC938441D681C7829723A0040065
:10040800DC4089CB03D541B6BD3FDC40829703D59C
:1004180061B6953F9C4063990714938741F483C75D
:100428005700138941F4858B85C303477900A302DC
:100438000900914763FAE7002D2383477900F917EC
:100448008A07A6979C43829783C741F9918B89C7EE
:10045800973002E0E78060ED9C4491C382979386D1
:1004680041D403A701B603C61600138A01B6138444
:1004780041D48347040093961700BA9683D60600A2
:10048800638C060C8347040063F2C70686073E9711
:10049800835507002310070003D541B62EC6E5355E
:1004A8000345040083A741B713172500B245BA973F
:1004B8009C438297AA8903D561B6F1358347040026
:1004C8001397170083270A00BA9703D70700B3E9E1
:1004D800E900239037018347040003471400850788
:1004E80093F7F70F2300F40063E4E7002300040008
:1004F8009C40BDEB03A7C1B69384C1B635C78347FB
:10050800B90081CB8347790089E7973002E0E7801B
:10051800608C9C408297AA8421C91C48AA971CC851
:1005280083A701B781CF03D541B6B13D268597D0C2
:1005380000E0E780A06803D561B6B13583A7C1D2D2
:1005480085C72254B25092540259F249624A456111
:1005580017D300E06700C341850793F7F70F23001F
:10056800F400E3E8C7F039BFB2502254925402595C
:10057800F249624A456182809167B7C60040938715
:10058800373023A6F6200F100000938741D4884FF8
:1005980083A781C6316713073730F053B7071000B8
:1005A800FD17918F99833A0523A6E6205D8D8280F9
:1005B8004111B7170040985F3AC6945F3247E39CF1
:1005C800E6FE324541018280411106C6D53703C691
:1005D800C1D1058A15CA930730333307F502B337FB
:1005E800F5023983CA07938541D4D98FD8499386B0
:1005F80041D401456307F7006370F7023385E7408C
:10060800DCC9B24041018280E5473307F502B337C0
:10061800F5022583DE07C1BF37653D0809C6378562
:100628006F0813050590198D3E95DCCAD9BF0327BD
:10063800C50F8346B50083A7C1F5584393861602B4
:1006480095829043FD1693F6F60F10C3D04350C31E
:10065800904710C7D04750C7904B10CBD04B50CBCA
:10066800904F10CFD04F50CF91C6130707029387F2
:100678000702C1BF82808347E50193F7E70F91CB5B
:10068800014582800145B240224492440249410119
:1006980082808347F501EDF783460501034785000E
:1006A80099C60346650283C7D1D16367F60093777D
:1006B8000701F9D7814789CA834705158346F51489
:1006C800418BA207D58F01CB0347451583463515C6
:1006D8002207558FBA97CDD74111938681D006C688
:1006E80022C426C24AC083C64601138781D0139606
:1006F80086016186635F06029387C71313D4570088
:100708008344E70183A701EE7D5903A707086373B4
:1007180027013A899C43F5FB83A781B78297E36356
:10072800A9F63305A94026943334850013451400EF
:1007380099BF858A9387C71289CA8A071384F703E2
:100748009307D0073354F40265BF86071384F70173
:100758009307D003C5BF5D7126DC3AD203A781C5D4
:100768003ED04EC81C5F86C696C499839AC29EC066
:1007780022DE2ADA2ED832D636D442CE46CC4ACA1F
:1007880072C676C47AC27EC0858B938481C5B9CF80
:100798001C5F138441F493F7F7F91CDF83C741F416
:1007A80093F7070499CB83A781B7829708C883C7B3
:1007B80041F493F7F70B2382F1F48547A302F40081
:1007C8008347440093F7070489EB83A781C65844FD
:1007D800B8D3930700FC2302F4008307640063D7AF
:1007E800070083A741C59C432303F40098401C5F7E
:1007F8008583858BC1CBF5571CDF01000100010003
:1008080001000100010001000100010001000100D8
:1008180001000100010001000100010001000100C8
:1008280001000100010001000100010001000100B8
:1008380001000100010001000100010001000100A8
:100848000100010001000100010001000100010098
:100858000100010001000100010001000100010088
:100868000100010001000100010001000100010078
:100878000100010001000100010083A781C61307E0
:100888005004B8CB98401C5F9183858B81CFBD57AE
:100898001CDF83A781C6054723A80704938741F473
:1008A8002382E70083A741C5D8430583058B19C771
:1008B800D843759BD8C3D843799BD8C37254B640E4
:1008C800A64216438643E2545255C2553256A256A2
:1008D800125782577248E2485249C249324EA24ED4
:1008E800124F824F616173002030938741F403C730
:1008F8004700058B19EB03C72700058B19E703C7CA
:100908003700058B6DD723820700828083A741C6F5
:1009180099CB944BD04B9842518F98C294439C47A3
:100928009842D98F9CC283A781C6B7C60040A8CB7E
:100938009305C00313062003138741F483A7862079
:10094800C18393F7F70363E9F50083A78620C18382
:1009580093F7F7036366F60083474700858BF9DF53
:100968008280938741F403C74700058B19E703C7C3
:100978000700058B11C723820700A3820700828026
:1009880003C71700058B65D3FDB783A741C699CB6D
:10099800944BD04B9842518F98C294439C479842AD
:1009A800D98F9CC283A781C6B7C60040A8CBC145D2
:1009B8006546138741F483A78620C18393F7F7031D
:1009C80063FDF50083A78620C18393F7F703636669
:1009D800F60083474700858BF9DF828003A781C52E
:1009E800AA87185F1583058B25EF034515001505A4
:1009F8001377C51F19C6B386E70083C626002300F0
:100A0800D60085C583C6A1F4094593F60604B1CA84
:100A1800B386E70083C63600054693F5F60663926B
:100A2800C504E206E18663CE06023385E700834704
:100A3800150003470500A20793F70770D98F93960F
:100A48000701C18213F60640138701C619C693E64B
:100A580006802310D700014582802310F700E5BFE8
:100A68000545828001113EC42ECC83A581C636C8B7
:100A78003AC694452ACE32CA1397060142C246C0E6
:100A8800418393F81620138881C63A86938741F4E8
:100A9800638F080293F60620DDCE83C62700B708C9
:100AA800001093E616002381D70093060019B4D1ED
:100AB800930600F82382D70083A581C5D455F19AFF
:100AC80093E62600D4D59441B3E6160194C19376F3
:100AD800261081CE1376061051CA83C641F493E6D8
:100AE80016002382D1F42394070003C64700134756
:100AF800F7FF420762066186418383260800635F29
:100B0800060013161701635A0606AC520D466367B2
:100B1800B60005462382C700BC52FDFF8387C1D1BA
:100B280063DD070093170701C18763DC0704F052F0
:100B3800894763E4C700FC52FDFF9C467245E245C5
:100B48007D8F98C65246C2463247A247124882480D
:100B580005617300203083C617002394070093E6CD
:100B68001600A380D7002382070095B783C63700F5
:100B780093E61600A381D700BDB705462382C700B8
:100B880071BFDC4613960701635C0600B7071000C7
:100B9800FD17FCD2938741D4904F050690CF71BFC3
:100BA800A1675D8F59BF938701F8138601F6034645
:100BB800B60183C75701938601F8138701F6B297E8
:100BC80093F7F70F7D466361F604A300F7008347A8
:100BD8001700484B05463316F600A38AF600698EBF
:100BE80005EE03C6960113080002814633F6C702D4
:100BF8008147B355F500858993F8F70F99C96317AD
:100C0800D600A300170182808117C1B7850693F625
:100C1800F60F8507E39F07FD828003A701C7B75733
:100C280002009387079F8326070913965600635887
:100C38000600832607091396660063440600FD171D
:040C4800FDF38280B6
:100C4C0083A581D0938781D01386052223ACC1B4B0
:100C5C0003D74700938785FFBA97056523A8F1B49E
:100C6C001D05930600206364E50093563700330797
:100C7C00D60023AAE1B423A0E522E1162312D60064
:100C8C00231306001CC3998FE1172312F7002313BB
:100C9C000700828083A781B503A701B501456313C3
:100CAC00F700828083D6670081E683D647003695AD
:100CBC009C43F5B783A781B583A601B50145639322
:100CCC00F600828003D7670011E703D747006373F0
:100CDC00E5003A859C43E5B783A781B503A601B52A
:100CEC002A87B305B5406314F6003A8529A8938684
:100CFC0087009C43E369D7FEE377F7FE2E85E3E498
:100D0C00D5FEE3F2F5FE828023AC05FE1C4191E793
:100D1C00010001000CC18280BA8703A787FF6DFF19
:100D2C0023ACB7FE82801DC18346E5FF1307F00F8D
:100D3C009147639EE600411106C69730FF1FE7807E
:100D4C0020B7B24081473E854101828095473E8560
:100D5C00828001E9014582800145B2402244410173
:100D6C008280411122C42A84210542059305D004B6
:100D7C00418106C69730FF1FE78080AA71DDFD57C1
:100D8C0023200500231285002303F5002105F1B76C
:100D9C00411126C222C44AC083A7C1B506C601446C
:100DAC0001499384C1B589E7A165CD2B05C401A880
:100DBC0003C7E7FF6317A70215C8A165512E98401A
:100DCC00832784FF6316E4029CC0FD57232C04FE8A
:100DDC00230FF4FE2285B240224492440249410181
:100DEC00828011E03E8983A787FF75BF3E84E5BFF3
:100DFC00232CF9FED9BFB9C583C751D4411122C4E4
:100E0C0006C62A842E856368F400313F0D45B24036
:100E1C0022444101828083A785FF99E703C7E5FF40
:100E2C009307F00F6305F700FD3D1545CDB7238FF4
:100E3C0085FE1385C1B5C93D22852244B240A1650A
:100E4C00410139A61545828023AE01B4828083A767
:100E5C0001B799E33E85828003D727006316B7005C
:100E6C0003C70700E308A7FEDC47E5B741119397DA
:100E7C0005014AC006C622C426C2C1872E8963DE7C
:100E8C000700393711C1453521653345A900B240FA
:100E9C0022449244024941018280AA860145E5D947
:100EAC0001443D47B3578940858B8DCB83A481B6D4
:100EBC00BD4791E28147A2978E070545BE94331535
:100ECC008500131405019C40C8404180829723A0E3
:100EDC00040023A204003345240155BF0504E31389
:100EEC00E4FC0144CDBF83A781D2411122C406C6C4
:100EFC00138401B185C7829708C00840B747030027
:100F0C009387D73F3305F502B7A72600938737ECB5
:100F1C00B2403E9508C0224441018280184083A70C
:100F2C0041D5BA971CC0D1BF797126D2938741D4D1
:100F3C0006D622D44AD04ECE83C6170003A601B6DD
:100F4C00938441D4814713F7F70F6363D7089387D2
:100F5C0041F403C777009147138941F463E1E70833
:100F6C0083C741F9918BA5EF6800EFE0503F7D57A7
:100F7C00630AE50C938781D003C43701B247938988
:100F8C0081D0637EF404C44483C749016386E406BC
:100F9C00858BA9CFD147B384F40263729404973044
:100FAC00FF1FE780E0BCB24763F3F400A68703C4DD
:100FBC003901818F3384A7008387490163C40704F7
:100FCC00B707C0A86360F404B70740573E941DA848
:100FDC0085071397170032970357E7FF2DD7B250A9
:100FEC00225492540259F24945618280930790022F
:100FFC00B384F402858055B7E207E18763DC07020E
:10100C003304854003D561B69730FF1FE780A0936A
:10101C0019E03704C0A883A7C1D22285829761F159
:10102C0083278901CDDFEF502115EF50A17BEF50C5
:10103C00410875B7E37685FCB707C0A833848740B1
:10104C002A94C9B7DC44E38CA7F8138781D00347F3
:10105C004701938481D0058B1DC35144338487028F
:10106C0083C73401E3FD87F69730FF1FE78040B05C
:10107C0083C734011D8C2A948387440181B71304E0
:10108C009002338487020580E1BF2A9609E58280AD
:10109C000505A30FB5FEE31DC5FED5BF814733077C
:1010AC00F5000307070019E33E8582808507C5BF5D
:1010BC0001112E8626CAAA84131506019305F00485
:1010CC00418122CC06CE32C69720FF1FE7804075A7
:1010DC002A8419C53246A6859730FF1FE780A08861
:1010EC002285F2406244D2440561828081476314B8
:1010FC00F600054582803307F5008507B386F500B9
:10110C000347070083C6F6FFE383E6FE01458280B2
:10111C009307F6FFBE952A966313C5008280FD15D2
:10112C0083C715000505A30FF5FEFDB7814711E92F
:10113C00014582803307F50003470700E31AB7FE29
:10114C008507E319F6FE0545828003A541D582800B
:10115C0083C751D4637EF5009317150003A501B620
:10116C003E9583570500DD8D2310B5000145828027
:10117C000D458280011126CA938741D422CC4AC8DE
:10118C004EC652C456C206CE5AC07D57D8C703A409
:10119C0001B72A8A0149938441D4938A01B7938970
:1011AC0081D0184481476374EA00B307474103A711
:1011BC0049021CC409C7D84463F3E700DCC4B1E39B
:1011CC00835524008DE95C446316090423A0FA00BE
:1011DC00032BC40022859720FF1FE780606D5A8483
:1011EC0069F0F2406244D2444249B249224A924ADE
:1011FC00024B0561828003450400993F5C4081CB22
:10120C001CC483572400E1D322894044D1BF1C4421
:10121C00DDDBC5BF2326F90065BF83C751D46370DE
:10122C00F5029317150003A501B693C5F5FF3E957E
:10123C0083570500FD8D2310B500014582800D45B7
:10124C00828083C751D46364F500014582804111CB
:10125C0022C426C24AC006C62A842E89B284C53E40
:10126C0001C504C5054515A0936504F0C205C181EF
:10127C0041459720FF1FE780A05A11ED83A781D32A
:10128C0081C7A285114582970145B2402244924400
:10129C00024941018280138701B71C4385E308C3CF
:1012AC0085472326050004C523112501230085004D
:1012BC00A300F5002322050075B7BA87D84775FF40
:1012CC00C8C7F9BF5DC1397122DC26DA4AD84ED6BF
:1012DC0052D45AD05ECE66CA6AC806DE56D262CCEA
:1012EC006EC63689328AAE89AA840144394D854B43
:1012FC00F94C03A781B6131C3400937AF40F629750
:10130C001C43938D81B6A9EF13B5FA001345150054
:10131C00B3978B0063765D01930714FFB397FB00C3
:10132C0093950701C1815286293F1DC983A70D00E2
:10133C000145E29784C323A237016304090023000B
:10134C005901F2506254D2544259B259225A925A0B
:10135C00025BF24B624CD24C424DB24D2161828009
:10136C000504E31894F92145E9BF09458280411130
:10137C0022C426C24AC006C6AA842E893284D1351C
:10138C00CA852685E93409C940C10145B2402244C9
:10139C0092440249410182802145CDBF411122C4B2
:1013AC0026C24AC006C6AA842E8955342A8419C17D
:1013BC0023110500CA8526858D35014511E0194597
:1013CC00B240224492440249410182807547636BCA
:1013DC00A70483A681B6411126C293143500A696A4
:1013EC00944222C406C6AA87138481B6094595C6C1
:1013FC0013B5F7003947134515006373F700C5178C
:10140C008545B395F500C205C181493F1C40014596
:10141C00A69723A0070023A20700B24022449244BF
:10142C004101828009458280411106C60D3409C5EF
:10143C000845B240410182800145E5BFF54763ECA8
:10144C00A70483A781B613173500BA979843894729
:10145C0021C7011126CA06CE9334F50022CCB94718
:10146C0093C4140063F3A700451505443314A4007A
:10147C00420441802EC62685A2857D378947324697
:10148C0009C5A2852685753B8147F2406244D2444A
:10149C003E850561828089473E8582802392A1B674
:1014AC002393B1B68280411106C623A6A1B602953C
:1014BC00B24023ACA1D4014541018280994763E835
:1014CC00B70093972500938541D6BE9588C182803D
:1014DC00411106C622C426C2EFF08FF67146814533
:1014EC00138541D65D36138441D413060002814521
:1014FC00138541D4593E23A801B623A601B683C750
:10150C0041D29305101013D527008D8B3E958D4736
:10151C003305F5029947938441B735051375F50FDB
:10152C002301A4003305F5021305050F9720FF1FB7
:10153C00E780002F23A4A1B6834724001305050FD1
:10154C0088C08A073E9523A0A1B6EFF0FF8FD12C5F
:10155C00834714009840B7160100139627003A965B
:10156C00938686E714C213862700850793F7F70F37
:10157C00A300C400B24022448A07BA9794C3924491
:10158C0041018280138741D483471700834627008B
:10159C0063FED70083A641B713861700A300C700CC
:1015AC0013972700369708C33E8582809307F00F68
:1015BC00E5BF1C41638C070E41777D8FB706002079
:1015CC0089476316D70E0357450075C3411126C2D0
:1015DC001946AA849305F00F590506C622C44AC0C1
:1015EC00B13605478D47630CE50A1306C0038145E8
:1015FC00138581D0593C1306C003A685138581D071
:10160C009720FF1FE7802036138981D00357C9002C
:10161C00938781D009E7130700202396E70003C7BF
:10162C00E70001E705472387E70003C7F70001E759
:10163C006D47A387E70003C7070101E71547238818
:10164C00E70003C7170101E70547A388E70003C7B5
:10165C00570109E703C70701A38AE70003C727015E
:10166C0001E751472389E70003C7E70109E713079F
:10167C008002238FE70003C7370109E71307D00265
:10168C00A389E70003C7D40101E70947A38EE7004C
:10169C009C5781C782972395A1D41D3D8147B240A9
:1016AC002244924402493E854101828089473E850D
:1016BC008280011122CC06CE2A842EC6EFF0BF8286
:1016CC00B245F240818D33A5A50222956244137573
:1016DC00F50F05618280011122CC06CE2A842EC61C
:1016EC00EFF07F80B245F240818D33A5A5022295A3
:1016FC0062444205418105618280011122CC06CEF3
:10170C002A842EC6EFF02FFEB245F240818D33B500
:10171C00A5022295624405618280138781D01857F7
:10172C00011122CC06CE26CA4AC84EC6138441F4F7
:10173C0031CF138981D00297138741D403576700A7
:10174C00AA84938941D42DCFBA876373A700AA8743
:10175C00C207C183BA8663F3E400A686C206C182BF
:10176C00958F5147635EF7048327C90291C3829713
:10177C0085472304F400EF40117523939900F24040
:10178C006244D2444249B249056182808347840055
:10179C008DE783479400850793F7F70FA304F400B4
:1017AC00A18BF1DF85472314F4006244F240D2444C
:1017BC004249B24905616F409176A3040400F5B724
:1017CC0083478400CDDFD5B7138781D058570111DB
:1017DC0022CC06CE138481D001C72AC6029732458B
:1017EC00938781B701CD88C337450020130505B910
:1017FC005D39F24062440145056182800307440172
:10180C00635C0700138741D4232C07003747002063
:10181C00130707B498C3C9BF37470020130787B70E
:10182C00D5BF011122CC138481D0084406CE26CA20
:10183C0019E50545F2406244D244056182805C584A
:10184C00EDDB185C7DD77000854582971844B24754
:10185C00E301F7FE0345E4008357C4009305E0045D
:10186C003305F502938441D4420541819720FF1F33
:10187C00E78000FBC8CC55DD8357C4000346E40069
:10188C009305F00F3306F602EFF03F80D04C08447E
:10189C008357C40008C28345E400B385F5021C5C81
:1018AC0089818297C84C9720FF1FE7806000014513
:1018BC0023AE040041B7411122C4938781D09C47C9
:1018CC0026C206C6938441D4B1CF138481D01C5C4C
:1018DC00B1CBDC4C85E30345E4008357C40093058E
:1018EC00E0043305F502420541819720FF1FE78094
:1018FC0020F3C8CCC84C1DC58357C4000346E40074
:10190C009305F00F3306F602EFF02FF8D04C084495
:10191C008357C40008C28345E400B385F5021C5C00
:10192C0089818297C84C19C59720FF1FE78040F822
:10193C0023AE0400B240224492440145410182800E
:10194C0001114AC8938741D422CCC04F4EC652C411
:10195C0056C206CE26CAAA8AAE89328A138941D4C7
:10196C0039E0938481D09C4499E3A944BDA803C574
:10197C00E40083D7C4009305E0043305F502420567
:10198C0041819720FF1FE780A0E92A8441C1DC58E0
:10199C00B5CF83C5E40003D7C4002A868844B38539
:1019AC00E5028981829791451307A0058981939758
:1019BC002500A29783C607006396E60483C617002A
:1019CC00639F560385058A054E86A29552859720FE
:1019DC00FF1FE78040F98327C90181446387870093
:1019EC0022859720FF1FE780A0ECF24062442685F9
:1019FC004249D244B249224A924A0561828083D537
:101A0C0027006DB78327C901E38187F622859720CC
:101A1C00FF1FE780E0E991BF938781D09447A9C26B
:101A2C00985F1DCF0546631DC502411122C4138466
:101A3C0041D4504C06C60DC283C5E70083D7C700FE
:101A4C003685B385F50289810297484C9720FF1F94
:101A5C00E78000E6232E0400B2402244410182803C
:101A6C00828001114EC6938741D4DC4F22CC4AC8E8
:101A7C0052C406CE26CA2A8A2E893284938941D42E
:101A8C00B1EB938481D003C5E40083D7C4009305E4
:101A9C00E0043305F502420541819720FF1FE780E2
:101AAC0020D823AEA9002A8611E92945F2406244C8
:101ABC00D2444249B249224A05618280884419C9FC
:101ACC00DC5889CB83C5E40003D7C400B385E50299
:101ADC008981829703A5C90191461308A005FD557C
:101AEC0093D72600C207C183139727002A97034672
:101AFC000700631B060383481700035627006393F4
:101B0C004803B306D64063CD260185078A073E9568
:101B1C004A86A2859720FF1FE780E0E4014579B74C
:101B2C00A300B700B2866DBF138681D08345E60053
:101B3C000356C600B385C502338626011106E3E6BB
:101B4C00C5F613063900719A1106B29623000701E7
:101B5C00A30047012311D7004DBF83A601D68DCE1C
:101B6C0091471306A0059305F00F89838A07B69752
:101B7C0003D7270003C5070009830A073697631D9F
:101B8C00C500034517006316B500035727002391C2
:101B9C00E70083D72700D1BF0145828083C70500AA
:101BAC002300F50083D72500A300F50083D725007B
:101BBC00A1832301F50083C74500A301F50011455E
:101BCC00828023A001B823AE01B6828029C14111C5
:101BDC0026C206C622C4AA8401458DC52E84B7E54B
:101BEC000200228541469385858F9720FF1FE78051
:101BFC0080D783C7040005452306F40083C714006F
:101C0C00A306F400B2402244924441018280014573
:101C1C008280011122CC26CA06CE0947AA843284BE
:101C2C006381E50441468147639BC500638FE600F1
:101C3C006397B6000DA841478147638EE600F240DA
:101C4C006244D2443E85056182808A852285BD3FEF
:101C5C0041468A8519A88A85953F41468A85228501
:101C6C0031A0E39AB6FC2E86A2852685EFF00FC82C
:101C7C00AA87F1B723AEA1B6828023A0A1B8828037
:101C8C00011122CC0354650006CE26CA4AC84EC6A2
:101C9C0041C083298500AE842A8803C90900814785
:101CAC0013178901618763550702B147054563FA2C
:101CBC00870451144204035528004180338789005E
:101CCC00A2864E868545EFB0901FB337A0008507DE
:101CDC007D1413556900420405891379F903418079
:101CEC002380F400A380A400238124012392840088
:101CFC00014719C01387190098C409476383E7008B
:101D0C000145F2406244D2444249B24905618280A5
:101D1C000545C5BFC167F917630AF502D94763F7D3
:101D2C00B702011122CC2EC606CE2A84EF70501CAD
:101D3C00B2456368B50022856244F24005616F903C
:101D4C00601FF24062440545056182800545828032
:101D5C00C167F9176314F5006F709019411106C62D
:101D6C00EF90400D11E15D45B240410182809147F9
:101D7C006394F502834705002300F6008347250092
:101D8C0003471500A207D98F2311F60083473500AE
:101D9C0001452302F6008280114582804111814564
:101DAC0022C426C206C6AA84312D2A8419E583A72B
:101DBC00C1B781C7F945268582972285B240224456
:101DCC0092444101828039714ED656D25AD006DEE9
:101DDC0022DC26DA4AD852D4AA8A2E8BB28941EF59
:101DEC0036C6BD379145EF701020AA844D492DC9D8
:101DFC00B246054A238034010544630A0B00B685BC
:101E0C0013851400029B0505131405014180E2099A
:101E1C0093D9894163D30902C1455685EF90800E51
:101E2C00654905E933868400A2852685EFB0A04D6F
:101E3C002A8905E131044204418091472C085685DA
:101E4C00231CF10026CE231D8100EF8010252A894A
:101E5C0001C963070A0026859720FF1FE78040A56C
:101E6C00F25062544A85D2544259B259225A925A6B
:101E7C00025B21618280BA84014AADBF011122CC80
:101E8C0026CA4AC84EC606CE2A893284B689253F50
:101E9C00AA8419ED83A701B881CF05476317E40025
:101EAC0003C4090005041374F40FA2854A858297B4
:101EBC00F240624426854249D244B249056182808F
:101ECC00AE86B725010001470546938585BA7DB7D7
:101EDC0083D705002300F50083D70500A183A30059
:101EEC00F5000945828083D705002300F50083D7D0
:101EFC000500A183A300F50083D725002301F5007D
:101F0C0083D72500A183A301F5001145828083D7D7
:101F1C0005002300F50083D70500A183A300F5007D
:101F2C0083D725002301F50083D72500A183A301C6
:101F3C00F50083C755002302F50083C76500A30293
:101F4C00F50003D58500190542054181828083D7B0
:101F5C0005002300F50083D70500A183A300F5003D
:101F6C000945828083D705002300F50083D705003F
:101F7C00A183A300F50083D725002301F50083D7A7
:101F8C002500A183A301F5001145828003D54500EE
:101F9C00060542054181828083D705002300F500A8
:101FAC0083D70500A183A300F50003D525000905FF
:101FBC0042054181828083D705002300F50083D739
:101FCC000500A183A300F50083D725002301F500AC
:101FDC0083D72500A183A301F50003D54500110586
:101FEC0042054181828083C705002300F500054529
:101FFC00828083D70500411122C406C62300F50058
:10200C0083D705002E841105A183A30EF5FE83D77B
:10201C0025009505230FF5FE83D7D5FFA183A30FCC
:10202C00F5FE03C6F5FF9720FF1FE780C09303451D
:10203C004400B24022441105410182808947639CCF
:10204C00F50083471500034705000145A207D98F0A
:10205C002310F60082801145828003D70500D947F2
:10206C0063FEE702011122CC06CE2EC62A84EF7045
:10207C002068B24683D70600636DF5002285624462
:10208C00F240B7250100014709469385C5ED05616E
:10209C001DBBF2406244094505618280094582807E
:1020AC0091479DC583460500FD15C2058547C18135
:1020BC006392F60213D725008D89914791E99147D8
:1020CC0001CB05052301D6002310E60048C2814749
:1020DC003E85828009479147E39CE6FEC94733D78A
:1020EC00F502B3F5F502D1BFAE86B7250100014765
:1020FC001146938525EFC1B993F7350091EB898192
:10210C00914789C52310B60048C281473E8582801D
:10211C009147EDBF03C745008947631AF7020111C8
:10212C0022CC2A84C84506CEAE86014719C52EC6D8
:10213C009D45EFE07FBAB2462A8722856244F24081
:10214C00B725010019469385A5F10561ADB909457F
:10215C00828099E111458280834705000547231150
:10216C00F600E379F7FEFD1593F5F50F33D7F5027D
:10217C00B387E702E390F5FE050548C22310E6009D
:10218C000145828083C745000947AE866385E70019
:10219C0041476399E700B725010001472146938524
:1021AC00E5FF15B1094582802310B60091E1014588
:1021BC0048C201458280AE86B725010001472946F9
:1021CC009385A5F509B12310B60091E1014548C2EC
:1021DC0001458280AE86B7250100014731469385C3
:1021EC0005F7D5B62310B60091E1014548C201456B
:1021FC00828003D74500854763FDE702011122CC9D
:10220C002A84884106CE0DC12EC68545EFE0DFAC91
:10221C002A8722856244B246F240B725010039462E
:10222C00938585F9056145B6F2406244094505611F
:10223C0082800945828091479DC5034705008D46E4
:10224C00914763F2E602FD15C205C181B3C6E502F2
:10225C003308D7026399050105052310D600231115
:10226C00E60048C281473E85828083C74500094706
:10227C00AE866385E70041476399E700B725010007
:10228C00014741469385E5FF3DBE09458280B33544
:10229C00B000139525008280011122CC26CA06CEEF
:1022AC0003C785008547AA842E8449466310F7022C
:1022BC0045348357240049151306200963C8A70029
:1022CC00F2406244D2440945056182800347940080
:1022DC0085476314F70013660604484011C58D4505
:1022EC0032C6EFE07F9F3246A2866244F2402A87D4
:1022FC002685D244B7250100938545FA0561E1B4E2
:10230C008D4763FFB7028347150003470500F1159E
:10231C00A207D98F2310F600834735000347250009
:10232C00C205A207C181D98F2311F6002312B60072
:10233C0089C5110508C60145828023240600E5BF26
:10234C0011458280011122CC2A84884506CEAE86A6
:10235C0011C52EC69545EFE03F98B2462A872285D7
:10236C006244F240B72501005946938525FC05616E
:10237C006FF07FA5B335B000139525008280AE8633
:10238C00B725010001476146938525FF6FF0BFA378
:10239C008547114563F4D702834716008345060031
:1023AC00A207CD8F2310F7009387E6FF2311F700C8
:1023BC0089476386F600090650C3014582802322B3
:1023CC000700E5BF01478146794681456FF0BF9F05
:1023DC0083D705002300F50083D70500A183A30054
:1023EC00F5000945828083C7250005472300F500C9
:1023FC0003D505006397E7000A05050542054181F1
:10240C008280C9473305F502CDBF03D505000A0507
:10241C0042054181828083D725002300F50003D536
:10242C00050083D725003305F502050542054181DA
:10243C00828003D50500828003D50500828003D5F8
:10244C000500828083D725002300F50003D5050005
:10245C0083D725003305F5020505420541818280AD
:10246C0083D705002300F50083D70500A183A300C3
:10247C00F50083D725002301F50083D72500A18320
:10248C00A301F50003D54500110542054181828069
:10249C0083D705002300F50083D70500A183A30093
:1024AC00F50003D525000905420541818280894745
:1024BC001145639BF60083471600834606000145D1
:1024CC00A207D58F2310F700828003D70500D947C8
:1024DC00AE8663FAE700B725010001470D469385E8
:1024EC00C53D6FF0BF990945828011456393A602E3
:1024FC0083471600834606000145A207D58F23109B
:10250C00F7008347360083462600A207D58F231198
:10251C00F700828083C725000547FD1793F7F70F57
:10252C006361F70483D705008DCF011122CC2A8477
:10253C00C84106CE15C12EC68945EFE0EFF92A87B2
:10254C0022856244B246F240B725010015469385B8
:10255C00253F05616FF09F92F24062440945056189
:10256C008280094582809547114563F9D706411150
:10257C0022C426C24AC006C683471600BA84034743
:10258C000600A2073284D98F2390F40083473600CB
:10259C000347260093054400A207D98F2391F4002A
:1025AC0089472382F4000946138554003689971015
:1025BC00FF1FE780403B9307A9FF2394F400994742
:1025CC00631BF90023A60400B24022449244024942
:1025DC000145410182801904C0C4FDB7828083D7B4
:1025EC0005008DCF011122CC2A84C84106CE15C11D
:1025FC002EC68545EFE04FEE2A8722856244B2460F
:10260C00F240B72501001D469385654105616FF0C9
:10261C00FF86F2406244094505618280094582804B
:10262C0099476395F6048947411106C62302F700C2
:10263C008347160083460600B285A207D58F231068
:10264C00F700834736008346260003464700A2075F
:10265C00D58F130557002311F70091059710FF1F15
:10266C00E7806030B240014541018280D14711457D
:10267C006394F600C1474DBF828083D705008DCF90
:10268C00011122CC2A84C84106CE15C12EC689451B
:10269C00EFE08FE42A8722856244B246F240B725E8
:1026AC00010025469385254205616FF02FFDF24010
:1026BC00624409450561828009458280894711453C
:1026CC00639BF60083471600834606000145A2076C
:1026DC00D58F2310F7008280011122CC2A84C841A7
:1026EC0006CEAE86014719C52EC68545EFE0CFDE76
:1026FC00B2462A8722856244F240B72501002D4656
:10270C009385E54305616FF06FF711456393A6025E
:10271C0083471600834606000145A207D58F231078
:10272C00F7008347360083462600A207D58F231176
:10273C00F7008280011122CC2A84C84106CEAE86D5
:10274C0011C52EC68545EFE02FD9B2462A872285C2
:10275C006244F240B7250100354693854544056136
:10276C006FF0CFF193F71600114589EB894763871A
:10277C00F60085822312D70010C301458280011117
:10278C0022CC2A84C84106CE15C12EC68545EFE061
:10279C00AFD42A8722856244B246F240B7250100A5
:1027AC003D469385A54405616FF04FEDF2406244C0
:1027BC0009450561828083D705008DCF011122CC9C
:1027CC002A84C84106CE15C12EC68945EFE0CFD06C
:1027DC002A8722856244B246F240B725010045465D
:1027EC009385054505616FF06FE9F2406244094538
:1027FC000561828009458280854763FCD7022304EA
:10280C00A700A304B7008347160083450600A20760
:10281C00CD8F2310F7009387E6FF2311F70089472C
:10282C006386F600090650C3014582802322070007
:10283C00E5BF11458280014781464D4681456FF0C9
:10284C00EFE38D47114563FBD702834716008345A1
:10285C000600A207CD8F2310F7008347360083456F
:10286C002600A207CD8F2311F7009387C6FF2312F2
:10287C00F7006386A600110610C701458280232449
:10288C000700E5BF011122CC2A84884506CEAE860E
:10289C0011C52EC69545EFE02FC4B2462A87228576
:1028AC006244F240B72501005D469385C54605613B
:1028BC006FF0CFDC854711456397F6008347060020
:1028CC0001452300F700828001478146654681451A
:1028DC006FF0CFDA011122CC2A84C84106CEAE8625
:1028EC00014719C52EC68D45EFE00FBFB2462A87AA
:1028FC0022856244F240B72501006D469385C54997
:10290C0005616FF04FCC011122CC2A84C84106CE50
:10291C00AE86014719C52EC68D45EFE0EFBBB2461A
:10292C002A8722856244F240B725010075469385BB
:10293C00C54905616FF02FC9011106CE2EC6EF8077
:10294C00004C01C9B245F2400355250005616FB03A
:10295C00007EF240494505618280A38601BA238638
:10296C0001BA23AA01B823AC01B823AE01B823A045
:10297C0001BA23A801B823A601B8938701D8370759
:10298C00B40098C33747A000D8C33707100093068C
:10299C00070A94C7B7065000C106D4C793060705AB
:1029AC004107D8CB3707D007410798CF37070F001F
:1029BC0098D337C70700130707B8D8D3416794CB10
:1029CC0093060701130717F8D8D7417723AE0700F2
:1029DC0094D798DB8280011126CAAA84214522CC87
:1029EC0006CE2E8432C636C43AC2EFE08FB61DC96D
:1029FC00A24612473246930700FD2300F500994783
:102A0C00A30095002301F5002303D500A303E500E3
:102A1C002312C500AA8522856244F240D244056186
:102A2C006FE06FBDF2406244D2440561828023AAFC
:102A3C00A1B8828023ACA1B8828023AEA1B88280D9
:102A4C0023A0A1BA8280011122CC4AC806CE26CA84
:102A5C002A890144B30489006368B400F2406244DB
:102A6C00D2444249056182802EC6EFE0CFC793174E
:102A7C000501C183A183B2452380F40093071400A0
:102A8C0093F7F70F850463F9B700CA9709042380FD
:102A9C00A7001374F40F7DBF3E847DBF411122C487
:102AAC00138441DB03556400C16706C6FD17630B35
:102ABC00F50003C601C4938541BAEF80001FFD5792
:102ACC002313F400B24022444101828009C9251528
:102ADC001375F50F1335850E1345150082800145CE
:102AEC00828023800500F94763E2C708797122D4FC
:102AFC0026D24ECE56CA5AC806D64AD052CC5EC63C
:102B0C003684B289AE8A2A8B814463FF3405B307BD
:102B1C00940003CA0700138914001379F90F630595
:102B2C000A04B3072A0163C1F904B307240183CB58
:102B3C0007005E85613F0DC99307FAFF2380FA00F9
:102B4C0063906B03130519002295B25022549254D2
:102B5C000259F249624AD24A424BB24B45618280D9
:102B6C00D29493F4F40F55B70145C5B70145828053
:102B7C00011122CC26CA4AC84EC6938741DB06CE29
:102B8C002E89D0CB8CCBC8C7AA8441469305F00FB5
:102B9C004A85EFE0AFD98549138441DB63173503D0
:102BAC000848C1454D3541469305F00F2685EFE0A9
:102BBC00EFD705496313250348446244F240D244DD
:102BCC004249B249C1450561BDBD414681454A8571
:102BDC00EFE0CFD5E31935FDE1B7414681452685B8
:102BEC00EFE0CFD4E30A25FDF2406244D2444249DF
:102BFC00B24905618280011122CC26CA4EC6AE8430
:102C0C00AA8913060002138541DB814506CE4AC80A
:102C1C00EFE0AFC7138941DBA38191C4A301390154
:102C2C00EFB06052138441DB854719C18147494598
:102C3C002300F400F2406244D2444249B249056197
:102C4C008280814781CD19C98547631BF50083C7F5
:102C5C00550093E707FCA382F50085473E858280EB
:102C6C0089476317F50083C7550093F7F703E5B75A
:102C7C000D478547E314E5FE03C755001377F703AB
:102C8C0013670704A382E500D1BF81478DC105C13D
:102C9C0003C755009306000C85471377070C630890
:102CAC00D700930600048D476303D70089473E8500
:102CBC008280411122C4005D06C626C21DC8AA84AA
:102CCC00085009C59710FF1FE78080BE485009C502
:102CDC009710FF1FE780C0BD085409C59710FF1F50
:102CEC00E78000BD22859710FF1FE78060BC23ACF6
:102CFC000402B2402244924441018280938741DB1A
:102D0C0009E903C727001385870111C7138541B84B
:102D1C00828013858701828003C561DB828003A5D5
:102D2C0001DC828003A541DC828083A781DC88439F
:102D3C008280938741DBD44B9842050798C203C528
:102D4C0037009307F00F6305F50091656FE04FC0F6
:102D5C008280011122CC06CE2E8432C6EF8000195F
:102D6C009147B245631EF50083A701BA85C303A33F
:102D7C000700630D030022856244F2400561028363
:102D8C0083A781B981C703A34700E5B7F24062442A
:102D9C00054505618280011122CC2A84035545002A
:102DAC0006CE26CA4AC84EC6EF70107D35C52A8994
:102DBC00834405008349C500ED3D4A85EF80506B87
:102DCC0003554400EF80000E1389C1BA83470900F4
:102DDC00A1CB6397970483C5D1BA2685EFF0DFB5F5
:102DEC0019E12300090003554400EF80201091479E
:102DFC00631DF500938741DB8356440003D76700BE
:102E0C006395E6007D572393E700F2406244D24479
:102E1C004249B2490561828081499304F00F6DB734
:102E2C009307F00FE381F4FC8346640003564400DF
:102E3C00034524004E87A685EFF0FFB96DB7797175
:102E4C005EC6AA8B2E8552CC56CA5AC806D622D438
:102E5C0026D24AD04ECEAE8A328B368AEF70D071E3
:102E6C0079CD045D2A89E1CC9C50614599C3130549
:102E7C0040039C5481C751054205418163050A00FA
:102E8C00710542054181DC5081C7590542054181DC
:102E9C00EFD03FEC2A8445C561468145EFE0EF9EBB
:102EAC0083C901DB6394090083490900930700FD82
:102EBC002300F400A947A30074012301F4002303A9
:102ECC0064018C50231254011305840191C908C468
:102EDC007146930A44039710FF1FE780C0A85685DC
:102EEC008C5491C948C45146930A45019710FF1F51
:102EFC00E78060A75685630C0A0008C87146D28526
:102F0C00930AC5019710FF1FE780E0A55685CC50AA
:102F1C0099C548C859469710FF1FE780C0A4A285E1
:102F2C004E85EFD05FED2254B2509254F249624A72
:102F3C00D24A424BB24B4A85025945619DBBB250B5
:102F4C00225492540259F249624AD24A424BB24B31
:102F5C004561828001114EC6AA892E854AC806CECB
:102F6C0022CC26CA2E89EF70306121C583C401DBC7
:102F7C0099E0834405001945EFD0BFDD2A8415C9BB
:102F8C0081451946EFE06F90930700FD2300F40094
:102F9C00B947A30034012301F40023122401A285B4
:102FAC006244F2404249B2492685D24405616FD051
:102FBC009FE4F2406244D2444249B24905618280A6
:102FCC0039715ECEAA8B2E8526DA4ED652D456D2C5
:102FDC005AD006DE22DC4AD8AE84328BB68A3A8AC4
:102FEC00BE8942C6EF70505921C92A894145EFD09C
:102FFC005FD62A8431C141468145EFE00F8903C574
:10300C0001DB19E103450900930700FD2300F400DF
:10301C00BD472301F400B247A300740123129400AE
:10302C0023046401A304540123054401A3053401C2
:10303C005CC4A285EFD03FDCF2506254D2544259AA
:10304C00B259225A925A025BF24B216182807971F9
:10305C0026D2AA8439454AD04ECE06D622D42EC6C4
:10306C00B2893689EFD0FFCE21C1B2459307000D4E
:10307C002310F500B1472A842312B5002301F50073
:10308C00CE85190519469710FF1FE780C08D2306C2
:10309C002401A2852254B2500259F24913F5F40FBF
:1030AC00925445616FD03FD5B2502254925402597C
:1030BC00F24945618280411126C2938441DB03C7EA
:1030CC00340006C622C44AC09307F00F630AF70403
:1030DC002A893945EFD0FFC72A8439C1930700FDEF
:1030EC002300F500A300250123010500938584012D
:1030FC000D0519469710FF1FE780E08683D78400E3
:10310C00A28503C534002315F40083C714002306DD
:10311C00F4002244B2409244024941016FD0BFCD29
:10312C00B24022449244024941018280011156C2AC
:10313C00AA8A314526CA4AC84EC652C406CE22CCEB
:10314C00AE84328AB6893A89EFD0BFC039C52A8499
:10315C002685EF7070421DCD03450500930700FDD9
:10316C002300F4009D47A30054012301F400231213
:10317C009400231344012314340123152401A28544
:10318C006244F240D2444249B249224A924A056111
:10319C006FD07FC603C571DBD1B7F2406244D24415
:1031AC004249B249224A924A05618280397162CC05
:1031BC002A8C594526DA4AD84ED652D456D25AD0F1
:1031CC005ECE06DE22DCAE8432C636C4BA8B3E8BB3
:1031DC00C28A468A8359010403494104EFD07FB760
:1031EC0035C53246930700FDA2462300F5009547EE
:1031FC00A301C500A30085012301F5002A8419460B
:10320C001105A9C2B6859700FF1FE780C07523067C
:10321C006401230A24012315740123175401231874
:10322C00440123193401A2856254F2504259B25917
:10323C00225A925A025BF24B624C2685D25421617F
:10324C006FD07FBB8145EFD05FE4D1B7F2506254B1
:10325C00D2544259B259225A925A025BF24B624CE6
:10326C0021618280411122C4138441DB83472400F5
:10327C0006C626C29DC7AA851946138541B8970074
:10328C00FF1FE780406E03452400938541B8EFF0A3
:10329C005F9B2244B240138541B8924441016FA018
:1032AC00506BB2402244924401454101828041114D
:1032BC0026C2938741DB06C622C44AC003C7370027
:1032CC009307F00F938441DB6302F7042A892945A5
:1032DC00EFD03FA82A841DC9930700FD2300F500F9
:1032EC00A147A30025012301F50083C72400938582
:1032FC0041B8A301F500194611059700FF1FE7809F
:10330C00806603C53400A285EFD0FFAE03C744002E
:10331C0085476315F70283A7C1B981C79C4791C341
:10332C0082972244B2409244024903C501C45D66AF
:10333C0013060670914541016FE06F83B240224441
:10334C009244024941018280797122D406D626D258
:10335C004AD04ECE52CC56CA09445DC92A8903556F
:10336C000500AE895144EF703021AA8455C1938772
:10337C0001C483C737008546BA8AFD1793F7F70F48
:10338C00494463F7F6080347C500A1476314F700E7
:10339C00639009089C5C4544A5EF91659385457144
:1033AC001305C0029700FF1FE780804788DC2A8A3C
:1033BC004D4439CD1306C0028145EFD01FCD835744
:1033CC00090093064A0036852311FA0071469305CD
:1033DC00490036C69700FF1FE780E0588947230055
:1033EC00FA0003C5C400B2460356090083C501C4E4
:1033FC00611513351500EFA0C01F2A8463860900E0
:10340C00CE852685EF80B03101C42685EFF07F8A0A
:10341C002285B250225492540259F249624AD24A3D
:10342C004561828083C731C40547FD1793F7F70FB9
:10343C006378F708894751C6011122CC26CA4AC8BD
:10344C004EC652C406CEAA89368AB2842E89EF7033
:10345C00B0122A84D14729C9485509C59700FF1FC6
:10346C00E7800045F1452685EFD09FC448D4CD4771
:10347C0005CD8346C40021478147639FE600630D59
:10348C000A000347A5010356050193062501AA85E9
:10349C004E85EF802021AA8703474400630F090063
:1034AC00136767002302E400F2406244D2444249AD
:1034BC00B249224A3E850561828013674700DDB719
:1034CC00C9473E858280E14763EAA7009317150040
:1034DC00138501D83E9503550500828041657D1505
:1034EC008280011122CC2A842E8526CA06CEAE8477
:1034FC00EF7090080DCDB7470F009387F723094560
:10350C0063E2870281450A854146EFD01FB8A68544
:10351C00231081000A85418023018100A301010051
:10352C00EF90B06FF2406244D2440561828049450D
:10353C00D5BFA380A1C482806FA0C004797152CC86
:10354C002A8A328522D426D24AD04ECE56CA5AC89E
:10355C005EC606D662C4AE8BB28A368BBA843E89FE
:10356C00C2894684EF70500115C92A8C63140A0273
:10357C0013774B008347450015CF93E727012302B0
:10358C00FC008DEC631C0902639A090205E8ED9BB3
:10359C002302FC00832B8C03639F0B06B250225436
:1035AC0092540259F249624AD24A424BB24B224CD3
:1035BC0045618280F59B93E70701D1B793E74700FC
:1035CC002302FC0001CC1C484146A2852324FC02AA
:1035DC0013058C019700FF1FE780E03863910B0205
:1035EC00D5D80325CC0209C59700FF1FE780402CD6
:1035FC00F1452685EFD0DFAB2326AC0261BFE30B90
:10360C0009F80325CC0209C59700FF1FE780402A63
:10361C00F1454A85C5B79DC483A70B0299EB91650B
:10362C009385357171459700FF1FE780601F23A0BC
:10363C00AB0203A50B0219C57146A6859700FF1FA7
:10364C00E78060326388090283A74B0299EB91658E
:10365C009385257159459700FF1FE780601C23A2B5
:10366C00AB0203A54B0219C55946CE859700FF1F27
:10367C00E780602F1DC483A78B0299EB916593851E
:10368C00157151459700FF1FE780801923A4AB02E9
:10369C0003A58B0219C55146A2859700FF1FE78031
:1036AC00802C2254B2509254F249B24B224CCA860E
:1036BC005A860259424BD6855285D24A624A456196
:1036CC006FF0EFF7011126CA52C406CE22CC4AC8BD
:1036DC004EC62A8AAE84EF70206A35C1AA89394554
:1036EC00EFD02FE72A8421CD03C901DB6314090035
:1036FC0003C909009307000D2310F400AD47230103
:10370C00F400938569001305340019469700FF1FD8
:10371C00E780602593F71400858085882306F400E4
:10372C00A306940023154401A2856244F240D244BE
:10373C00B249224A4A85424905616FD0CFEBF2402B
:10374C006244D2444249B249224A05618280411105
:10375C0022C41384C1B8084006C619C59700FF1FC0
:10376C00E780001523200400B240224441018280EE
:10377C00011106CE22CC26CA4AC82EC6EF70C05FF5
:10378C0029CDB24503C901DB0CD5AA846314090009
:10379C00034905004145EFD0CFDB2A841DCD9307AB
:1037AC00000D2310F500A5472301F50083C7540035
:1037BC00938564001105A30FF5FE19469700FF1FB2
:1037CC00E780601A9C54A285F2405CC46244D244E7
:1037DC004A85424905616FD00FE2F2406244D244FF
:1037EC00424905618280797122D406D62A842EC67C
:1037FC00EF7080580DCD8346C5001147AA87494507
:10380C006393E6029C5FB24599C383C567010808C0
:10381C00EF80C079B7D60100938666801008894581
:10382C002285EF70D06CB250225445618280514594
:10383C00DDBF83C731C40547FD1793F7F70F637AD4
:10384C00F704894721CA411122C426C24AC006C6C0
:10385C00B2842E89EF7040522A84D14705C5630883
:10386C0009008347450093E727002302F5004146F2
:10387C00A685130584019700FF1FE780C00E9C48A6
:10388C001CD48147B2402244924402493E854101F6
:10389C008280C9473E858280797122D406D62A84DB
:1038AC002EC6EF70604D01CDB2452285230EB100BE
:1038BC006C08EF804063B2502254456182805145C0
:1038CC00DDBF6F70A058C1671387E7FF6393E502F4
:1038DC0083A781B991EB494582804945B240224486
:1038EC00924402494101828003A30700E30503FED1
:1038FC000283411122C426C24AC006C6FD172A897A
:10390C002E84B2846394F50283A781B991CB9C4336
:10391C0081CB829711E5238621BBA38691BA7DBF0B
:10392C00A6854A85EFF04F8155F9F5B72E85EF70D6
:10393C00A04445D5834705000D45E39127FB22851F
:10394C002244B2400249A685924441016FA0207ED8
:10395C00E14763E6A70441677D1789476382E50465
:10396C00411122C426C206C6C547AE842A84631AF6
:10397C00F5001305C0033385A50242054181EFA074
:10398C00D00413151400138401D82295B24022449C
:10399C0023109500814792443E85410182808947DE
:1039AC003E858280011106CE2AC6EFE01FFBEF1088
:1039BC0080154D2DEF904145938741DB130700F0A7
:1039CC002391E700238207003245138701C4FD567B
:1039DC00A300D700F2402380A1C4954505616F5028
:1039EC00D05C1D7193970501CAC886CEA2CCA6CA1D
:1039FC00CEC6D2C4D6C2DAC05EDE62DC66DA6AD863
:103A0C006ED6C1872E8963D9074603C501C4EFD092
:103A1C002FB82A84138A81E5938441DB1DE021654C
:103A2C003345A900F6406644D6444649B649264A71
:103A3C00964A064BF25B625CD25C425DB25D2561DC
:103A4C008280834704001307200A639CE70083CB22
:103A5C00340003552400C1652286FD15EFF06FAFCD
:103A6C0031AA138701C4834B170013071009639302
:103A7C00E714834714001547639EE7002285EFF097
:103A8C008FB12285EFD02FAA03C501C4EFD04FB060
:103A9C002A8469B739476393E71403554400856753
:103AAC00A5076313F5040C4403CD0500631B0D003F
:103ABC00850581C919461385C1DC9700FF1FE78076
:103ACC0080EA03C7040085476316F70E63080D00F0
:103ADC00238004006A85EFF00FDE65B789472380E9
:103AEC00F400EFA0C06671BF096793072700631C41
:103AFC00F504032D8400630F0D0A83470D0089EF35
:103B0C0083472D0003471D00A207D98F2394F4008F
:103B1C0083473D00A380F40003C704008947631B5F
:103B2C00F70883470D0091C72380040003450D005F
:103B3C005DB783C5140003D584008D472380F40042
:103B4C00EF507049E5B7930757006318F5001C4414
:103B5C0003C50700EFF0AFF52DB7F977E917AA9772
:103B6C00C207C183914663EEF60083A7C1B9E38A0D
:103B7C0007F09C43E38707F022858297E31305F057
:103B8C0015A82D07631EE50083A741B9E38B07EE4B
:103B9C009C43E38807EE0965A2852D058297F9BF42
:103BAC0089671387C7006310E5021C4483C70700AD
:103BBC00E38907EC9307F00FE385FBECA2855E85A8
:103BCC00EFD06FA3D1B5B907E316F5FE83A781B982
:103BDC00E38907EADC43A285F1F365B53D476397BA
:103BEC00E7040355440089671387D700E300E5FE1B
:103BFC0013879701E30CE5FCCD07E31DF5FA03D71A
:103C0C006400C167FD17631DF70083A781B9E38AC0
:103C1C0007E6DC43E38707E60965A2854D05BDBFD2
:103C2C0083A701BAE38F07E49C43EDB71307E003C6
:103C3C00E392E7F88347240005476393E70E834735
:103C4C006400938DC1B8F1E383A70D00C5CF03CDFC
:103C5C000700A14B03457400930C8400E685EFF03C
:103C6C00CF8283474401A303A40083580401035863
:103C7C00E400035744002A86034534003EC28357B0
:103C8C002401E686EA853EC0DE87EFF02FD283471B
:103C9C00340095E7DD47835804010358E40083465C
:103CAC007400835544003EC2835724013EC066878E
:103CBC00DE8705466A85EF70A038A301A40083A7B0
:103CCC000D0081C71145EFF09FA8138DC1BA0345B4
:103CDC000D00E30805DA83C5D1BAEFE0FFC5E302B6
:103CEC0005DA8346340093071003638AF600035603
:103CFC00440083450D005E873685EFE0DFCD2386DB
:103D0C0001BA41B303CD3400A9B783A7C1B903CD20
:103D1C003400914BA1D3DC4395DF014582971DBF45
:103D2C0029476398E70883476400938DC1B8BDE7C2
:103D3C0083A70D00ADC303CD0700A14B0345740051
:103D4C00930C4401E685EFE05FF483470402A30380
:103D5C00A4008358C4010358A401035744002A86C5
:103D6C00034534003EC28357E401E686EA853EC033
:103D7C00DE87EFF0AFC383473400B1F3DD478358E0
:103D8C00C4010358A40183467400835544003EC209
:103D9C008357E40121BF03CD340045B783A7C1B9D4
:103DAC0003CD3400914BD9DBDC43C9DB0145829751
:103DBC0071B70947639CE70083A741B9E38307CC3C
:103DCC00DC43E38007CC2285829765B92D47639845
:103DDC00E70083A741B9E38607CA9C47DDB70D47C7
:103DEC006397E70022868D450355440085B9194732
:103DFC006395E7069305610113051031EF90810B74
:103E0C002C0813052031EF90E10A03566400835708
:103E1C0081010355440063E8C700835684000357AF
:103E2C00610163F7E60093050002EFA0003991B938
:103E3C006374E6002313E40063F4D7002314F40046
:103E4C000357C4008356A4000356840083556400B2
:103E5C0001488147EFA020362DB11D47E39CE7D4E4
:103E6C0003574400E3E8E7D48357640006075297EE
:103E7C00F1172310F7003DBB93F7150099CB83A7DF
:103E8C0041B989C7DC4399C3014582971345190091
:103E9C0051BE93F7250099CB83A7C1B989C7DC43E1
:103EAC0099C30545829713452900ADBE93F745008C
:103EBC000145E38907B6938741DB83C75700138419
:103ECC0041DBA1C7FD1793F7F70FA302F40095EFA1
:103EDC0083A701B999CB85472302F40083A7C1B905
:103EEC0089C7DC4399C30545829748442C08EF9059
:103EFC00403C2808EFF00FB783D721DA9145A30295
:103F0C00F40003C501C4EFD06FC91345490019BEB5
:103F1C00411122C42A84554506C6EFF0CFDAB335D9
:103F2C00A00022852244B24041016FA00024797187
:103F3C0022D406D68D472E84631FF50003D7A50027
:103F4C0083D6850003D665000345340083D5450030
:103F5C00EFF0CF9D09A889671387D700631FE5028F
:103F6C0003C5250019E58547B25022543E854561AD
:103F7C00828083A6C1B8E5DA03C6360083C5060085
:103F8C00814802C202C00148814701479106EFF007
:103F9C00EFA10545EFF0AFFBF9B71387E700E3049A
:103FAC00E5FC13873701631AE50003C5250045DDE1
:103FBC00014781460146814561BFE507E305F5FAF6
:103FCC0041677D178147E311E5FA03C75500C947DF
:103FDC00E31BF7F883D6E50003D6C5000355840030
:103FEC0083D5A500EFA0E01E21C15D45EFF0AFCD5C
:103FFC003335A000231EA100834544000355240043
:10400C007008EF60F04B8357C101B1FF0357E40018
:10401C008356C4000356A400835584000355240022
:10402C000148EFA0401781B78547231EF100E9B77F
:10403C00C1671387E7FF639CE50083A7C1B88DC3F5
:10404C0083C707000D47639BA7006FA00014FD17E3
:10405C0049476395F50083A7C1B8E5FB3A85828093
:10406C004947EDBF238C01BA23A001BC23AE01BA92
:10407C0037470100938741DD1307272C98C3374737
:10408C0001001307A72FD8C3374701001307476355
:10409C0098C737470100938701BB1307C70398C321
:1040AC00374701001307A7F3D8C38280011122CC34
:1040BC0083A701BC06CE26CA4AC84EC652C48DC3BD
:1040CC00138401BC2E8AAA84014908406312990208
:1040DC00630C0A0497F0FE1FE780807D2320040008
:1040EC00F2406244D2444249B249224A056182807C
:1040FC0093194900B3073501884709C997F0FE1F8A
:10410C00E780007B1C40CE9723A407001C40CE9771
:10411C00C84709C997F0FE1FE78080791C40BE99FB
:10412C0023A60900050955B745DD139644008145C2
:10413C00EFC0BFF5144081477D5613F7F70FE371BD
:10414C0097FA1397470036972300C7008507F5B7F2
:10415C0079714AD083A7C1BB06D622D426D24ECEC3
:10416C0052CC56CA5AC85EC6D1CFAA891389C1BBD4
:10417C00938A81BB014411ED83A601BC99CA03C685
:10418C000A002A8481479305F00F13F7F70F636633
:10419C00C708131534002105EFC0BFBBAA8401E981
:1041AC002145EFC01FBBAA8431C10144CD499307FF
:1041BC0000FD2380F4008547A38034012381F400A3
:1041CC00A381840055C49389840023A23401014A3D
:1041DC00930BF00F83C70A006373FA0039E8832747
:1041EC000900A68503C50700EFC0FFC003C50A0080
:1041FC0081456D3D0325090097F0FE1FE780406B5C
:10420C0023200900B250225492540259F249624AB6
:10421C00D24A424BB24B4561828013974700369786
:10422C00034707006305B70005041374F40F8507F3
:10423C00A9BF83A701BC93154A00BE9583C705008F
:10424C00638477032380F90083C715001385290045
:10425C007D14A380F900194689051374F40F97F0A7
:10426C00FE1FE7804070A109050A137AFA0F9DB76B
:10427C0023A20400ADB7411122C406C62A8405E16D
:10428C000945EFF04FA42A8611C503C501C4854525
:10429C00EFC03FFB0545EFF0BFC72A8401C903C53A
:1042AC0001C48545EFD08F8F22855D35B240224405
:1042BC0005454101828089671387B7006319E500C2
:1042CC0083A7C1BB95C39C4503C507006DB7138776
:1042DC00C7008147631BE5009C4503C50700854764
:1042EC0009C583A7C1BBFDF381473E8582801D7143
:1042FC0086CEA2CCA6CACAC8CEC6D2C4D6C2DAC092
:10430C005EDE62DC66DA6AD86ED6630E05268347FB
:10431C003500AA8985C7404115C05945EFF0AF9AC1
:10432C0093178501E187116C3EC20149930BF00F85
:10433C00930DEC7183C739006361F902F640664452
:10434C00D6444649B649264A964A064BF25B625C0D
:10435C00D25C425DB25D2561828083078402124784
:10436C0063CEE72A83A7C1BB138AC1BB938401BC6C
:10437C00ADCB0347040085476309F7060346840069
:10438C00930694009305F1010545EFE08FF5814705
:10439C0019C1834705008346040011476381E60277
:1043AC0003270A008D4603471700630AD70081CB09
:1043BC0019C705C98546631DD7028D8B9DC303455F
:1043CC001400930C2400E685EFE03F8CA300A400BE
:1043DC009C40AA86014D95E7034604009147631F54
:1043EC00F60C9C40639C072215A48147014565B7D8
:1043FC008946E318D7FE858BD1B713071D00137DB3
:10440C00F70F83C781BB8840E378FDFC93174D0001
:10441C003E9503460500E30276FF03461500E31EB6
:10442C00D6FC1946E68509053EC636C4EFC01FCC3E
:10443C00A246B24779D1984083460400330DF70069
:10444C00E30C0DF81147639EE6080325CD000DC55E
:10445C0003478400034605006308E608834604000E
:10446C0011476391E60A0325CD0019C597F0FE1F8D
:10447C00E780004423260D0003458400EE850505E6
:10448C0097F0FE1FE780C0390DC583460400114725
:10449C006394E6082326AD008347840093059400BB
:1044AC000505A30FF5FE0346840097F0FE1FE78079
:1044BC00804B834784006397071425B79C4095D3A2
:1044CC0083C581BB8146E38EB6F03E87C10703C529
:1044DC0007FF6304750D850693F6F60FEDB708C755
:1044EC00EDA803258D00A5B7930594000505EFC035
:1044FC00FFBF0547E314E5F65545EFE0DFFC63032A
:10450C000510C5B503258D0025D997F0FE1FE78052
:10451C00203A23240D008DB72324AD00B5BF93079B
:10452C00000D2310F500B5472301F5008347040067
:10453C00194693052400A301F50083078402150591
:10454C002303F50083471400A30FF5FE97F0FE1F1D
:10455C00E7806041034684002386C40015C213859E
:10456C00440188C89305940097F0FE1FE780A03F94
:10457C0083270A00A68503C50700EFC0DF8779A84B
:10458C0023A80400F5B783A7C1BBE38907DAEFF0D2
:10459C003FBC0145EFF0DF9755B32300C7008347BD
:1045AC001400130527001946A300F700E6853AC44A
:1045BC0097F0FE1FE780203B034584009305FC71B8
:1045CC00050597F0FE1FE780A025224705C5834609
:1045DC0004009147E395F6F048C7834784009305A0
:1045EC0094000505A30FF5FE0346840097F0FE1F0B
:1045FC00E78060378347840091E7034704008547D1
:10460C00E311F7DE83270A00E38D07DC0345840002
:10461C005105EFC00FF4AA84E31305F00509130448
:10462C0094021379F90F39B3797106D622D426D2B4
:10463C004AD04ECE52CC56CA5AC85EC662C479C154
:10464C0083473500AA8995C3444185C05945EFE09D
:10465C009FE7931A850193DA8A410149930B00FD78
:10466C00414C83C73900636EF900B2502254925406
:10467C000259F249624AD24A424BB24B224C456132
:10468C0082808387F40063CA5707138AC1BB8327D0
:10469C000A00A5C75145EFC0CFEB2A8439CD2300C2
:1046AC007501A30005002301850183C70400194689
:1046BC0093852400A301F5008387F4001505A30658
:1046CC00F50083C71400A30FF5FE97F0FE1FE780DB
:1046DC00802983C78400938594001305C400A30527
:1046EC00F400194697F0FE1FE780E02783270A00A5
:1046FC00A28503C50700EFC00FF00509C1041379AB
:10470C00F90F85B783A7C1BBADD3EFF07FA42254BB
:10471C00B25092540259F249624AD24A424BB24BBD
:10472C00224C014545616FF0AFFE83A7C1BB95C715
:10473C0003C707008D476313A70203C501C44111CA
:10474C00854506C6EFC09FC513050003EFF05FA0BB
:10475C00B240014541016FF0AFFBC9473E858280F5
:10476C00011126CA9384C1BB9C4006CE22CCB9EF62
:10477C0083C731C4A98BADC391652A849385D57148
:10478C00114597F0FE1FE780A00988C021C9A285BA
:10479C00114697F0FE1FE780001D1545EFE0BFD2D4
:1047AC002AC61945EFE03FD20347340083C661DBCC
:1047BC002A86034524006244B245F240D244333782
:1047CC00E000B336D00005616F90F0194545F2401A
:1047DC006244D244056182804945D5BF4D45C5BF71
:1047EC0083C731C4397122DC06DE26DA4AD84ED6AC
:1047FC0052D456D25AD0A18B4944638D070C83A74F
:10480C00C1BB41446398070C2A89EFF08F8B83C797
:10481C00C1C255446370F50C83A7C1B84544DDEBA8
:10482C0091659385C571294597F0FE1FE78040FF80
:10483C0023A6A1B84D4459CD2946CA8597F0FE1F31
:10484C00E780601283A7C1B883C71700D9CF2D4565
:10485C00EFE07FC72A843145EFE0FFC683C761DBF9
:10486C002A894145B337F0003ECEEFE0DFC52A8BF5
:10487C003D45EFE05FC5AA8A3545EFE0DFC42A8AE3
:10488C003945EFE05FC4AA892145EFE0DFC32ACCAC
:10489C001D45EFE05FC303A7C1B82ACA0345370023
:1048AC0093054700EFE0EFB903A7C1B8E2485248BF
:1048BC0003462700F247AA865AC6228556C452C21E
:1048CC004EC01107CA85EF90900A2A8401C50D4588
:1048DC00EFE0FFE72285F2506254D2544259B259AC
:1048EC00225A925A025B216182802545EFE0BFBDBE
:1048FC002A84294595B783C731C40145A18B99C337
:10490C00138501BB6FE00F93411122C4138481BB4B
:10491C0026C2AA8403450400854506C6EFF00FF9AC
:10492C0083C731C4A98BB5C723009400138541DD1F
:10493C00EFE0EF8F938401BC9C4099C74D45B2408A
:10494C0022449244410182800345040019E101454F
:10495C00FDB791659385B571120597F0FE1FE78041
:10496C0020EC88C061DD0346040081451206EFC0CF
:10497C00CFF18346040090408147FD5513F7F70FA4
:10498C00E377D7FC1397470032972300B7008507CE
:10499C00F5B7014523000400EFE06F894DBF4111CD
:1049AC0022C403A501B906C619C597F0FE1FE780FE
:1049BC0020F023A801B8B2402244410182800111A9
:1049CC0022CC06CE26CA8D472E846313F50603C768
:1049DC003500E94703D54500938441DB6316F700A6
:1049EC0083D764006382A706EF60003909C583573B
:1049FC0064002317F5000357A40083568400035664
:104A0C0064008355440003453400EFE02FF2035754
:104A1C00440083D764006309F7008547F240624481
:104A2C00D2443E8505618280FD572393F400F5B78F
:104A3C008967CD07631DF50083C725003147638562
:104A4C00E7004547E39BE7FCEFE04F85F9B741678B
:104A5C007D178147E314E5FC83C655004947E39F66
:104A6C00E6FA83C5450003552400300023140100E9
:104A7C00EF60E01F5DB7797122D483A701B906D628
:104A8C0026D24AD00545ADC70D45EFE0DFA3AA8479
:104A9C001145EFE05FA32A899305F1011305F0415D
:104AAC00EF60516A0347F101938741DB21CB83C748
:104ABC0027000D4789466384E700B336F00083A7CF
:104ACC0001B936C603C5370093854700EFE06F97F1
:104ADC0003A601B9B2462A878348B6000348A6004C
:104AEC009307460003462600CA852685EF90A066EC
:104AFC00B2502254925402594561828083C62700D9
:104B0C00B336D0006DBF7D57238AE1B0239201BC30
:104B1C0023A601BC23A801BC23AA01BC3757010062
:104B2C00938701DE130787BA98C337570100130721
:104B3C0067E8D8C337570100130727A898C7B7579A
:104B4C0001009387A79C23A4F1BC8280411126C24B
:104B5C0083A701B906C622C48DCF2A840D45EFC0A8
:104B6C004F9FAA8505C1930700FD2300F5008D47D3
:104B7C00A30085002301F50083A701B903C5070035
:104B8C00EFC06FA719C42244B240924441016FF0A8
:104B9C001FE1B2402244924441018280797122D4B7
:104BAC0003544500896706D626D24AD04ECE52CC45
:104BBC0056CA13876700631FE40283A701B98144B7
:104BCC0089CF1845034507001DE10547A380E70081
:104BDC000545EF90005901ED8544B25022542685CD
:104BEC0002599254F249624AD24A45618280EFF0EE
:104BFC00FFF5DDB71387970063678704938441B192
:104C0C0003C704009307F00FE308F7FC1C4511459C
:104C1C0003C90700EFC0EF93AA855DDD930700FD84
:104C2C002300F50089472301F500F977E1173E943D
:104C3C0013341400A3002501A301850003C504004F
:104C4C00EFC06F9B51BFA9078144E318F4F883A709
:104C5C0001B9CE8AD9D3184583C417008547034AB6
:104C6C000700138941DB638CF40283474900ADF7DD
:104C7C000D45EFC00F8EAA8505C1930700FD2300DB
:104C8C00F5009147A30045012301F50083A701B965
:104C9C0003C50700EFC02F96EFF07FD035BF83A779
:104CAC00C1BC91EF0145EFE01F822A8611C603C5F6
:104CBC0001C48945EFC0EFD883A701B9A9A003C6E9
:104CCC000700938617009305F1000545EFD07FE1AF
:104CDC0071D983470500858BF1D70545EFE0AFFE11
:104CEC009307B0032A8463F9A70203C501C45D6668
:104CFC00130606708945EFC08FE7130444FC23921A
:104D0C0081BC83A701B90947A380E7008347490009
:104D1C0089CB23020900D1B5130600643306C50202
:104D2C0071B75285EFF09FE24DBD79714ECE83A7DE
:104D3C0001B922D406D626D24AD052CC454489EBAE
:104D4C00938701C483C7370013F7570019EB494405
:104D5C002285B250225492540259F249624A45615A
:104D6C00828003A7C1BC414465D7034707006DD3BC
:104D7C00858B2E892A8AC1C7834709000547F917F5
:104D8C0093F7F70FE365F7FC9165938575713145E2
:104D9C0097F0FE1FE780C0A823A8A1B84D444DD9B9
:104DAC0023004501A30005002946CA85090597F093
:104DBC00FE1FE78040BB138441DB034724008D4773
:104DCC006317F704EFD0BFF52C00EF80804E28005E
:104DDC00EFE04FC9854745452302F400EFE0AFEE05
:104DEC001375F50FA302A40001443DD103C501C402
:104DFC005D66130606709145EFC06FD791BFEFE06B
:104E0C005FAC2A84EF604007E378A4F6B5BFEFF0FF
:104E1C009FC62A8415DDEFF09FB81DBF411126C235
:104E2C0083A701B906C622C44AC0A1C383C7070021
:104E3C000D44639DA70203C501C48945EFC00FD67D
:104E4C0003C501C49145239201BCEFC02FD5A38C9F
:104E5C0001DA83A701B90145A38087002244B2403F
:104E6C009244024941016F90C02F49442285B240BF
:104E7C0022449244024941018280411106C622C457
:104E8C0026C285476315F506138441BC835704007D
:104E9C00A1C703C781DB29E31307B0036369F702DA
:104EAC0003C501C48945EFC06FCF035604009307B7
:104EBC00006403C501C43306F6028945EFC06FB820
:104ECC0023100400B2402244924441018280938713
:104EDC0047FC2310F400FDB783A701B9E5D72244A2
:104EEC00B240924403C5070041016FF03FF383A722
:104EFC0001B9E9DB938701C483C73700918BF9D3E0
:104F0C0003C501C48945EFC06FC92244B240924425
:104F1C00239201BC41016FF09FA883C731C4958BCC
:104F2C00D9CFB9CD83A7C1BCD9CBFD4763EBC7089B
:104F3C0011C2C1CA411122C44AC006C626C2238A64
:104F4C00A1B036893284A1C19384C1BC88407D460E
:104F5C0081450505EFC06F938840CA8522860505FB
:104F6C0097F0FE1FE78020A08C40228523808500CF
:104F7C002244B24092440249850541016F90E01DE4
:104F8C0083A741BD55B7938441BD88407D4681457B
:104F9C000505EFC08F8F8840CA852286050597F0DE
:104FAC00FE1FE780409C8C40228523808500224494
:104FBC00B24092440249850541016F90401A49451F
:104FCC00828009458280797106D622D426D24AD0B5
:104FDC004ECE52CC8D4763FCA70009442285B250BB
:104FEC00225492540259F249624A4561828003C7A5
:104FFC0041DB4144E314F7FE938741DB83C927006F
:10500C009307F5FF93F7F70F85462E842A8993842F
:10501C0041DB63E4F60695E199452800EFD0BFA289
:10502C0003C501C4914523812401EFC02FB7A3828E
:10503C00040029CC2381340155B719468145280039
:10504C00EFC0AF8419462C002285EFC02F8A51F592
:10505C0019469305F00F2800EFC02F8319462C003A
:10506C002285EFC0AF8835F9A2851946280097F044
:10507C00FE1FE780408F014465B70144E312E5FA57
:10508C00C8442C00EF80E0222A8459BF6314090025
:10509C000144A9B72800EFE0EF9C2A8441FD8D471D
:1050AC00E318F9FE4545EFE00FC21375F50FA38227
:1050BC00A40079DD03C501C45D6613060670914535
:1050CC00EFC0EFAA21BF83C731C4918B89CF4111A7
:1050DC00138581BC06C6EFD0BF96B2407D57239D89
:1050EC00E1DA4101828001456FD09F95411122C4C4
:1050FC0003A5C1BC06C626C24AC01384C1BC19C5CF
:10510C0097E0FE1FE780C07A2320040003A541BD71
:10511C00938441BD19C597E0FE1FE780607923A0F9
:10512C000400138901C483473900958BADCB1385DB
:10513C0001DEEFD09F9083473900958B81EB4D4575
:10514C00B240224492440249410182801169930584
:10515C0069711305000297E0FE1FE780606C08C0C0
:10516C0079DD130600028145EFB03FF293055971CA
:10517C001305000297E0FE1FE780806A88C001C912
:10518C00130600028145EFB05FF0014555BF0840A2
:10519C0097E0FE1FE780C071232004004DB7014546
:1051AC00EFD0BF89DDB703C7050093762500937751
:1051BC00D70F99C29367270013188501135888419C
:1051CC0013F7F7076354080013E707089376850075
:1051DC009377770F99C2936787001377050293F63D
:1051EC00F70D19C393E607022380D5006345080029
:1051FC009377A50281CB8347060093E7C700230072
:10520C00F60082807DFD83470600CD9BCDBF2D45EA
:10521C006317071403C805000947631EE812C84149
:10522C0003471500034505002207498F42070D650A
:10523C004187930825A06309170B011122CC26CABC
:10524C004AC84EC606CEBE89B68432842E8963CE39
:10525C00E800930705A0630DF702130515A0630E74
:10526C00A704239004000545A5A0930745A0630758
:10527C00F7086346F706130565AAE314A7FE8547EE
:10528C002390F600DC4583C707002300F60081A0BD
:10529C00C845EFB0BFE0420541814E8663733501CE
:1052AC002A862390C400420641828325C9002285A8
:1052BC0097E0FE1FE780206B19A8DC4583D7070019
:1052CC00239006012300F600A183A300F6000145FC
:1052DC00F2406244D2444249B24905618280994706
:1052EC002390F6001946D1B785472390F600DC458C
:1052FC00014583C707002300F6008280DC45A9CB5B
:10530C0021472390E60003D707002300E60003D7CC
:10531C0007002183A300E60003D727002301E60042
:10532C0003D727002183A301E60003D747002302FC
:10533C00E60003D747002183A302E60003D76700EA
:10534C002303E60083D76700A183A303F60041B7CC
:10535C0023900600ADBF2390060005458280828015
:10536C0083C8050089476391F814DC41797122D414
:10537C0006D626D24AD04ECE52CC03C8170083C7CD
:10538C0007002E8422083368F80042088D671358F2
:10539C000841138327A0630A680E2A8A3A89B684C7
:1053AC00B285634C0301138707A0630AE802938755
:1053BC0017A06303F808854711A8138737A0630368
:1053CC00E80A138767AA8D47E317E8FEB250225408
:1053DC0092540259F249624A3E85456182804844A2
:1053EC0032C6EFB0BFCB420541819D47E36025FF3C
:1053FC00B3099900D547B24563D43701B547F9B71E
:10540C0048442686C2094A9597E0FE1FE780A055BE
:10541C00484493D9090159463306364181454E9586
:10542C00EFB0BFC683A7C1BD99E3814745B79C4385
:10543C008145E5DF52852DA0AD47E31909F8E39FBF
:10544C0016FB83471600834606005844A207D58FE7
:10545C002310F70083A7C1BDE9DB9C438545F1D739
:10546C008297E1B7AD47E31309F69947E398F6F84D
:10547C004844194697E0FE1FE780E04E83A7C1BD64
:10548C00CDD79C43DDD38D4575B7AD4721F385470B
:10549C00E396F6F60347060093070008E3E8E6F206
:1054AC00DC452380E70051B785473E85828023AEDB
:1054BC0001BC8947238CF1B0138F81B18147938E46
:1054CC00C1DE5947B386FE00238006008507E39BA7
:1054DC00E7FEB707A0009385C1B1938707059CC170
:1054EC00B707E803DCC1238D01BC37E602009387C4
:1054FC00C1A0130646DDD0C337E602000947138E60
:10550C0051B1130686DA2300EE00D0C723AEE701B3
:10551C0023AEC70337E6020037EF020037EE020076
:10552C008546130686DB938891B1138381BD13885E
:10553C0071B1138561B1130F0FDC130E0EDB2380D9
:10554C00E8002380E7002388E7002380E702238814
:10555C00E7022380E7042300E8002384D700239587
:10556C000700D0CB238CD700239D070023A2E70391
:10557C002384D7022395070223A6D703D0DB238CE1
:10558C00D702239D070223A2C7052384D7042395A2
:10559C000704231003002300D50023A667042388E7
:1055AC00E70423AE17052380E7062388E70623804C
:1055BC00E708B7E8020037E70200130747DB9388D8
:1055CC0008DD23A2E708F0CB238CD704239D070426
:1055DC0023A217072384D70623950706ECD7F0DB05
:1055EC00238CD706239D070623AE07072384D708F1
:1055FC002395070823A6A708375701009387C1A94D
:10560C001307A72198C3375701001307C736D8C310
:10561C0023A407008280A54763E1A70CB7E702002B
:10562C00938787900A053E951C41411122C426C2DE
:10563C0006C64AC0B2842E848287D547614563E191
:10564C00B702594681451385C1DEEFB01FA42286EF
:10565C00A6851385C1DE97E0FE1FE780C0300145AB
:10566C00B2402244924402494101828089476145FB
:10567C00E398F5FE03570600239CE1BCCDB7A14788
:10568C006145E39FF5FC2146A6851385C1B1EF80EA
:10569C00811AF1B785476145E394F5FC9385C1A068
:1056AC00D04D9385850203C50400EFF0DFAF45BFF5
:1056BC0085476145E396F5FA9385C1A0D05D938546
:1056CC008504D5B785476145E39CF5F8034706008B
:1056DC00238BE1B069B7094561B70945828005475D
:1056EC00630AE5024111AA8706C62E8599CB11479C
:1056FC006388E7022547638BE7020945B240410105
:10570C00828055469385C1DE97E0FE1FE780A02579
:10571C000145EDB783D781BD01452390F50082800B
:10572C0021469385C1B1EF800111DDB783C761B10B
:10573C002380F500F1BF9387A1BD03C7070011EFCC
:10574C0005472380E700058909C99386C1A941460D
:10575C00A5451385C1A06F304058014582800111C9
:10576C001388F5FF06CE22CC26CA4AC84EC652C4B0
:10577C001378F80FAD4563ED050BB7E502000A0889
:10578C00938505932E983E8A83270800BA8936891B
:10579C00B28482878545EFD00FC62A8419E1EFF0D9
:1057AC00FF942285F2406244D2444249B249224AD3
:1057BC00056182808945EFD00FC42A847DF126854E
:1057CC00EFF08F94F9BF9145EFD0EFC22A8471F9B5
:1057DC005286CE854A85EFD0AFB9EFF03F91EFF00E
:1057EC009F8EEF70D05F75BFA145EFD0CFC02A84DC
:1057FC004DF95286CE854A85EFD08FB72685EFF0CE
:10580C00AF90EFF04F8FEF70104061BFB145EFD00C
:10581C008FBE2A8459F55286CE854A85EFD04FB576
:10582C002685EFF06F8EEFF00F8DEF70D03D75B7D2
:10583C00094485BF79714ECEAE896C0022D426D234
:10584C004AD006D62A89B284EF0070752A840DE1FD
:10585C00CE854A85EFC03F962A8419E93245B72692
:10586C00010026879386461B2D468145EF10000EBE
:10587C002285B250225492540259F24945618280D9
:10588C0079714ECEAE896C0022D426D24AD006D67F
:10589C002A89B284EF00B0702A840DE1CE854A8546
:1058AC00EFC09F9F2A8419E93245B726010026874D
:1058BC009386A6294D468145EF1040092285B250AA
:1058CC00225492540259F24945618280397126DA88
:1058DC00AE844C0022DC4AD84ED652D406DEAA89BD
:1058EC003289368AEF00B06B2A8431EDA6856303CA
:1058FC00090283D704002C002314F10083D7240061
:10590C002315F100930720302316F1009307800232
:10591C002307F1004E85EFC0FF862A840DE559461A
:10592C00A6851305A1002304210197E0FE1FE78043
:10593C0080031245B726010052879386E61525464B
:10594C002C00EF10A0002285F2506254D254425920
:10595C00B259225A21618280797126D2AE846C00B0
:10596C0022D44AD04ECE06D6AA893289EF003063B3
:10597C002A840DE1A6854E85EFC0DF852A8419E9BE
:10598C003245B72601004A879386261D3546A685E3
:10599C00EF00D07B2285B250225492540259F24926
:1059AC0045618280BD47638CF50663E9B702A54764
:1059BC006387F50663EDB7009947638CF5049D4743
:1059CC00638FF5049547638CF50401458280B547D8
:1059DC006387F50463E1B704AD47F5B7DD47638E24
:1059EC00F50263EAB700C947638BF502D9476386B2
:1059FC00F502C547C9BFF5476383F50263E4B700F9
:105A0C00ED47D1B793072005638BF5009307200D65
:105A1C005DBF4845828008418280084582804841AC
:105A2C0082809307F00F630CF506011126CAAA8435
:105A3C001305000222CC4AC84EC652C456C206CE2A
:105A4C003A89B689B28A2E8AEFB0AFB02A844D4516
:105A5C0015C8930700FB2300F400A3005401231185
:105A6C0044012302340113058400614663050902D5
:105A7C00CA8597E0FE1FE78000EFA2852685EFB070
:105A8C008FB70145F2406244D2444249B249224A9E
:105A9C00924A056182808145EFB02FDFF9BF09453D
:105AAC008280011122CC06CE2A842306B100A306E3
:105ABC00C100EF50602C19CD0347C500A147631FEF
:105ACC00F70003C541B278009306E0070146A285B2
:105ADC00EFF03FF5F2406244056182807800930656
:105AEC00E0070146A28503C551B2DDB793070064F8
:105AFC003306F6026FB00FFD05C903470500854656
:105B0C009307270093F7F70F63F0F602411122C4B5
:105B1C002A843A8506C6EFB07F8BFD572300F4002C
:105B2C00B2402244410182808280035705009307D2
:105B3C00000B6313F702834745004947639CE7005A
:105B4C000347150185476399E700035525008545F3
:105B5C006F30703A6D47C5BF828001112314B100BC
:105B6C006C0022CC26CA4AC806CE2A89B6842315D4
:105B7C00C100EF00D0422A840DE12C004A85EFC011
:105B8C00AFD62A8419E93245B726010026879386B9
:105B9C00C60A15462C00EF00705B2285F240624469
:105BAC00D2444249056182807971930720302314D5
:105BBC00B1002315C1002316F1002C0093078002BD
:105BCC00014606D62307F100EFF05FD0B2504561D5
:105BDC008280C177797185073EC4894726D2231606
:105BEC00F100AE84930780024C0022D44AD006D632
:105BFC002A892307F100EF00903A2A840DE12C004A
:105C0C004A85EFC08FE62A8419E91245B7260100B0
:105C1C0026879386262445462C00EF003053228598
:105C2C00B25022549254025945618280B286054684
:105C3C006FF0DFC9797126D2AE846C0022D44AD0C1
:105C4C004ECE06D6AA893289EF0070352A840DE132
:105C5C00A6854E85EFC06FC02A8419E93245B72658
:105C6C0001004A87938686040D46A685EF00104EE8
:105C7C002285B250225492540259F24945618280D5
:105C8C007971930720202314B1002315C10023162A
:105C9C00F1002C0093078002014606D62307F10081
:105CAC00EFF0DFC2B25045618280011122CC06CEEA
:105CBC002A842EC632C436C2EF50000C0DC983465E
:105CCC00C500A14712472246B245639CF60003C5A6
:105CDC0041B2B2862E86A2856244F24005616FF015
:105CEC005FD4B28603C551B22E86A285F5B7F240B9
:105CFC0062440545056182806FF0DFB36FF09FB39E
:105D0C006FF09FC56FF05FC579714ECEAE896C0098
:105D1C0022D426D24AD006D62A89B284EF00302863
:105D2C002A840DE1CE854A85EFC0AFCC2A8419E9CF
:105D3C003245B726010026879386061F3D468145CE
:105D4C00EF00D0402285B250225492540259F249AD
:105D5C0045618280B28601466FF05FB7011122CC9B
:105D6C002E846C0026CA06CEAA84EF005023DD4791
:105D7C00630AF500930710102314F400A2852685FE
:105D8C00EFC08FD1F2406244D244056182802394EB
:105D9C00050083D7850099E36FF09FAE094582809B
:105DAC006FF0FFFE01114AC803C961C122CC26CA9B
:105DBC0006CE2A84AE84EF30016E637725036C0027
:105DCC002285EF00D01DDD47630AF5009307001014
:105DDC002394F400A6852285EFC00FCCF2406244D8
:105DEC00D2444249056182805945CDBF23A2A1BE50
:105DFC00828023A4A1BE8280011122CC26CA06CEA9
:105E0C002A84AE84EF405077A6852285EFB09FF0B0
:105E1C000DE5228523169100EF40107619CD03472E
:105E2C00C500A1476310F70203C541B27800930681
:105E3C00F0070146A285EFF0DFBEF2406244D24487
:105E4C000561828078009306F0070146A28503C5A0
:105E5C0051B2D5B7011126CA06CEB68422CCDD4686
:105E6C0063E2B608D94663FED50AA5466381D50A16
:105E7C0063EEB6049546638CD50899466387D50ABC
:105E8C00054441687D18631606093AC6EFB05FEC0D
:105E9C003306854032474206418242044180330535
:105EAC00C4004205BA85418132C6EF30D013AA87AF
:105EBC0049C181C432462390C400B305804062447A
:105ECC00F240D2443E8505616FA01FE1C546638058
:105EDC00D504C9460D44E395D5FAC167FD17E31EF9
:105EEC00F6FA65B7F5466380D50463E4B600ED4673
:105EFC00D5B7930620056388D5029306200DE39150
:105F0C00D5F8C167FD170D446319F600BDBF0944F0
:105F1C008DBF9306200DE392D5F8310642064182DF
:105F2C00ADBF15445DBF0D444DBFC167FD171D448A
:105F3C007DB7F2406244D24405618280011122CCCB
:105F4C0026CA06CE03C645002E84130700028146DE
:105F5C009945AA84EFF01FF02AC629CD8357040077
:105F6C0003464400930554002310F100835724008A
:105F7C002311F10089472312F100930780022303B8
:105F8C00F10097E0FE1FE780009E834744008A855E
:105F9C0026852314F100EFC0EF972A8411C53245F2
:105FAC0097E0FE1FE780C0902285F2406244D24405
:105FBC00056182804D44CDBF5D7186C6A2C4A6C268
:105FCC00CAC04EDE89476306F600C1470944631A0E
:105FDC00F6040144B9C52E894C0832C6B689AA8488
:105FEC00EF00E07B2A8432460DEDC1778507CA8528
:105FFC001305D1013ECC230EC10097E0FE1FE780B4
:10600C0080962C082685EFF07FF32A8419E95245F7
:10601C00B72601004E87938646101D462C08EF00CC
:10602C00F0122285B640264496440649F259616125
:10603C008280797122D436844AD04ECE52CCB28929
:10604C002E8A3A898146130710022286D94526D218
:10605C0006D6AA84EFF01FE02AC629C12286CA857B
:10606C0023148100231241012313310197E0FE1FF9
:10607C00E780608F4C002685EFC0CFAC2A8411C519
:10608C00324597E0FE1FE780A0822285B250225451
:10609C0092540259F249624A456182804D44F5B7E7
:1060AC00011122CC26CA06CE4AC8DD472A84AE840A
:1060BC00638DF5028147035504006C002306F10043
:1060CC00EFC0EFAB0545638CA40803458400B165B4
:1060DC00938505B8EFB08FB6E5472301F400B727D9
:1060EC000100938707385CC095A8034755013149D7
:1060FC00B2863306270318499C4232971043E31BA0
:10610C00F6FA83D7460003564700E315F6FA8C4699
:10611C000847EFA0BFFD59DD8347540103474401F5
:10612C00850793F7F70FA30AF40063F0E704B3872E
:10613C002703184803550400BA97984783D647009D
:10614C0003D6270083D50700EFF0BFEE25F50345F6
:10615C008400B165938505B8EFB04FAE5945F24058
:10616C006244D24442490561828083476401A1B7ED
:10617C00011122CC26CA06CEDD472A84AE84639C4C
:10618C00F50603550500EFB0BFBC0356C40183569A
:10619C002401035744016D162A9642064182B30727
:1061AC00D640C207231EC400C18363F1E7089305E0
:1061BC00C5FF3308F740635CB802BA96918EC206ED
:1061CC00184C8355040103550400C1823E97EFF02F
:1061DC005FE615E103458400B165938505B8EFB022
:1061EC00EFA55945F2406244D244056182806D1599
:1061FC0093160501F1B78147035504006C00230683
:10620C00F100EFC0CF970545E38EA4FC0345840055
:10621C00B165938505B8EFB06FA2E5472301F40093
:10622C00B7270100938707385CC065BF8547E9B77E
:10623C00397126DAAE842C0022DC4AD84ED606DE22
:10624C002A89B289A92B2A8421ED4A85EFB05FB047
:10625C0083D644006D1563C5A60093160501C18253
:10626C00984403D6240083D504004A85EFF07FDCE4
:10627C002A841DE53146A68508082306010097D01F
:10628C00FE1FE780406E83D724002245B72601000D
:10629C004E879386C6305D466C00231EF1007D252B
:1062AC002285F2506254D2544259B25921618280F3
:1062BC006FF01FF86FF0DFF7797126D206D622D473
:1062CC004AD04ECE52CC56CA8944BDC935CA328941
:1062DC002E84AA893A8AB68AEFB09FA71306440087
:1062EC0081477115035706006356A706850793F778
:1062FC00F70F3106E318F9FE8A854E854D21AA84E5
:10630C0021E11844835644000356240083550400AD
:10631C004E85EFF01FD2AA8405E50245B726010091
:10632C00854752879386C6305D464C002302F100A8
:10633C0022C423062101A30601002307510139259C
:10634C00B2502254268502599254F249624AD24ADA
:10635C0045618280ED44EDB779714ECE37E602008F
:10636C00AE89C16526D20147AA8489461306C6DDCB
:10637C00FD15054522D406D64AD0EF10500605442B
:10638C0031CD2A891307300281461146F545268501
:10639C00EFF05FAC2AC6554431C18357A900CE86B5
:1063AC0001462314F10091472315F1008547230082
:1063BC00F500B2472C002685A38007003247FD5715
:1063CC002301F7003247A301F700EF1000772A846E
:1063DC0011C5324597D0FE1FE780804D2285B25003
:1063EC00225492540259F24945618280411106C6E9
:1063FC00EFF04FDB19C5B240410117D3FE1F670008
:10640C00234BB24041018280A382A1B282802382BD
:10641C00A1B28280011106CE2AC6EFB08FFAFD57C9
:10642C00A382F1B232452382F1B223A201BE23A48E
:10643C0001BE91452380A1BEEF302037F2400561AB
:10644C006F20501D93970501C18763D3071203C5B5
:10645C0001BE797122D44AD006D626D22E89EFA05D
:10646C003F932A8441CD034705009307000A631428
:10647C00F70885474C08A305F100EFB07F80AA848C
:10648C001DE98347610171476373F708138717FE92
:10649C001377F70F9306000263F2E608858BD5C3DA
:1064AC0083A741BE994481CB035524001306B10048
:1064BC004C088297AA848347B10099C7084409C540
:1064CC0097D0FE1FE780C03E95E05247B70700010A
:1064DC00938707F07D8FB707120093870710630C23
:1064EC00F70003476101ED476317F70003552400DC
:1064FC008545EF3040202285EFA0FF82B250225418
:10650C0021653345A90092540259456182803707B1
:10651C00301405073357F700058B49D303A781BE09
:10652C0059DB0347510141FB2306F100994723082E
:10653C00F100035524006C0023170100EFB05F98A5
:10654C009DBF83A781BE9DC3035524001306B100D4
:10655C004C0882972DD1AA8483475101A9FF834708
:10656C006101230891002306F100E1B79944EDB7CE
:10657C0001458280397122DC26DA06DE4AD84ED6F5
:10658C0052D456D25AD0A5472A84B2846399F510B6
:10659C008347450203570600835A260085072302CA
:1065AC00F5029307F7FFB387FA025442C207C1837F
:1065BC00B69703C9170083C707008346C500220995
:1065CC003369F90085476390F602330757032310AC
:1065DC0006008149014A130B3501931A070193DA1E
:1065EC000A0163E15907C167FD176302F90C835770
:1065FC000401637EF90A050942098346C400135954
:10660C000901231724010547035504009305E400F1
:10661C00639FE6002315F100930720302316F10049
:10662C0093078002231421012307F1002C00EFB003
:10663C007FB503458400B165938505B8EFA01FE0D5
:10664C005945BDA083D62400DC4083452401ED16BA
:10665C0013865900C206C1823E965A85EFB06FDB95
:10666C0005C9630C3A01C84003D62400B3053501B3
:10667C00529597D0FE1FE780002F83D724003E9AB7
:10668C0083D70400420A135A0A0185072390F400A9
:10669C0083D72400BE99C20993D9090199B703473E
:1066AC004600A9476310F7028347450281CF014595
:1066BC00F2506254D2544259B259225A925A025B45
:1066CC0021618280834624011309340137E50200DD
:1066DC004A868945130545DDEFB0AFD319C1054591
:1066EC00C1BF8346240137E502004A86894513055C
:1066FC0085DDEFB00FD265F58346240137E5020046
:10670C004A8689451305C5DCEFB0AFD069F98346DD
:10671C00240137E502004A868945130585DBEFB075
:10672C004FCF55FD03C74400BD47E3EAE7FAA56721
:10673C0093874712B3D7E700858BD5D383474402A1
:10674C0085072302F40203D9240071BD03C6C1C21C
:10675C0003A7C1BE81476315F6008146368582804A
:10676C00BA8613078702835587FDE389A5FE850743
:10677C0093F7F70FCDB7011106CE2EC6EFF01FFD24
:10678C0001CD8347A500B245138717006396E5003A
:10679C0093F707F82305F500F2400561828001119B
:1067AC0006CE2EC6EFF09FFA05C5B24591C188C141
:1067BC00834785001307E00F5D456388E7001307E7
:1067CC00F00F01456383E7005945F2400561828073
:1067DC000945E5BF411122C42A84210506C626C2FB
:1067EC004AC0EFF06FB183472400A51793F7D70F7A
:1067FC0091EB0347C4008547631EF7041C48814492
:10680C0031499DEFFD5723010400A304F40023023A
:10681C0004021305C4002244B2409244024961466A
:10682C00814541016FA07F86B38724033E950845BF
:10683C0009C597D0FE1FE780A007850493F4F40FD9
:10684C00834744010848E3E1F4FE97D0FE1FE7803C
:10685C0020064DBF084C75F975B7411122C441642F
:10686C0006C626C29307E4FF630EF500AA8485E1F1
:10687C00EFF0DFED01E91305F4FFEFF03FED19C187
:10688C0023109500B24022449244410182808547F6
:10689C006395F504EFF09FEB2A846DD5FD5723101B
:1068AC00F500834784001307F00F6385E702130795
:1068BC00E00F638BE70083462400034594000147F7
:1068CC005146A685EFF0EF952285EFF0BFF0FD570E
:1068DC002304F4002305040075B78947E394F5FA03
:1068EC008545EF40206259FD2685EFF03FE62A846E
:1068FC004DF949BF39C9034785009307F00F63066B
:10690C00F704011122CC06CE2A8483462500835538
:10691C0005000345950001475D46EFF08F90034756
:10692C002400E1476319F700035504006C002306AB
:10693C000100EFB0DFA4F9572304F4002285EFF037
:10694C007FE9F24062440561828082809307F00FF8
:10695C006306F706011122CC26CA2A844EC6AE84E1
:10696C00B689AA8593068500377501004AC852C4BA
:10697C003A89328A13050590794606CEEFF00F97C7
:10698C00A3042401230144012322340185C01305EF
:10699C00C4006244F2404249B249224AA685D2441C
:1069AC006146056117D3FE1F6700E3FBF2406244AA
:1069BC00D2444249B249224A0561828082802388AE
:1069CC00A1BE82809547639CF506834745028546A8
:1069DC0085072302F502835706005842034626001A
:1069EC00FD17C207C1836318D6048A07BA9703C779
:1069FC00170083C707002207D98F0357E50063F9F7
:106A0C00E704411106C622C485072316F5002A8423
:106A1C009305C50003550500EFB00FED0345840049
:106A2C00B165938505B8EFA07FA1B2402244D94748
:106A3C003E8541018280C946B387D70245BF834654
:106A4C004600294785476396E6000347450211C374
:106A5C0081473E8582809D476392F50683474502B8
:106A6C008356E50085072302F5028357060058423A
:106A7C00FD178A073E978347170003470700A207B5
:106A8C00D98F014763F6D704411106C622C4850786
:106A9C002A842316F5009305C50003550500EFF075
:106AAC00EFC903458400B165938505B8EFA01F9924
:106ABC00B240224459473A854101828083464600C0
:106ACC00A94705476396F60003474502133717009D
:106ADC003A858280411122C406C626C2B5472A8453
:106AEC00639BF50483474502B28485072302F502B4
:106AFC0003550500EFB0CFA583D704001307F5FFAE
:106B0C00014563C5E7020357E400035504009305F0
:106B1C00C400BA972317F400EFB0CFEB0345840001
:106B2C00B165938505B8EFA07F915945B2402244D9
:106B3C00924441018280034746009D470545E31777
:106B4C00F7FE0345440213351500CDB7C547639EC8
:106B5C00F5068357060003572600FD17B387E70297
:106B6C000347450205072302E5025842C207C183C9
:106B7C003E978347370003472700A207D98F416709
:106B8C007D176395E70081473E8582801387170048
:106B9C002316E5000357E500E3F7E7FE411122C495
:106BAC009305C5002A840355050006C6EFB0EFEB2C
:106BBC0003458400B165938505B8EFA03F88B240CA
:106BCC002244D9473E8541018280834646002947AD
:106BDC008547E39BE6FA0347450255F775B7011164
:106BEC0022CC26CA4AC852C406CE4EC683C725003C
:106BFC0015472A8AAE8432843689639DE70436862B
:106C0C00A2852685EFF01FDCAA8955E98547631814
:106C1C00F40A03474900A9476301F70203C594002E
:106C2C004A8785460146D285EFE0BFDF19E58545E9
:106C3C004A85EFE03FD71334150083C6240003C503
:106C4C00940001476946D285EFE0BFDD2685EFF061
:106C5C007FB851A01D476398E7003686A28526852C
:106C6C00EFF07FDF55B725476398E7003686A2859E
:106C7C002685EFF03F9049BF35476398E70036868D
:106C8C00A2852685EFF01FE541B745476398E700DD
:106C9C003686A2852685EFF07FEBBDB75D47639FF7
:106CAC00E70003C7C50085473686A2852685631D88
:106CBC00F702EFF0EFBE8547631BF5048549A54746
:106CCC006317F402835709009DE30544E38709F633
:106CDC00D947E39DF9F62285F2406244D2444249F9
:106CEC00B249224A05618280EFF08FC8E9B703C52B
:106CFC0094004A87A2860146D285EFE09FD271F5B7
:106D0C00A2854A85EFE01FCA13341500C1B70544AC
:106D1C00D9B7397122DC06DE26DA4AD84ED652D4DF
:106D2C0056D25AD083D705001944A1E783CA25004F
:106D3C00AA89328A93875AFE93F7D70FAE84D5E788
:106D4C0083C601BF1307F00F138B01BF1944638275
:106D5C00E602F5476395FA04EFF05F9F2A8929C193
:106D6C000346A50015CE93178601E18763DE070065
:106D7C0001442285F2506254D2544259B259225ADB
:106D8C00925A025B21618280F5454E85EFE07FD1FE
:106D9C008347A90093E707F82305F900D1BF014900
:106DAC0083D64400904483C5140003C50400380006
:106DBC00EFB00FDE2A8455FD83C6240003450B007B
:106DCC0038000146CE85EFE0DFC52A845DF1B2477D
:106DDC0099C323000A0083C724007547E39AE7F898
:106DEC00E30809F82305F90069B7EFF03F962A8903
:106DFC0041D18547639FFA0483D544008844300011
:106E0C00EFA0FFF62A8435F503472900C54763F048
:106E1C00E706DD47630FF7060345990083C701BEFC
:106E2C00639CA7060144034729008D47631FF700A5
:106E3C00835781000357C90063F4E7002316F90058
:106E4C008355C9004E85EFE03FFB4A85EFF09F98D4
:106E5C000DB7834725001144E39D57F15C41E38A4C
:106E6C0007F083D5440088443000829761BFB72770
:106E7C0002009387072AB3D7E700858BD1DF03C6BF
:106E8C0024003400CA854E85EFF07FD52300AA007C
:106E9C00CDB583270901DDB783C624003800014630
:106EAC00CE85EFE01FB82A843DFD83C52400280061
:106EBC00EFE05FAF25D923000A00B5B7011126CA50
:106ECC0003C5C1C29307800291653305F502938512
:106EDC00657006CE22CC4AC84EC652C497D0FE1F4F
:106EEC00E780009423A6A1BE1DCD1389C1BE014429
:106EFC00130A8002FD5983C7C1C2636FF402377550
:106F0C0001001305E5D1EFE07FEE376501001305B5
:106F1C002578EFA03FD63775010013056586EF3055
:106F2C001076014511A04D45F2406244D2444249CD
:106F3C00B249224A05618280B30744030325090044
:106F4C006146814505041374F40F3E9523103501F9
:106F5C002301050023143501230505002302050236
:106F6C003105EFA08F9241BF014582800DCD834743
:106F7C0025000547890793F7F70F6376F702411150
:106F8C0022C406C62A8483550500034535000147F3
:106F9C00F9465D46EFE0FFA8F9572311F400B24023
:106FAC00224441018280828001458280138631B364
:106FBC00930700022300F600FD572389F1B2A38347
:106FCC00F1B22383F1B285452398B1B2239901BE66
:106FDC0023AC01BE23A401C023AE01BEB7E702005F
:106FEC00938681B2938787DCDCC2238A01BE9387A8
:106FFC0081AA09472380E6002380E7002388E70065
:10700C002380E7022388E70237E70200D4C713077F
:10701C00C7DBB7E60200D8DB938686DB0D47D4CB03
:10702C00238CE70237E50200B7E60200138741E044
:10703C00130545DD9386C6DDD8DFC8C32384B700AE
:10704C0023950700238CB700239D0700D0CFD4D302
:10705C00238407022395070223A60702239D070218
:10706C0037770100938781AE1307871123A00700A0
:10707C00D8C323A40700828083D705006384A700AC
:10708C000145828003C52500828003D70500631962
:10709C00E5002381C500014582802390A500D5BF62
:1070AC00C167FD17E30BF7FE4545828029E7894848
:1070BC00354763931605011106CE22CC26CA034729
:1070CC0016000346060093C7F7FF2207598EF18F6F
:1070DC0032C68DE7C4452A84A685EFF0FFF9324607
:1070EC000147630FA60022856244F240A685D24474
:1070FC0005616FF09FF92D473A85828013070008D0
:10710C00F2406244D2443A850561828083C805000E
:10711C0009486395080303A84500834718000348F2
:10712C000800A207B3E70701C2070D68C18713085F
:10713C0028906395070189476FF05FF705458280BA
:10714C00011122CC138471B20347040006CE26CA67
:10715C004AC84EC69307F00F6300F704AA89294565
:10716C00B2842E89EF90FFBE05C99307100B231034
:10717C00F5002302050023113501231325012314E7
:10718C009500AA85034504006244F240D24442496A
:10719C00B24905616F903FC6F2406244D244424905
:1071AC00B24905618280411126C2AE84938541E0CB
:1071BC0022C406C62A84EFF03FEC098909C922854E
:1071CC002244B240A685924441016FF0EF98B24040
:1071DC0022449244054541018280411122C426C2B9
:1071EC004AC006C6AA841304450013090504835734
:1071FC0004008DC3084409C597C0FE1FE780406B8F
:10720C00228531468145EF905FE83104231A04FE54
:10721C00E31F24FDB2402244FD572390F4000249A1
:10722C0092444101828083A701C003D70700630009
:10723C00A70283D60704138707046388A600138765
:10724C00070883D707086396A7003A8582803E8794
:10725C00EDBF0147DDBF83A781C089CB03D74700B2
:10726C006314A700884782809C43C5BF0145828078
:10727C00411106C6EFF03FFE09C50845B240410179
:10728C0082800145E5BF011126CA9384450022CCBA
:10729C004EC606CE4AC852C456C25AC02687814929
:1072AC0001448146814715450356070045CEC9E286
:1072BC000354470083572700B286A297C207C183A5
:1072CC0085093107E392A9FE35C42E899165938512
:1072DC004570228597C0FE1FE78080542A8B39C9E0
:1072EC00814A014A8C4485C503D6440033054B01C1
:1072FC0097C0FE1FE780206783D7440088443E9ADE
:10730C00420A135A0A0197C0FE1FE780605A63872E
:10731C000A00314681452685EF903FD7850AB10496
:10732C00E3C23AFD2326690123148900054521A0F7
:10733C00630DD6000145F2406244D2444249B24941
:10734C00224A924A024B0561828003562700E313BE
:10735C00F6FE035647003294B2974204C2074180AE
:10736C00C183B9BF0545E35835FDB9BF83A7C1BF7C
:10737C0099E30145828098470357A7006315A7003E
:10738C001385470082809C43E5B7411106C6EFF098
:10739C00FFFD11C503550500B24041018280014536
:1073AC00E5BF411106C6EFF07FFC11C50345250072
:1073BC00B240410182804145E5BF411122C42A847B
:1073CC002E8506C6EFF0FFFDAA8505462285EF3017
:1073DC00501D95476305F500BD476313F500214526
:1073EC00B240224441018280411122C406C603A44A
:1073FC00C1BF81469387C1BF29C018440356A7005B
:10740C0018406317A60285CA98C22E8581C92146E9
:10741C009305440097C0FE1FE780E054228597C077
:10742C00FE1FE780E0480145B240224441018280C2
:10743C00A2863A84D1B798C3C9BF0545F5B783A7CF
:10744C0081C00146138781C0A9C703D84700944364
:10745C00631CA802011106CE22CC26CA0DCA14C286
:10746C00AA843E852E8497C0FE1FE78060442C00C2
:10747C002685EFF07FF701E519C0B2471CC0F2403A
:10748C006244D244056182803E86B68775BF14C3C0
:10749C00C1BF05458280411122C42A84090506C654
:1074AC00EFE08FE5FD57A301F400B2402244410107
:1074BC00828083A741C003D707006300A70283D64D
:1074CC006700138767006388A6001387C70083D7FC
:1074DC00C7006396A7003A8582803E87EDBF0147BF
:1074EC00DDBF411122C4416406C626C29307E4FFE6
:1074FC00630EF500AA8485E1EFF0BFFB01E91305EB
:10750C00F4FFEFF01FFB19C123109500B240224489
:10751C0092444101828085476394F504EFF07FF932
:10752C002A846DD5FD572310F500834724001307DB
:10753C00F00F6384E7021307E00F638AE70003454B
:10754C0034000147F9465146A685EFE08FCD2285E0
:10755C00EFF07FF4FD572301F400230204007DB704
:10756C008947E395F5FA8545EF30D01945F1268525
:10757C00EFF03FF42A8455F951BF1D71A6CACEC64F
:10758C0086CEA2CCCAC8D2C4D6C2DAC05EDEAE8465
:10759C0083C52500F947AA896397F504EFF07FF1BD
:1075AC002A8411ED01442285F6406644D6444649AE
:1075BC00B649264A964A064BF25B25618280834780
:1075CC0025000547890793F7F70FE37DF7FC034583
:1075DC0035000147F9460146CE85EFE08FC4228580
:1075EC00EFF07FEBC1B703AB0400B7070001938743
:1075FC0007F037071200B377FB0013070710B28AA6
:10760C00638AE7022EC6EFF0DFEA2A89B24505C588
:10761C00034645000DC293178601E187E3C407F8C2
:10762C004E85EFE00FC88347490093E707F8230224
:10763C00F9008DBF014903C721B39307F00F138ADB
:10764C0021B31944E301F7F6E147E3EEB7F493D71E
:10765C001500FD1713973700B7E7020093870796BD
:10766C00BA9703A80700E30008F483AB4700E38C48
:10767C000BF2420B135B0B0163050B00C947E39440
:10768C00F5F283D64400904483C5140003C504006E
:10769C00380802982A84E31805F02C084E85829B42
:1076AC002A8421C983C71400E39F07EE83C72400F3
:1076BC00230AA10039472308F1006399E7026247C6
:1076CC008347170003470700A207D98F0C084E8584
:1076DC002319F100EFA0CFFEE30605EC14080546D4
:1076EC00D9454E85EFE06FDC2A8475BD8357810147
:1076FC00F1BF83C624009147E386F6EA03450A00EE
:10770C0038080146CE85EFE0CFB12A84E31D05E8A9
:10771C0083C524002808EFE0EFA819C123800A00D4
:10772C009840B7070001938707F07D8FB7071200C9
:10773C0093870710E308F7E6E30609E683C72400FE
:10774C002302F9008DB5011106CE2EC6EFF07FD6BF
:10775C0001CD83474500B245138717006396E500BA
:10776C0093F707F82302F500F2400561828003A726
:10777C00C1BF19E3014615A81C4703D8A700636BCA
:10778C00050183584700B38608016355D50081462F
:10779C00639416011843F1BF3E86C10703D3A7FFBC
:1077AC006317A30099C12390050132858280850659
:1077BC00C206C182F1BF397152D42E8A4ED69305BE
:1077CC00E101AA89528522DC4AD856D206DE26DA95
:1077DC00328936C63AC4BE8AEFF07FF9054435C506
:1077EC00AA840355E1013944EFF0FFA639CD0328F3
:1077FC004500630C08042247B246D6874A86A68504
:10780C004E8502982A8431E19307E00F638FFA02C8
:10781C0003C704008947631AF702D840834717004F
:10782C0003470700A207D98FC2070D67C18713074B
:10783C002790639CE7008347190003460900D28513
:10784C00A2075D8E4E85EFF0BF8F2285F2506254F9
:10785C00D2544259B259225A925A2161828079717A
:10786C0022D4035425004ECEAA89228556CA06D6A8
:10787C0026D24AD052CC5AC85EC662C4AE8AEFF049
:10788C009F9A01E92285EFB02F84594429E90144DC
:10789C00B9A003C789008547AA840144631AF7027B
:1078AC00AA8513858900EFF01F9E29CD03D76400AC
:1078BC0083D68400D04483D5440003D52900E14706
:1078CC00EFF07FEFD9472A846318F50223A6040052
:1078DC002685EFF09F9049C0D947E30AF4FA228538
:1078EC00B250225492540259F249624AD24A424B43
:1078FC00B24B224C4561828061DD83D744002390DA
:10790C00FA00F9B713894400014A914B594C154BB5
:10791C0083550900D5DDE14763067A010357C90099
:10792C0011C3D94703572900835649000326890000
:10793C0003D52900EFF03FE82A846319850123243D
:10794C000900050A3109E3156AFD59B77DD983573A
:10795C0009002390FA00F5B703D529002DB70111C2
:10796C002317C1009307E00F1306E1000147894676
:10797C0006CEEFF05FE4F24005618280797122D48B
:10798C002A840355850026D2AE849305210106D6A0
:10799C004AD0EFF0DFDD6308050E8347850093F7CF
:1079AC00070295CF2AC603552101EFF07F8CAA87D9
:1079BC00B24501ED8357840039452390F400B25051
:1079CC002254925402594561828003552400494641
:1079DC00829711C5835784002390F400CDB70359C7
:1079EC0024004A85EFF03F8411ED41657D15EFF0E1
:1079FC009F8319E58357840025452390F400C1B774
:107A0C0023102501130745008147954603560700AF
:107A1C002DE63147B387E702130984003146CA8546
:107A2C0091073E9597C0FE1FE780E0F33146CA856B
:107A3C00480897C0FE1FE78000F30356C4000355A7
:107A4C00240041478146DD45EFE0CFC02ACE19E541
:107A5C008357840045452390F40095B70C48035692
:107A6C00C40097C0FE1FE78000F0035524004C08AB
:107A7C00EFA05FE129D5594599B785073107E39701
:107A8C00D7F8254581BF0545B1B7797122D42A8431
:107A9C000355850026D2AE849305E1014AD006D663
:107AAC003289EFF0DFCC51C58347850093F707028D
:107ABC00A9E7034714019307200519E38347440002
:107ACC008356A40050448355840003552400014779
:107ADC00EFF07FCEAA8721E98347140199E703557C
:107AEC002400EFA05FD5D94711E18147B250225451
:107AFC00925402593E85456182802AC60355E101A4
:107B0C00EFF00FF7AA8705C9B24503552400494683
:107B1C008297AA8759DD035784002390E40003471A
:107B2C00140161F7E1B75947E317E5FE230009009B
:107B3C006DBF8547CDB7B947F9BF397122DC4AD83B
:107B4C004ED652D406DE26DAAA892E8A32C6368959
:107B5C00EFF03F96094415C5834725001307E00F46
:107B6C00AA845D44638FE7001307F00F5944639AAE
:107B7C00E700324605E2D2854E85EFA0DFD82A8495
:107B8C0015CD2285F2506254D2544259B259225A20
:107B9C002161828003550A009305E101231F010036
:107BAC00EFF0FFBC0355E101EFF0AFFFAA850546EE
:107BBC004E85EF30001F2A845DDDE1B79307F00F8F
:107BCC00E301F9FC37750100938624007946A685FC
:107BDC00130585F7EFD09FF1A38124015DB73971AF
:107BEC0026DA83A4C1BF52D45AD05ECE62CC06DE54
:107BFC0022DC4AD84ED656D266CA2A8BAE8B328C31
:107C0C00368A99E08149B9A0804483DC440001495B
:107C1C00835AA400631499018440E5B78357A400E8
:107C2C00A28963F867010509420913590901410446
:107C3C00D5B7E3EAFBFE630C0A0083450400484019
:107C4C00D28662863AC6EF90DFFC324769DD19C3F3
:107C5C0023105701F25062544E85D2544259B259F6
:107C6C00225A925A025BF24B624CD24C21618280B6
:107C7C0003D7050083D62500854763E9E60439C799
:107C8C00411183C6450026C237E502009384550096
:107C9C0022C426862E84130545DD894506C6EF9041
:107CAC005FF7C14711CD834644008355240003552B
:107CBC00040001472686EFF09FF2814711E1A947A6
:107CCC00B240224492443E85410182803E858280AE
:107CDC002E860355060083D52500854763E2A50251
:107CEC0005C18346460041110147150606C6EFF053
:107CFC001FEF814711E1A947B2403E8541018280C7
:107D0C003E8582802E860355060083D52500854747
:107D1C0063E2A50205C183464600411101471506E1
:107D2C0006C6EFF0DFEB814711E1A947B2403E8573
:107D3C00410182803E85828039714ED683D72500E1
:107D4C0083D9050006DE22DC26DA4AD852D456D274
:107D5C005AD05ECE62CC66CA6AC863E037198547D2
:107D6C00638E0914416BAE8A2A8A2314010002C661
:107D7C00014401497D1B894B054CC94C054D83D5EC
:107D8C002A000147814601464E8523130100EFF07E
:107D9C001FE5AA846300051209EC13072002930661
:107DAC0061005A8695455285EFE0CF8A2A84630894
:107DBC0005120357810083C7040045C70347A10080
:107DCC00630CA70741476385E7022C005285EFA09F
:107DDC006FF409CD34001546D9455285EFD0FFEC30
:107DEC0011C5324597C0FE1FE78080AC8147F9A0D2
:107DFC0083D7A4004146130524002300F40083D745
:107E0C00A400A183A300F400CC4097C0FE1FE78020
:107E1C0080B54904835781008507C207C1832314A9
:107E2C00F10063F9270983D7A400638567098509E5
:107E3C00C20993D90901A1B7E39977F983D7A400B3
:107E4C000946130524002300F40083D7A400A18362
:107E5C00A300F400CC4097C0FE1FE780C0B0110413
:107E6C0055BF22C60359610003C7A40013052400A3
:107E7C006382770333599903230571012300E400CE
:107E8C0083D7A4004146A183A300F400CC4013790E
:107E9C00F90FA5BF230581012300E40083D7A400BB
:107EAC00135929001379F90FA183A300F400094693
:107EBC00CC4055B78357810089FBA947F2506254D7
:107ECC00D2544259B259225A925A025BF24B624C2A
:107EDC00D24C424D3E85216182808547C5B7C5474E
:107EEC00F1BF79714ECE83C961C122D426D24AD05A
:107EFC0006D62A84AE843289EF10E159637D3505AC
:107F0C002285EFF00FDB01C9034725009307E00F33
:107F1C005D456308F700631D0900A6852285EFA067
:107F2C007F9BB250225492540259F249456182808F
:107F3C0003D504009305E10023170100EFF03F8304
:107F4C000355E100EFF0EFC5AA8505462285EF2029
:107F5C00506561D5F9B75945E9B713F7050201C763
:107F6C00B2856FF08FC5411126C24AC006C622C425
:107F7C0013F98500AA84631709001397850161879B
:107F8C00635D070232853684EFF0AFC1AA850546E2
:107F9C006313090001462685EF20B06001E9014515
:107FAC00B2402244924402494101828083479400AA
:107FBC00E5DB83478400E5F7E5B793F72500E5F3A8
:107FCC000D45F9BF7971AE8622D42A8403D50600FB
:107FDC009305E10106D636C6EFF06FF909CD83455E
:107FEC008500B2460356E1012285EFF01FF7B2502F
:107FFC002254456182800545DDBF13F7050201C798
:10800C00B2856FF08FBB411122C426C206C693F411
:10801C0085002A8491E413978501618763500702D8
:10802C003285EFF00FB8AA85054691E0014622850E
:10803C002244B240924441016F20B05693F7250080
:10804C00014591E30D45B2402244924441018280A6
:10805C007971AE8622D42A8403D506009305E101FA
:10806C0036C606D6EFF0AFF0B24601CD834585009B
:10807C000356E1012285EFF05FF8B25022544561BE
:10808C0082800545DDBF797126D2AA840355A500EF
:10809C00C16722D44AD04ECE06D623170100FD1755
:1080AC003284B6890149630DF500050583C60400C9
:1080BC00D04042051307E1004181EFF05FB22A89FD
:1080CC0083C60400D04037E502008945130545DD21
:1080DC00EF903FB41DC503D4A4002285EFF0EFAAA6
:1080EC0009C57D142A9442044180638409002390BD
:1080FC008900B25022544A8592540259F249456182
:10810C00828083C60400D04037E502008945130500
:10811C0085DDEF901FB061F183C60400D04037E5D8
:10812C0002008945130585DBEF90BFAE19C9E30644
:10813C0009FA8357E100E39287FA0354A9007D14EE
:10814C005DB703D4A40055B7397122DC26DA4AD8BE
:10815C004ED652D456D25AD062CC06DE5ECEBE89F2
:10816C0083C785002A8AAE84C18B328C36843A89C7
:10817C00C28A468B9DE783CB04008947638BFB0443
:10818C006285EFF04F8D1DC18328050063800802C6
:10819C005A88D6874E87CA862286A68552858298AB
:1081AC0039A03285EFF0CF8CAA8711ED3945F2500A
:1081BC006254D2544259B259225A925A025BF24B2F
:1081CC00624C216182802946A6855285829745D5CD
:1081DC00F9BFD8408347170003470700A207D98F80
:1081EC00C2070D67C187930607906380D72263CCC3
:1081FC00F60693062780638CD70C63C1F60213072F
:10820C000780E3CFE7F62D45E39309FADC4403C678
:10821C000700CC432310C900228559A213073780CD
:10822C00E390E7F62D45E39409F885472310F90010
:10823C00DC44814583C707002300F40003D5A40068
:10824C00050542054181EFF08FD283570900631574
:10825C00051291072310F9001146814513051400EE
:10826C00EF80BFE229A2930627906381D71863CED3
:10827C00D71293063790638AD71813074790E39168
:10828C00E7F02D45E39509F2DC441D472310E90086
:10829C0003C707002300E40003C71700A300E40092
:1082AC0003D727002301E40003D727002183A30170
:1082BC00E40003C747002302E40003D76700A302CE
:1082CC00E40083D76700A1832303F4004DA02D4560
:1082DC00E39F09ECDC446C0083C9170003C707005B
:1082EC00A209B3E9E90011472310E90083C707008D
:1082FC004E852300F400DC4483C71700A300F40070
:10830C00EFF0EFC6AA8435C50356C100C1659306CC
:10831C00E100FD158329C500EFF0FFD619ED83C6EA
:10832C000400D04037E502008945130585DDEF9048
:10833C005F8E01E5FD572317F10003C7090089473C
:10834C006310F70283A5490009461305440097B052
:10835C00FE1FE78040618357090089072310F9004D
:10836C008357E1002301F400A183A301F40001452C
:10837C003DBD23173101EDB7034705008907BA97B7
:10838C002310F9008357A500A300F4008357A50020
:10839C00A1832301F400034605004C41130534006E
:1083AC0097B0FE1FE780205CD9B7C844EF801FCF81
:1083BC0093170501C1832A871D45E3EA37DF6399CB
:1083CC00F90023100900CC4403560900CE95A9B539
:1083DC004207B3863A01418363C7E600B38737414E
:1083EC002310F900CDB723105901F1BF2D45E390AF
:1083FC0009DCCC445285EFE03FC8231079012300FF
:10840C00A4002181A300A4009DB72D45E39109DAB6
:10841C00DC442310790183C707002300F400DC44FB
:10842C0083C71700A300F40099B71D71CAC82A8925
:10843C0003552500A2CCCEC6D2C4D6C2DAC05EDEAD
:10844C0062DC66DA6ED686CEA6CA6AD8AE8AEF90A1
:10845C003F90130CF5FF93170C01C1832A8A8149B5
:10846C00138401E13EC6C16D8357C90063F6F90060
:10847C008357040063CC870103552900938501E1E0
:10848C00EFA0EFAF2A8D15CD594D25A88327890074
:10849C00139719009305E101BA9783C4170083C79A
:1084AC000700A204DD8C2685EFF06FACAA8515E9D8
:1084BC0023909A004840054D09C597B0FE1FE780F0
:1084CC00203FF64066446A85D6444649B649264A5A
:1084DC00964A064BF25B625CD25C425DB25D2561F2
:1084EC00828032488348490083A681BF0356E1014C
:1084FC00035529008147138721BFEFF0FFC42A8D54
:10850C00138881BF09C523909A00484075B75C4019
:10851C0095E303552900514781461386FDFFBD4560
:10852C00EFD05F9348C0138881BF09E523909A0070
:10853C00454D41BF8357040003D721BF938421BF0E
:10854C003E976347470113C7F7FF52972390E40008
:10855C00484003D60400832508003E95850997B052
:10856C00FE1FE78040408357040003D70400C20974
:10857C0093D90901BA972310F400FDB5397122DCA7
:10858C002A840355250006DE26DA4AD84ED652D464
:10859C005AD05ECE62CC66CA2E8B56D26AC8EF9089
:1085AC002FFB2A8A8346C4008355A40003558400FC
:1085BC0078001306D400130CBAFF651AEFF02FE203
:1085CC00420AAA898144135A0A01138901E163867C
:1085DC00090463D48405938A81BF8348440083A62D
:1085EC000A000356C10003552400528881471387A3
:1085FC0021BFCE85138D21BFEFF01FB515C5814A64
:10860C000356C1008355A4004E859306E100EFF09C
:10861C009FA7AA89639B0A065DF9F1EC8357840036
:10862C0029452310FB003DA883570D000356040178
:10863C00E317F6FC83A50A004848EF803FAB61D1F5
:10864C0083274900A1E30355240041664547814631
:10865C007D169D45EFD01F8005E583578400454569
:10866C002310FB00F2506254D2544259B259225A90
:10867C00925A025BF24B624CD24C424D2161828089
:10868C002322A90083DAA900A5BF83274900A69756
:10869C002380570193871400139707018327490000
:1086AC00418393DA8A00BA972380570113872400F9
:1086BC008326490093873400420791044183C20703
:1086CC00C204C183C180369711CD8356E1002300CB
:1086DC00D70003274900BA970357E1002183238071
:1086EC00E700F5B5FD562300D70003274900BA97DC
:1086FC002380D7001DB7035524008980239891E06F
:10870C00938501E1EF90BFED31DD5945A1BF4111DA
:10871C0022C406C693F705012A84328585C3EFE08F
:10872C005FC8AA8505462285EF20A067954763059B
:10873C00F500BD47631DF502214515A893F74500CB
:10874C0099CBEFE01FC60546AA8522852244B2408C
:10875C0041016F20006593F7050489C7EFE07FC4E2
:10876C000146DDB713F51500133515000605B240AB
:10877C0022444101828079714AD04ECE52CC06D629
:10878C0022D426D22A8AAE89014983D74900636450
:10879C00F9000145A1A083A7090013141900930443
:1087AC0014003387970003470700A29703C50700FF
:1087BC0022079305E100598DEFE07FFB05E983A7C4
:1087CC00090005453E94034704002380E70083A776
:1087DC000900BE9403C70400A380E700B2502254E2
:1087EC0092540259F249624A456182808345850060
:1087FC000356E1005285EFF09FF105C183A70900F4
:10880C003E94034704002380E70083A70900BE942D
:10881C0003C70400A380E700D1B705094209135927
:10882C000901A5B7011122CC2A8403D505009305B3
:10883C00E10006CEEFE0BFF301CD83458500035682
:10884C00E1002285EFF0BFECF240624405618280CA
:10885C000545DDBF1D71CAC82A890355250086CE82
:10886C00A2CCA6CAD2C4D6C2DAC05EDE62DC66DA9C
:10887C002E8ACEC66AD86ED6EF908FCD2AC6834686
:10888C00C9008355A9000355890078081306D9003F
:10889C00EFF0EFB4B247416B938AA7FFC20AAA8BE1
:1088AC00014493DA0A01938401E17D1B638F0B1859
:1088BC000356C10183C58B0003552900EFF03FE53A
:1088CC00AA8D631F05168348490083A681BF0356F2
:1088DC00C1010355290056888147138721BFDE85C6
:1088EC00EFF09F86AA8D938921BF138D81BF6319E9
:1088FC0005141DCC03D7090083D7240011076397F7
:10890C00E7003247A2976D1763C8E706938701E12A
:10891C0003D7270003552900938501E13354E40262
:10892C0023908700EF903FE9AA8D15C1D94D05A082
:10893C0003552900494781465A86C545EFD08FD14A
:10894C00C8C015E583D7AB00C54D2310FA00F6401F
:10895C0066446E85D6444649B649264A964A064B25
:10896C00F25B625CD25C425DB25D2561828083D732
:10897C00090091072391F400DC4003D7AB00930668
:10898C00E101A2972380E7009307140013970701D6
:10899C00DC4041835E85BA9703D7AB0021832380EB
:1089AC00E7000356C1018355A900EFF0CFED130783
:1089BC002400D44093073400420711044183C207BA
:1089CC004204AA8BC1834180369721E1FD562300D6
:1089DC00D700D84083250D00BA972380D700C84014
:1089EC0003D60900229597B0FE1FE780C0F783D706
:1089FC0009003E944204418011F8835789002310EA
:108A0C00FA00E3960DF4A94D99B78356E10183253D
:108A1C000D002300D700D840BA970357E1012183FA
:108A2C002380E700C84003D60900229597B0FE1FAB
:108A3C00E78060F383D709003E9442044180BDB5C2
:108A4C0083D7AB002310FA0045BF814D75B75D711C
:108A5C00A6C2CAC0AA840359850003552500A2C426
:108A6C004EDE52DC5AD85ED662D466D286C656DA50
:108A7C006AD06ECE2E8BEF90AFAD930BD5FF7115E8
:108A8C00131A05010144135A0A01938901E1635534
:108A9C00741583C6C40083D5A4001307E1001386A4
:108AAC00D4004A85EFF0AF932A8D63070512035962
:108ABC00A500834585000356E10003D52400EFF0A3
:108ACC001FC56310051283C8440083A681BF0356DB
:108ADC00E10003D5240052888147138721BFEA8522
:108AEC00EFF08FE6938D21BF138881BF631B050EBA
:108AFC000DC883D70D0003D7290089076308F70633
:108B0C00138701E18357270003D52400938501E1E6
:108B1C003354F40223108700EF903FB605C5594536
:108B2C0015A003D5240041664D4781467D16A54509
:108B3C00EFD04FB223A2A900138881BF1DE12310EF
:108B4C002B014545B640264496440649F259625AD3
:108B5C00D25A425BB25B225C925C025DF24D616167
:108B6C00828083D70D0089072391F90083D70D00EC
:108B7C00A29763D3770783A749000357AD00930AE5
:108B8C002400A2972380E70005049317040103A493
:108B9C004900C183C20A3E948357AD008325080067
:108BAC0093DA0A01A1832300F40003A5490003D63C
:108BBC000D00569597B0FE1FE780E0DA03D40D0048
:108BCC00C167FD17569442044180E302F9EC050994
:108BDC0042091359090165BD29451DF023102B01CC
:108BEC0095B76DDC31BF8357050099E30945828049
:108BFC00411126C2444122C406C64AC083C60400A1
:108C0C00D0402A8437E502008945130545DDEF90F5
:108C1C004F8059C18347240025476145E51793F7D9
:108C2C00F70F6367F70803D701B30545138901B341
:108C3C0041C383570400BA974167634BF7069165AC
:108C4C0093852570314597B0FE1FE78060BDAA84DF
:108C5C004D45B9CC835704008355090001460147A3
:108C6C00B386E500C206C182634AF704AE97C20719
:108C7C00C18319C22310F90023A004002146A28548
:108C8C001385440097B0FE1FE780E0CD9387C1BFEA
:108C9C0098431DEF84C381A083C60400D04037E500
:108CAC0002008945130585DDEF80BFF625F50945E2
:108CBC00B240224492440249410182805040131533
:108CCC00470005072A962315D600054651BF3E8757
:108CDC001C43F5FF04C30145E1BF011106CE22CCB4
:108CEC0026CA4AC809E98944F240624426854249A9
:108CFC00D244056182802AC62A842800368923142E
:108D0C00B1002305C100EFF01FEEAA8471FDE30D45
:108D1C0009FC8357A400E1DB9165938555703145BF
:108D2C0097B0FE1FE780C0AF05C58357A400232072
:108D3C000500232425012312F500938781C0984355
:108D4C0001E788C355B73E871C43F5FF08C369BFCD
:108D5C00CD4459BF938741BF03C7070011EF0547A7
:108D6C002380E700058909C9938681AE4146914568
:108D7C00138581AA6FF07FF601458280A383A1B28F
:108D8C008280C167FD176318F500FD572390F5002D
:108D9C0023810500828083D70500E388A7FE8280AB
:108DAC0001114AC806CE22CC26CA85472A8963936C
:108DBC00F5044A85EFE02FC739E9C16437E60200B4
:108DCC009385F4FF1307E10089461306C6DB0545BE
:108DDC00EFE0FFE02A84FD140DC44C444A85EFF00B
:108DEC005FFA0356E10022858146A685EFF0AFA914
:108DFC002A84DDB789476396F5008545EF208010FE
:108E0C004DD9F2406244D244424905618280EFE080
:108E1C00CFBC65B791654111938515701305200D75
:108E2C0006C697B0FE1FE780A09F23A0A1C09306A3
:108E3C00050CAA877D572390E7002392070023A6F1
:108E4C0007002398070023AC0700239E070023A2EA
:108E5C0007022394070223A80702239A070223AED2
:108E6C00070293870704E398F6FC23A2D1C0F957B5
:108E7C002313E50C2314E50C2316E50C2317E50C42
:108E8C002310F50C2311E50C2305050C2308050C08
:108E9C002302050C3775010013056558EFC07FF5EB
:108EAC003775010013052575EF803FDD377501001F
:108EBC001305E54EEF10B07CB240014541018280B4
:108ECC00011106CE2AC6EFC08FDEEFE02F8E3245A1
:108EDC007D572383A1B2938741E023810700239020
:108EEC00E700F2402389A1B2379501001305C5DADA
:108EFC0005616F10D07893970501C18763D207364F
:108F0C0003C561B2397122DC5AD006DE26DA4AD8A2
:108F1C004ED652D456D25ECE2E8BEF707FE72A847B
:108F2C0039C5034705009307000B631FF7028547FC
:108F3C00938481BFA304F1009C4023150100B1E789
:108F4C00EF00007B91659385357097B0FE1FE7802D
:108F5C00208D88C01DE98347910099C78345440043
:108F6C0013058400EFD08FC82285EF70DFDBF25041
:108F7C00625421653345AB00D2544259B259225A3E
:108F8C00925A025BF24B21618280614681451385C6
:108F9C0001E1EF808F8F034944008947938B01E1F6
:108FAC00D689138A01E16318F908035524009D47FB
:108FBC0063E1A70293171500138781E5BA9783D74E
:108FCC00070081EB0566130686849305B00FEF004E
:108FDC009150EF00E0712310AA00035524009385F3
:108FEC0001E1EF908FCE0357240083570A0083567C
:108FFC00840011ED63E4F6002314F400835584001F
:10900C003A85EFC07FDF2285EFC03FB2A9B763E49A
:10901C00F6002314F40083578400D945938601E1AC
:10902C000D463A852310FA00EFC03FC88D4561DD2F
:10903C00138501E1D9A09947631AF9029305A100A0
:10904C002285EFF0AFD3AA845DDDD9476397F40E88
:10905C000509035524001379F90FD945938601E1CD
:10906C004A86EFC09FC4CA8559DDD9B7A14763189A
:10907C00F9009305A1002285EFF07F9DE9B7A94780
:10908C006310F908035584006C00EFE04FEEAA84DE
:10909C00630E05140355240041669306E100554701
:1090AC007D16AD45EFC01FDB23A2AB00AA8649C1DC
:1090BC00834844000358E1000356C10003552400C3
:1090CC00A6858147138701E1EFF00F88AA84631E00
:1090DC00050E03552400938501E1EF90EFDF05D5D4
:1090EC0003552400938601E12D46D945EFC0FFBB03
:1090FC00E30B05F0AD45138501E1EFD02FAF21B7A0
:10910C00B147631BF90E035584006C00EFE02FE6AA
:10911C00AA8469CD0355240041669306E1005947A2
:10912C007D16B545EFC01FD32322AA00AA8629E9D4
:10913C0083578400C5442315F10003471400D1471D
:10914C00E303F7EC8347440003552400938501E1C6
:10915C002300FA008357A10023029A002311FA007E
:10916C00EF801FD6E30105EA03552400938601E145
:10917C000546D945EFC07FB3E30705E885454DBDEE
:10918C00834844000358E1008357A4000356C100F0
:10919C0003552400A685138701E1EFE0FFFAAA84AA
:1091AC000DE503552400938501E1EF90AFD8E30C56
:1091BC0005E403552400D945938601E13546EFC0FB
:1091CC00DFAEB545E30105E4A5B5D9476393F400DB
:1091DC00814403254A0097A0FE1FE780606DE3845D
:1091EC0004E2835784002315F10081BF8357840068
:1091FC0085442315F10091B7B9476318F90093051D
:10920C00A1002285EFF06FA23DBDC1476318F900A4
:10921C009305A1002285EFF0EFE335B5C947631A3A
:10922C00F900130691009305A1002285EFE0FF855C
:10923C0019BDD947631DF9009305A1002285EFE004
:10924C00EFF3AA84E31305E0A30401006DBBE1472F
:10925C00E31BF9DA9305A1002285EFE04FE0E5B3BB
:10926C0001458280F9C6011152C42E8A854522CC53
:10927C004EC656C206CE26CA4AC8AA8AB6893284B7
:10928C00EF105048D1470DC183C741C183C651C1AE
:10929C00814419E0B684BE8603A7C1C093974400ED
:1092AC00BA9763EDD400D547F2406244D2444249A8
:1092BC00B249224A924A3E85056182803E89C107A5
:1092CC0003D727FF09C7850493F4F40FD9BF21CC2A
:1092DC009565938525C01305000297A0FE1FE780B6
:1092EC0020542326A90061D11306000281459384E2
:1092FC000404EF709FD92311990023000900231354
:10930C0059010DC48347940003A6C1C12304F9007D
:10931C00118C8327C90011841180238E870023A010
:10932C002901814751B723260900C1BF23044901F4
:10933C00FDB785473E85828083C541C103A7C1C067
:10934C0081476395F5008146368582800356270058
:10935C00BA8619C2E30AA6FE850793F7F70F4107F1
:10936C00CDB703C641C103A7C1C081476315F60041
:10937C0081463685828083552700BA8689C5834508
:10938C004700E388A5FE850793F7F70F4107F9BF60
:10939C0083C571C103A7C1C181476395F50081469F
:1093AC003685828003560700BA8619C2E30AA6FEE8
:1093BC00850793F7F70F4107CDB703C851C183A7B2
:1093CC00C1C001476315E80081463685828003D60B
:1093DC002700BE8619CA03D667006318A600D047BB
:1093EC0009C603562600E302B6FE05071377F70FEE
:1093FC00C107C9BF411122C4404526C206C6AA8472
:10940C0015C0484409C597A0FE1FE780604A48482C
:10941C0009C597A0FE1FE780A049228597A0FE1FD3
:10942C00E7800049268541468145EF701FC6B24052
:10943C002244FD57A384F40092444101828001111F
:10944C0022CC2A840355250006CE2EC6EF105003DD
:10945C00324622858145EF00906122856244F240BC
:10946C0005616FF03FF90DC503572500411122C46A
:10947C0006C62A8411CBDD45EF00506322852244B9
:10948C00B24041016FF01FF7B2402244410182808B
:10949C008280411126C2B1469304C5FFB386D40223
:1094AC00138781E206C622C436978356A7006398B9
:1094BC00B60248430DC5138481E29307F00F63068F
:1094CC00F60083470500639CC70097A0FE1FE7804A
:1094DC00203EB147B387F402A29723A20700B24003
:1094EC002244924441018280411122C42E8426C21E
:1094FC004946AA848145228506C6EF701FB9A1CCC6
:10950C0083C7C4011397470083A7C1C1BA9703D778
:10951C0007002310E40003D7270083D7670023112B
:10952C00E40003D721C12312E40003D70400231362
:10953C00E40003D724002314E40003D744002315CC
:10954C00E40003D764002316E40003D78400231837
:10955C00F4002317E400B24022449244410182807B
:10956C0083C541C103A8C1C103A6C1C0014781473E
:10957C006394E5003E8582808346060081CE544686
:10958C0091CA83C6C6019206C2966315D50085079B
:10959C0093F7F70F05071377F70F4106D1BF1306A3
:1095AC0000643386C50293069500AA8537950100A1
:1095BC00130525476F701FD1411122C406C62A849A
:1095CC0003459500EF709FE0FD57A304F400B240F3
:1095DC00224441018280011122CC4AC84EC652C499
:1095EC0056C25AC006CE26CA2A89AE8901441D4BE2
:1095FC0083C751C16361F40463950902930AF00FA8
:10960C0083C741C16367F4061144A1442285050454
:10961C0042041306F00FCA854180EFF09FE7E31771
:10962C0094FEF2406244D2444249B249224A924AE0
:10963C00024B0561828083A7C1C093144400BE9481
:10964C0083C704009DC383D764006390270363968C
:10965C00690103D52400EF10A06226854E86814552
:10966C00EF00F0402685EFF0FFD805041374F40FDB
:10967C0041B783A7C1C093144400BE9483C70400B0
:10968C009DC383C794006380570383D76400639C96
:10969C0027012685EFF05FF22685D145EF001041BA
:1096AC002685EFF03FD505041374F40F91BF416785
:1096BC007917630BE502411122C406C685472A843B
:1096CC006399F50022852244B240814541016FF037
:1096DC009FF089476396F5008545EF10B0027DD168
:1096EC00B24022444101828082809D456FF0BFEEE2
:1096FC0003D521C1828003C701C1011106CE2317F6
:10970C00A1002316B10085476318F700700093057C
:10971C00E1000545EF403022F24005618280A94707
:10972C00631CF60483C7150003C70500A207D98F75
:10973C002310F50083C7350003C72500A207D98F76
:10974C002311F50083C7550003C74500A207D98F25
:10975C002312F50083C7750003C76500A207D98FD4
:10976C002313F50083C7950003C78500A207D98F83
:10977C002314F500014582800545828091476314CE
:10978C00F60283C7150003C70500A207D98F231063
:10979C00F50083C7350003C72500A207D98F231115
:1097AC00F50001458280054582809387C5FF93961D
:1097BC000701C1820D47636ED70031473387E7023B
:1097CC00938781E2BA972381A7002390B7000145C4
:1097DC0082800945828071152399A1C0238BB1C069
:1097EC00238CB1C082801905956542054111938582
:1097FC0035C0418106C697A0FE1FE780600211C5E7
:10980C00B240E95541016F702FCDB24041018280C9
:10981C00238B01C0238801C0A38801C0238301C20C
:10982C000111239901C02380A1C252C4138581E286
:10983C0022CC26CA4AC84EC6130600038145138A99
:10984C0071C106CE238A01C0A38A01C023A601C020
:10985C0023000A00938941C2EF703F83EF10C04A86
:10986C0003C50900138441C1938451C11389C1C03C
:10987C0005C99565938545C0120597A0FE1FE78025
:10988C0020FA23AEA1C009CD03C6090083C7190075
:10989C0081452300CA0012062380F400EF70EFFE0E
:1098AC0003C5C1C283C704009565938555C03E9519
:1098BC001375F50F2300A400120597A0FE1FE78077
:1098CC0020F62320A90021C5034604008145120679
:1098DC00EF70AFFB0327090083460400814725077F
:1098EC007D56639FF6006244F240D2444249B2492D
:1098FC00224A379501001305A56B05616F1020589E
:10990C0085072300C70093F7F70F4107D9BF230042
:10991C00040023800400C1BF41119397050126C2A6
:10992C0006C622C44AC0C187AE8463DD070803C5DE
:10993C0001C2138901C2EF70AFC52A8429C903473C
:10994C000500930700096311F70403471500CD4781
:10995C006318F7060348250003C581D183C761C18D
:10996C001306640081458146138761C1AA88631878
:10997C00D80299C12300F7008347070091C703451C
:10998C0009008545EF70CFFC2285EF70CFB92165BA
:10999C00258DB24022449244024941018280834584
:1099AC000600AE9793F5F70F93F7F80F63F4A50045
:1099BC0093F7F50F850693F6F60F0906854545BF17
:1099CC00F52BD9B793F715000145E1D7EF00506996
:1099DC0009C983C761C191C703C501C28545EF7031
:1099EC002FF713C5140075B785462A8763FBC60489
:1099FC0083C7150003C60500A207D18F2310F500FD
:109A0C00639CD70083C7350083C62500A207D58F7A
:109A1C002311F50001458280894601456394D702E4
:109A2C0083C7350083C62500A207D58F2311F70005
:109A3C0083C7550083C64500A207D58F2312F700B4
:109A4C0082800545828091476314F60283C7150016
:109A5C0003C70500A207D98F2310F50083C7350073
:109A6C0003C72500A207D98F2311F5000145828079
:109A7C000545828091476314F60283C7150003C71E
:109A8C000500A207D98F2310F50083C7350003C743
:109A9C002500A207D98F2311F500014582800545C9
:109AAC008280A1476314F60483C7150003C7050021
:109ABC00A207D98F2310F50083C7350003C72500F3
:109ACC00A207D98F2311F50083C7550003C74500A2
:109ADC00A207D98F2312F50083C7750003C7650051
:109AEC00A207D98F2313F50001458280054582809A
:109AFC008947631CF60083C7150003C70500A2073E
:109B0C00D98F2310F500014582800545828083574B
:109B1C00260079714ECE06D622D426D24AD013070F
:109B2C00F007AE896372F70209473AC42316F100B5
:109B3C00300093F5F50FEF108013B250225492546D
:109B4C000259F2494561828003574600D9462A8959
:109B5C00328463F8E6008357660063F4F600637999
:109B6C00F70023140100300093F5F90F4A85E1B793
:109B7C000355060002C4EFF0BF81AA8459C1EFF06F
:109B8C003F9E83C784006369F5001146A246CE85CB
:109B9C004A85EF10000455B7340026869305F00F64
:109BAC004A85EFF02FEC75F1A24703578400DC4790
:109BBC002390E700035724002391E7000357440048
:109BCC002392E700035764002393E70003D7440074
:109BDC002394E700DC4485CB93F4F90F2286A68509
:109BEC004A858297C167FD172A86E311F5FA22454B
:109BFC009947F9452300F50023029500EFF03F9AB1
:109C0C002DBF094661B7014651B7A947631CF6043D
:109C1C0083C7150003C70500A207D98F2310F500D1
:109C2C0083C7350003C72500A207D98F2311F50080
:109C3C0083C7550003C74500A207D98F2312F5002F
:109C4C0083C7750003C76500A207D98F2313F500DE
:109C5C0083C7950003C78500A207D98F2314F5008D
:109C6C00014582800545828083C705002300F500ED
:109C7C0083C71500A300F50083C7350003C7250073
:109C8C00A207D98F2311F50082802322050003C778
:109C9C00450089476304F7000545828083D665003B
:109CAC000D47E37BD7FE9C45011106CE22CC26CA7C
:109CBC004AC84EC683C4170003C60700A204D18C41
:109CCC00138644006311D60403C4370083C72700EE
:109CDC00AE8922045D8C9307C4FFC207C1832A8915
:109CEC00636FF70003A589002311990023108900E5
:109CFC00F155EF607FFE2322A900014531A022859A
:109D0C00EFF08FE365F10545F2406244D2444249DD
:109D1C00B24905618280397122DC2E8483470400AC
:109D2C004AD806DE26DA4ED619472A89B285639AB6
:109D3C00E706034624002800EFF0FFD0AA8415E9BB
:109D4C0003558100EFF04FDFAA898345140015C934
:109D5C0037B701002E86130767BB34009D454A8533
:109D6C00EF00303B4E850946814511234E85EFF0BF
:109D7C006FE8F250625426854259D254B25921618F
:109D8C00828089472310F100835781000A862311B2
:109D9C00F1008357A1002312F1004A85EF00306DCA
:109DAC00C9BF4947639BE702035624002800EFF024
:109DBC005FCFAA845DFD138581E28357C50099E3CB
:109DCC00814445BF03471400834604000345E50066
:109DDC003C000146CA85152E69BF51476390E702C6
:109DEC00035624002800EFF09F93AA8459F1834571
:109DFC00140030004A85EFF09FD1A5BF5947639FEF
:109E0C00E704035624002800EFF05F97AA8435F18D
:109E1C00835581004A85EFF04FDA1DC558458356AE
:109E2C00A10083570700B697C207C1832310F70020
:109E3C00C1DB5C47D1D783C761C1D9D303C501C28C
:109E4C008545EF70EFB035B789473EC08357810029
:109E5C000A86834514002312F10081B78345140050
:109E6C000A8623100100EF00906099BF5D71A6C2B5
:109E7C0056DA86C6A2C4CAC04EDE52DCAA8A03C514
:109E8C001500AE8432C6EFF0CFCDB24501ED814462
:109E9C00B6402644268506499644F259625AD25A4F
:109EAC0061618280230205002311050083C904002F
:109EBC0085472A84639AF90003C624002808EFF02A
:109ECC00BFB2AA8405492DA09D476394F9040347AA
:109EDC0005008D47E31DF7FA03C624002808054941
:109EEC00EFF05FB9AA8409E5054681452285412634
:109EFC002285EFF06FEC034584003C080147CE86C9
:109F0C002686D6851924E30509F82285EFF08FCE35
:109F1C0041B7CD47639DF900034705009147E3180E
:109F2C00F7F603C624002808EFF09FBC59BFD547AD
:109F3C00E39FF9F4034A05008947E31AFAF403C6D0
:109F4C00240028080549EFF05FCCAA8455F183570B
:109F5C000102BDE3035781011306F0035C44930631
:109F6C0007FCC206C182636CD6000356A101D94618
:109F7C0063F7C6008356C101D94563EFD50003557D
:109F8C0024002391E7000549EF00904F035601028E
:109F9C00D28522854924A9BF8355E1012391E7008D
:109FAC002392C7002390B7002393D7008547230043
:109FBC00F400014A0149D9BF014AC9BF7971AA8588
:109FCC0022D426D203542500AA84280806D6EFF002
:109FDC00DFCBF24599E535E985452285EFF0AFF108
:109FEC0075A8835781011547639BE7060357A101A9
:109FFC008D4763FCE7046800EFF01FC70357E100CF
:10A00C00DD4763FCE7008345D100B70717008507E0
:10A01C00100822853EC8EF0090458357E100035796
:10A02C00A10191076305F7002285EFF00FEC834740
:10A03C00C10072466C00858B1106228591CFEFF022
:10A04C00FFE201C52285EFF04FEA884451D597A075
:10A05C00FE1FE780E08549B7EFF0FFCBDDB7114776
:10A06C006389E7001387A7FF42074183854663ECAA
:10A07C00E6023147F117B387E702138781E2BA97FB
:10A08C0003D7070079D303C527003008A2850D201C
:10A09C004DFD035781019147E310F7F4B250225460
:10A0AC009254456182802C082285052E59FDFDB7FE
:10A0BC0001114AC82A89314526CA06CE22CC2EC6A1
:10A0CC00B284EF601FC921C1B2459307000A231067
:10A0DC00F5002311B5002A84214611058DC0A685F3
:10A0EC0097A0FE1FE7802088A2854A85EF60BFD02D
:10A0FC000145F2406244D244424905618280814567
:10A10C00EF60BFF8D5B70545EDB7797126D2AA84B3
:10A11C001305000206D622D42ECE32CC36CA3AC84B
:10A12C003EC6EF601FC321C96246F2454247D24684
:10A13C00B2472A84130520FA2300A400A300C4000C
:10A14C002311B4002302E400A302D40013058400FD
:10A15C00614691CFBE8597A0FE1FE780C080A28587
:10A16C002254B2502685925445616F60DFC88145F8
:10A17C00EF60BFF1EDB7B25022549254456182802A
:10A18C005845797122D406D62A84AE862DCF8357B2
:10A19C002700231DF10093072006639DF50403D6C9
:10A1AC0021C1835767006373F600B28713F6F70F6C
:10A1BC0083552701834707018D8F93F7F70F81E5AF
:10A1CC00890793F7F70FB297FD17B3C7C702231E82
:10A1DC00F100835724008355640003458400231C3D
:10A1EC00F10001473C080146EFF03FF2B250225417
:10A1FC00456182800347C70183A7C1C11207BA9783
:10A20C0083D76700E9B72EC6194681452808EF6049
:10A21C00DFE7B2467DBF797122D406D626D22A84D6
:10A22C008DC181470147930600062E868355640035
:10A23C0003458400EFF07FEDB250225492544561F7
:10A24C008280B28428005946EF603FE423149100C9
:10A25C0089E88357240048446C002315F100EFF083
:10A26C00AFA83C000147930600060146C1B77971BF
:10A27C0006D6814799ED8357250058452316C10012
:10A28C002314F1003C0011C7835727002315F1005C
:10A29C003C002E86835565000345850001479306D7
:10A2AC000006EFF09FE6B25045618280411122C456
:10A2BC0006C68347050011472A846395E7022E865C
:10A2CC00835565000345850081470147CD46EFF076
:10A2DC00DFE34946835564002244B24015454101F1
:10A2EC006FF02F9B13F7B70F89466317D700014602
:10A2FC00EFF07FF25146F9BF0D476398E700224417
:10A30C00B240014641016FF09FF6B2402244410138
:10A31C00828003D70500B14671173307D7029387A4
:10A32C0081E2BA97D84319EBD8412395A700014590
:10A33C00D8C303D725002394E70082805945828037
:10A34C00797122D4404526D24AD006D6AA842E89C9
:10A35C0025C0484419C59790FE1FE78060552326F9
:10A36C0004008357040083D5640003C584002315BF
:10A37C00F100835724000147930640062316F10091
:10A38C00835784004A862317F1001C483EC883D7A4
:10A39C0024002314F1003C00EFF03FD7A30E24015E
:10A3AC0023280400B25022549254025945618280F1
:10A3BC00280031468145EF605FCD83D7240083D5DB
:10A3CC00640003C584002314F10001473C0093068C
:10A3DC0040064A86EFF07FD3F1B7797152CC2A8AC6
:10A3EC0003D5050026D206D622D44AD04ECE56CA64
:10A3FC00AE84EFE07FF419E18547ADA84045AA890A
:10A40C0065DC83576500E39947FF835784006385B8
:10A41C0007128346C40103A7C1C19206FD173697E4
:10A42C00C20703576700C1832314F4006316F700B7
:10A43C0093053006EFF0DFD45C48A5EFC840034924
:10A44C0015008347050022093369F90083D72400DE
:10A45C0013072900631AF702F955EF60FF87C8C08C
:10A46C002391240103C589002686D285EFF05FC4B1
:10A47C00814721E1B250225492540259F249624A66
:10A48C00D24A3E85456182809565938515C04A8583
:10A49C009790FE1FE780C03848C8C840231C240191
:10A4AC00F955EF607F8383D72400C8C0F917239137
:10A4BC00F400484859C503D624008356A401835799
:10A4CC0084013308D60063C007090347C40183A77E
:10A4DC00C1C195451207BA9783D7270063CF0705EB
:10A4EC00CC4036959790FE1FE780E0470357A401B8
:10A4FC0083D72400BA97C20703578401C183231D55
:10A50C00F400E39BE7EE03D7290003C58900300074
:10A51C002314E1005848D2852315F1003AC6EFF018
:10A52C003FB911C548489790FE1FE7806038232A31
:10A53C000400232C0400C9B599454E85EFE03FF08B
:10A54C0065BDA545DDBF9145CDBF03D7250079CBB2
:10A55C0083D621C1ED4763E8E60C011122CC2E8491
:10A56C0026CAAA844840914506CEEF60EFF6835781
:10A57C002400AA862300F50083572400A183A3009E
:10A58C00F500835704002301F50083570400A183D1
:10A59C00A301F50003562400C167F9171106420602
:10A5AC0041826394F4042AC4314532C6EF606FFAD9
:10A5BC00AA85CD470DC5930700F92300F500324657
:10A5CC00F957A2462311F50089472302F5002313FE
:10A5DC00C50014C503C501C2EF60FF818147F2407D
:10A5EC006244D2443E850561828081452685EF30E8
:10A5FC00103EAA8701E903C761C175D37D17238B70
:10A60C00E1C0F1BF09476302E5021D476301E502A2
:10A61C0049476300E5027D47E313E5FC03C761C1CD
:10A62C008147E1BFED473E858280D1474DBF9147C1
:10A63C007DB789476DB701114AC831471309C5FF6A
:10A64C003307E90226CA938481E206CE22CCBA945F
:10A65C00D84039C7138481E283C661C1854795CA46
:10A66C002314A10083D7840003D5A4002C003AC680
:10A67C002315F100EFF07FED11C5C8409790FE1F38
:10A68C00E7800023B147B307F902A29723A2070082
:10A69C008547F2406244D24442493E85056182803E
:10A6AC008147C5BF797126D244454AD083D764000F
:10A6BC0003D921C152CC06D622D44ECE56CA2A8AF0
:10A6CC0063F327013E8903D7240142091359090179
:10A6DC0083D7040141CB998F4A8463D52701139406
:10A6EC000701418089452285EFF0EF8FAA89CD4A79
:10A6FC0025C183D724002AC6231581002314F10019
:10A70C0083D7240185E383D7040193092500230013
:10A71C00F50083D70401A183A300F500637624051B
:10A72C0003D4040183D72401CC4422864E85BE95E4
:10A73C009790FE1FE780202303556A002C00EFF052
:10A74C00DFE0AA8A15C54E859790FE1FE78040165C
:10A75C00B2502254568592540259F249624AD24A56
:10A76C004561828089078DBF7914420441805DBFA9
:10A77C0003D7240183D704003A94FD17C20742047F
:10A78C0003D70401C18341802390F40023998400F2
:10A79C006377E400D5FFFD57A38EF40055BF8145C8
:10A7AC005285EFF0FFB96DB779714AD052CC03CA1C
:10A7BC0061C222D456CA5AC85EC662C406D626D214
:10A7CC004ECE5284054B930BF00F83A7C1C093144C
:10A7DC004400BE9483C9040063996907DC44B5C77F
:10A7EC00D84725C703D7070029C783C761C189CFBD
:10A7FC002685EFF03FEBAA8505E983C751C1050417
:10A80C006351F402238381C2B25022544E85925478
:10A81C000259F249624AD24A424BB24B224C456130
:10A82C008280238301C2CDB72685EFF07FB18149A9
:10A83C00E1BF83C7D701639A77019305200626856C
:10A84C00EFF01F94DC44A38E070083C751C10504AD
:10A85C001374F40F6363F4000144E31844F7C1BFAD
:10A86C004111154506C6EFF01FDD09C50545B2407F
:10A87C00410182801945EFF01FDC6DF91145EFF0B5
:10A88C009FDB6DF51D45EFF01FDB6DF103C551C16D
:10A89C0079DDB24041016FF03FF183D705000D47E0
:10A8AC00F117C207C183636CF704DC41A9CB4111DA
:10A8BC0022C42E84854526C206C6AA84A12531C190
:10A8CC0026858D2BC167F917638FF40009ED83572B
:10A8DC00240091CB835604001947639AE60203D7F0
:10A8EC0021C163F6E70283C761C1594581CFA285B7
:10A8FC002244B2402685924441016FF01FC50945A0
:10A90C0082805145B24022449244410182806D457F
:10A91C00D5BF397126DA4ED6AA84AE895D458945F4
:10A92C004AD806DE22DC328936C63AC4EFE0BFEBE9
:10A93C0025C522472A84014511C7B2461305440098
:10A94C00B68502979357850023003401A300240198
:10A95C00A301F4009547231CF10083C761C12301B7
:10A96C00A4001105231DA10022CE2C08268595C319
:10A97C00EFF0BFBDAA8411C522859790FE1FE7801A
:10A98C0020F3F250625426854259D254B2592161B7
:10A99C008280EFF01F98F9BFCD44E5B7797126D2CC
:10A9AC004AD052CC56CA06D6BA8A22D44ECE1947B1
:10A9BC002E89B284368A639AE5060355260009442B
:10A9CC00EFE09F972AC635C95C458359650083D74C
:10A9DC0027002390F400B247154723805701239199
:10A9EC00E70003C711C11306F00F6312C706054732
:10A9FC00A388E1C02382E7005147631AE900154799
:10AA0C002391E40083D68400D8472314D70003C6CF
:10AA1C0047005287A686CA854E85EFF09FEF2A84A1
:10AA2C0032451DC8EFE01F9D09A842867400BE8503
:10AA3C00AA89EFE03F832A8459DD2285B250225443
:10AA4C0092540259F249624AD24A456182801306F5
:10AA5C001700A388C1C079BFF945EFE05FB4F1BF1F
:10AA6C0083D705002300F50083D70500A183A3003D
:10AA7C00F50083D725002301F50083D72500A1839A
:10AA8C00A301F5001145828083D705002300F50052
:10AA9C0083D70500A183A300F50083D725002301EC
:10AAAC00F50083D72500A183A301F50083D74500CA
:10AABC002302F50083D74500A183A302F50083D7B9
:10AACC0065002303F50083D76500A183A303F5007C
:10AADC002145828083D705002300F50083D705002C
:10AAEC00A183A300F5000945828083D705002300CC
:10AAFC00F50083D70500A183A300F50083D72500BB
:10AB0C002301F50083D72500A183A301F50083D78A
:10AB1C0045002302F50083D74500A183A302F5006D
:10AB2C0083D765002303F50083D76500A183A303B6
:10AB3C00F50083D785002304F50083D78500A18316
:10AB4C00A304F5002945828003D705008546AA8712
:10AB5C002300E50003D705002183A300E50003D7FC
:10AB6C000500631DD70003D725002301E50003D79B
:10AB7C0025002183A301E500114582800945631559
:10AB8C00A70203D7250019452381E70003D7250029
:10AB9C002183A381E70003D745002382E70003D775
:10ABAC0045002183A382E700828083D70500230020
:10ABBC00F50083D70500A183A300F50083D72500FA
:10ABCC002301F50083D72500A183A301F5001145CE
:10ABDC008280797126D24AD04ECEB2842A89AE892F
:10ABEC0029468145480022D406D63684EF60EFC949
:10ABFC00231691008DE8835724002312F10083D78C
:10AC0C0021C12314F1005C4499CF83C6C70103A76B
:10AC1C00C1C1920683D787003697035727002315A7
:10AC2C00F1002313E10037B701004A85130767AF22
:10AC3C00540013F6F90FD545EFF0BFCD2A8911C199
:10AC4C009DE085472300F400230204000146814562
:10AC5C002285EFF04FDCB25022544A8592540259AF
:10AC6C00F249456182802285EFE0CFF8EDB737B726
:10AC7C000100B286130747B52E8685456FF07FC954
:10AC8C0001112317A100B7B60100416570000148FE
:10AC9C009307F00F0D479386C6A699457D1506CEF2
:10ACAC00EFF0DFCFF24005618280B7B60100B287CA
:10ACBC0001482E861147938646A9C9456FF01FCED1
:10ACCC0037B70100B286130707AE2E86CD456FF05D
:10ACDC005FC4011122CC138481E626CA4AC84EC631
:10ACEC0006CE2A89AE89930404031C4081C7CE8505
:10ACFC004A8582971104E31A94FEF2406244D244CE
:10AD0C004249B2490561828003C541D2411122C436
:10AD1C00937735000981AA971384C1C206C6230014
:10AD2C00F4008DCF1305C0033385A702A5658505F7
:10AD3C009790FE1FE780C0AE0347040023A4A1C276
:10AD4C00FD560905814763CFE700938781E613879A
:10AD5C00070323A007009107E39DE7FEB2402244BE
:10AD6C00410182802310D500230105002325050213
:10AD7C0085071305C503C1BF03C6C1C203A781C2A2
:10AD8C0081476315F600814636858280BA861307A3
:10AD9C00C703835567FCE389A5FE850793F7F70F77
:10ADAC00CDB7011122CC2EC632C406CE2A84EFF0C8
:10ADBC00BFFC2246B24511E9C167F9176303F400E1
:10ADCC005145F240624405618280545583474500E9
:10ADDC0095C213F7270141456314A700154575F279
:10ADEC00C18B3D45F9DF83C7A6010145E3FBB7FCE9
:10ADFC003145C1BFC18B0145E9F71545D9B783C5AD
:10AE0C00C1C2C16603A781C2FD1681476395F500D7
:10AE1C00014632858280035827003A866306D800A3
:10AE2C0003480700E307A8FE850793F7F70F1307FE
:10AE3C00C703E9BF411106C6EFF01FF411C5035556
:10AE4C004501B240410182800145E5BF83C6C1C2C4
:10AE5C0003A781C20145814711076393F6008280E5
:10AE6C000346070001C605051375F50F850793F713
:10AE7C00F70F1307C703D5B703C5C1C282809386EA
:10AE8C0081E68147138781E631468C4291E58A073A
:10AE9C00BA9788C30145828085079106E397C7FE60
:10AEAC004D458280411106C622C4EFF0FFEC0DCD5A
:10AEBC002A84035525008545EFF0BFE1485409C5A8
:10AECC009790FE1FE780C09E22851306C003814524
:10AEDC00EF60AF9BFD572311F400230204000145E2
:10AEEC00B2402244410182800945DDBF411106C6B2
:10AEFC00EFF09FE811C50345C500B24041018280C7
:10AF0C000145E5BFC167F9176304F502411122C47D
:10AF1C0006C62E84EFF05FE6AA87014591C703C5EC
:10AF2C004700698C33358000B24022444101828055
:10AF3C0005458280011106CE2EC6EFF0FFE3854752
:10AF4C0011C903574501B24585476305B700231A5C
:10AF5C00B5008147F2403E850561828021C901110F
:10AF6C004AC8416922CC26CA4EC652C456C206CE25
:10AF7C000144AA84930AC0037D1983C7C1C2634BE1
:10AF8C00F400F2406244D2444249B249224A924A05
:10AF9C00056182803305540383A781C23E95835794
:10AFAC0025006383270182940504C1BF828003C6F8
:10AFBC00C1C283A781C2C166014589070147FD163D
:10AFCC0091456313E600828003D807006309D8001B
:10AFDC0003C8A7006315B80005051375F50F050721
:10AFEC001377F70F9387C703E9BF03C6C1C283A6C4
:10AFFC0081C20147814791066310E602858393C79E
:10B00C00F7FFC207C18305456364E50285473395A5
:10B01C00A70042054181828083C5060081C583D586
:10B02C00C602CD8F05071377F70F9386C603E9B7D2
:10B03C0093F61700E1FE050585831375F50FE9B747
:10B04C00797156CAAA8A2E8526D24AD04ECE52CCB7
:10B05C005AC85EC662C406D622D4AE84328B368CF5
:10B06C00BA8B3E8AC2894689EFF01FD149E141650E
:10B07C007D15EFF07FD02A84554531CC1946DE85FD
:10B08C0013056400A30284019790FE1FE780A08D36
:10B09C008357010323119400230264012319F40044
:10B0AC00835741032300540123260402231AF4007E
:10B0BC00230644012317340123182401EFF0FFF277
:10B0CC002318A402232A04022685232C040281457A
:10B0DC00EFF03FC00145B250225492540259F2494C
:10B0EC00624AD24A424BB24B224C45618280454562
:10B0FC00DDB783C6C1C203A781C281476395F60041
:10B10C0041657D1582803A861307C703835547FF37
:10B11C006395A500035526008280850793F7F70FEA
:10B12C00F1BF03C8C1C2416603A781C27D16814726
:10B13C0085482D43314E6314F800014582808356B7
:10B14C0027003A856382C602545B99CE83C50600FC
:10B15C006397150183C616006378DE00828089E54B
:10B16C0083C61600E37CD3FC850793F7F70F130710
:10B17C00C703D1B783C5C1C2416603A781C27D167F
:10B18C00814725486394F50001458280835627004A
:10B19C003A85638BC600545B81CA83C61600E516DC
:10B1AC0093F6F60FE373D8FE850793F7F70F1307A3
:10B1BC00C703C9BF894791C909C995472380F500C1
:10B1CC0083470500A380F50081473E858280397155
:10B1DC004ED652D4AE892A8A93053005414526DADB
:10B1EC004AD856D206DE22DC32C63689BA8A978015
:10B1FC00FE1FE780E062CD4421C92A848944638024
:10B20C00090432468145231AC1004146EF50FFE73D
:10B21C005686CE8522859780FE1FE780C074214616
:10B22C00630E0902CA8528089780FE1FE780A07369
:10B23C00A28650082C085285EF207076AA842285AD
:10B24C009780FE1FE780C066F250625426854259F3
:10B25C00D254B259225A925A2161828081452808CF
:10B26C00EF50BFE2F1B789478DC505C5411106C640
:10B27C00AE871947AA852380E7001385170041463E
:10B28C009780FE1FE780206EB24081473E854101CA
:10B29C0082803E858280894795C90DC9411106C6B9
:10B2AC0025472380E50003470500AE871946A38098
:10B2BC00E50093051500138527009780FE1FE78096
:10B2CC00806AB24081473E85410182803E85828002
:10B2DC0089478DC505C5411106C6AE872147AA858C
:10B2EC002380E7001385170041469780FE1FE780F7
:10B2FC008067B24081473E85410182803E858280D5
:10B30C0089479DCD15CD411106C61D472380E5000B
:10B31C0003570500AE872146A380E50003570500BF
:10B32C0021832381E5009305250013853700978041
:10B33C00FE1FE7804063B24081473E854101828019
:10B34C003E85828089478DC505C5411106C6AE87ED
:10B35C000D47AA852380E700138517004146978087
:10B36C00FE1FE7804060B24081473E8541018280EC
:10B37C003E85828089478DC505C5411106C6AE87BD
:10B38C001147AA852380E700138517004146978053
:10B39C00FE1FE780405DB24081473E8541018280BF
:10B3AC003E85828089478DC505C5411106C6AE878D
:10B3BC002947AA852380E70013851700414697800B
:10B3CC00FE1FE780405AB24081473E854101828092
:10B3DC003E85828023A801C223AA01C223AC01C2EC
:10B3EC0037D70100938741AF1307679398C337C7CB
:10B3FC0001001307E785D8C337B701001307A71D52
:10B40C0098C737D70100938701B01307470798C334
:10B41C0037C70100130707A2D8C337C701001307AA
:10B42C00272098C78280C14709CD144DC14791CAC6
:10B43C00784D01CB83C73600BD4663F4F6008347D5
:10B44C0087013E858280411122C426C2938401C3A8
:10B45C004AC02A89884006C649C5138401C3631EA5
:10B46C000900834705002146B1CB29059780FE1FB3
:10B47C00E780604F1C400545B9CF4945EF507F8DA3
:10B48C00AA840DC5930710FC2300F500A300250129
:10B49C000C400905414689059780FE1FE780A04CAA
:10B4AC001C40A68503C51700EF50FF9408409780F9
:10B4BC00FE1FE780E03F2320040029A809059780A0
:10B4CC00FE1FE780404AEF20504D054945F59C4052
:10B4DC00238027010545B240224492440249410190
:10B4EC0082800145CDBF1C4D639F0716411122C4BC
:10B4FC0026C22A84AE8441459305300506C6978042
:10B50C00FE1FE780E03108CCCD4763040510A6850B
:10B51C0041469780FE1FE780004583450400F9ED06
:10B52C007C4C184CD04B5443058A858A6307D60053
:10B53C0083D64701F99A239AD700D04B54430582FE
:10B54C008582058A858A6307D60083D64701F59ADA
:10B55C00239AD700D04B544309828982058A858A65
:10B56C006307D60083D64701ED9A239AD700D04BB8
:10B57C0054430D828D82058A858A6307D60083D653
:10B58C004701DD9A239AD700D04B54432182A182E4
:10B59C00058A858A6308D60083D6470193F6F6EFB1
:10B5AC00239AD700D04B54432582A582058A858ADD
:10B5BC006308D60083D6470193F6F6DF239AD700AB
:10B5CC00D04B54432982A982058A858A6308D60008
:10B5DC0083D6470193F6F6BF239AD700D44B584332
:10B5EC00AD822D83858A058B638AE60003D74701DC
:10B5FC00FD769386F67F758F239AE70003C71400B8
:10B60C007C4C11CF03C7170019CB9547A301F4004D
:10B61C008147B240224492443E854101828003C757
:10B62C002400118B19E703C72701118B19E38547F8
:10B63C00F1BF03C7070083C6040081C5B687BA866D
:10B64C003E871146E147E366E6FCE364D6FC95478A
:10B65C003307F702B7E702009387C7A3BA97B697E9
:10B66C0083C7070065B7C5473E858280AE8715C581
:10B67C00784D05C7834607002380D5008346170005
:10B68C00A380D500834627012381D50083468701FB
:10B69C00584BA381D500D8C18280414681453E8557
:10B6AC006F50BF9E83A741C391C703A38700630359
:10B6BC000300028309458280011122CC2A8449456A
:10B6CC0006CEEF705FE005C12AC62285EFF0CFEA07
:10B6DC0019C96244324683550503F24003C521C49F
:10B6EC0005616F501FB6F24062440561828079712A
:10B6FC0026D29947231DB100AA842E858D4522D4CC
:10B70C0006D632C636C4231CF100EFE0CF8D2ACE0C
:10B71C004D441DC13246A246AA85328582962A84A2
:10B72C0019E52C082685EFF04F972A8411C5724530
:10B73C009780FE1FE780C0172685EFF0FFF7228564
:10B74C00B2502254925445618280011122CC93054F
:10B75C00C5012A8441460A8506CE9780FE1FE780E4
:10B76C00802003554400B7B601000A86938606353F
:10B77C00C545EFF0DFF7F2406244056182800111AC
:10B78C0022CC9305C5022A8441460A8506CE9780B1
:10B79C00FE1FE780401D03554400B7B601000A8622
:10B7AC0093860638C545EFF09FF4F240624405617C
:10B7BC008280B7B601002E8693862627C5456FF08A
:10B7CC001FF30111B28722CC2300B1002A84BE855D
:10B7DC0013051100194606CE9780FE1FE780A018AE
:10B7EC00B7B601000A8622859386262AA145EFF07A
:10B7FC001FF0F240624405618280B7B601002E86CC
:10B80C009386C62DC5456FF09FEE0111B28722CCF1
:10B81C002310B1002A84BE8513052100214606CED3
:10B82C009780FE1FE7802014B7B601000A86228598
:10B83C009386C630AD45EFF09FEBF2406244056154
:10B84C008280B7B601002E869386063BC5456FF005
:10B85C001FEA011106CE22CC26CA83440500854777
:10B86C00639BF4048347150019472A84639AE70401
:10B87C001C4D83D7470013F7071019C7784D035792
:10B88C0047011377071021E313F7072001CB784CFE
:10B89C0003574701137707206315071093F70740E9
:10B8AC0081CB7C4C83D7470193F70740639C0714EB
:10B8BC00C947A300F400F2406244D244056182807F
:10B8CC0031476392E70A3C5091EF9305300571457F
:10B8DC009780FE1FE780C0F428D009C571468145CA
:10B8EC00EF50AFFA2450A9C883C7A40191E7228571
:10B8FC00EFF07FB3238DA400814526854146EF50A0
:10B90C00CFF828503D478345A5019387F5FF93F762
:10B91C00F70F6364F700EF700F93EF50CFDC3C50E0
:10B92C00A1452398A70013852701EF70CF912C50C8
:10B93C0003554400EFF0FFE7B54703554400A3005F
:10B94C00F400EFF06FC3414611C58357E50013D6E1
:10B95C0017003E966244F240D24403C521C485458B
:10B96C0005616F501F8E3547639AE7023C5189CBB6
:10B97C0083D507010355450013862701EFF0FFE837
:10B98C001C4C83D7470013F7072039CB784C03574F
:10B99C0047011377072029C7B94745B73947639B38
:10B9AC00E700EF70CFB7AA8503554400EFF0FFE432
:10B9BC00BD4761B73D476394E704EF70EFB5AA85C7
:10B9CC00630D9502814526852EC6EF702FB32A860E
:10B9DC00B24503554400EFF0DFDE1C4C83D7470023
:10B9EC0093F70740E38607EC7C4C83D7470193F72A
:10B9FC000740E38F07EAC14789B78144E9B741475C
:10BA0C00E398E7EAEF700FB2AA8503554400EFF014
:10BA1C005FE379BD797106D622D426D28344050022
:10BA2C00A5E48347150019472A846394E7067C4DE7
:10BA3C0083D7470113F7170011C7184D0357470059
:10BA4C00058B39EB13F7270019C7184C0357470020
:10BA5C00098B631B0712918B99C71C4C83D747002A
:10BA6C00918B639207187C4C83D7470113F707100F
:10BA7C0063030718184C0357470013770710630C20
:10BA8C000716B147A300F400B250225492544561FA
:10BA9C0082801D47639DE70A3C5089EB9305300576
:10BAAC0071459780FE1FE780A0D728D02450ADC8E1
:10BABC002285EFF05F97238DA400814526854146B2
:10BACC00EF50AFDC28503D478345A5019387F5FF28
:10BADC0093F7F70F6367F70283C781CAB5C741466F
:10BAEC0081450808EF506FDA19469385C1DC0808C8
:10BAFC009780FE1FE78020E730500C082E85EFA0C2
:10BB0C00C04CEF504FBE3C50A1452398A700138565
:10BB1C002701EF605FF32C5003554400EFF07FC911
:10BB2C00A14703554400A300F400EFF0EFA44146F5
:10BB3C0011C58357E50013D617003E9603C521C4E3
:10BB4C008545EF500FF089B7EF60FFEF5DBF2147E0
:10BB5C006399E7023C5189CB83D507010355450016
:10BB6C0013862701EFF07FCA7C4C83D7470113F76C
:10BB7C00270021CF184C03574700098B39C7A5471D
:10BB8C004DB72547639BE700EF706F99AA85035566
:10BB9C004400EFF09FC6A94769B729476392E704B1
:10BBAC00EF708F978547AA856304F500814585441E
:10BBBC0026852EC6EF708F942A86B2450355440015
:10BBCC00EFF03FC07C4C83D74701918BE38D07E8A6
:10BBDC001C4C83D74700918BE38707E8AD4791B79F
:10BBEC002D47E392E7E8EF70EF93AA8503554400E5
:10BBFC00EFF03FC58DBD13F7072009CB184C035749
:10BC0C0047001377072019C3B947ADBD93F7074019
:10BC1C0089CB1C4C83D7470093F7074099C3C14786
:10BC2C0095B5C94785B515CD01118A8522CC06CEAF
:10BC3C002A84EFF0BFA3834704000355440089CF47
:10BC4C00B7C601009386E6730A869D45EFF03FAABE
:10BC5C00F240624405618280B7C601009386867407
:10BC6C00E5B705458280AA8503C521C46F500FF343
:10BC7C00411122C4405926C206C6AA8431C4084CBC
:10BC8C0009C59780FE1FE780A0C2285009C5978080
:10BC9C00FE1FE780E0C1685009C59780FE1FE78052
:10BCAC0020C1285409C59780FE1FE78060C06854E6
:10BCBC0009C59780FE1FE780A0BF22859780FE1FD5
:10BCCC00E78000BF23AA0402224403D50403B24038
:10BCDC00924441016FF03FF9411126C206C622C4BD
:10BCEC00AE84EFF06F8931C14C592A849DCD83A865
:10BCFC00C50603A88506FC51B85183C6650003D65A
:10BD0C00450083C505002685EF705F832285EFF023
:10BD1C003FF6EFF02FC611C92244B240924403C53E
:10BD2C0021C4854541016F50AFC2B24022449244B8
:10BD3C0041018280411122C4405926C206C67C4C66
:10BD4C00AA8483D7470113F7071019C7184C035758
:10BD5C004700137707101DE313F7072019C7184C7A
:10BD6C00035747001377072011EB93F707409DCB40
:10BD7C001C4C83D7470093F707408DC79947A30006
:10BD8C00F4002285EFF0FFAC03471400C947631F92
:10BD9C00F700224403D52400B2409244814541016E
:10BDAC006FF09FF3C947A300F400E5B7B2402244FB
:10BDBC00924441018280411106C622C426C2EFF092
:10BDCC004FB61DCD4059AA8405CC8347040095C7B6
:10BDDC0083A741C389C7DC4399C322858297034754
:10BDEC001400C947631EF700224403D52400B24057
:10BDFC009244814541016FF03FEE83A781C3D9BFC7
:10BE0C00B2402244924441018280411126C24AC070
:10BE1C0006C622C4AA842E89EFE01FF60DCD405928
:10BE2C0055C083574400639F9708834714001947F4
:10BE3C006391E70883470400B5CB7C4C83D747015B
:10BE4C0013F7170005C3184C03574700058B19CB84
:10BE5C009D47A300F400B240224492440249054598
:10BE6C004101828013F7270001CB184C0357470080
:10BE7C00098B19C3A547F1BF918B81CB1C4C83D780
:10BE8C004700918B99C3AD47E9B783A741C3E1D76D
:10BE9C00DC43F1D32285829703471400C9478145BF
:10BEAC00E31BF7FA2685EFF03FE375B783A781C351
:10BEBC00F9BF45476398E7006304090013092003A1
:10BECC00CA85CDB7631C09002685EFE0FFEA19C5CA
:10BEDC008347450093E707012302F500A6854A85B1
:10BEEC00EF704F878DBF4111B7B6010022C42E866B
:10BEFC002E849386061C894506C626C24AC02A890A
:10BF0C00EFF0EFFE83450400AA844A85EFF0DFDCF6
:10BF1C00B24022442685024992444101828083A783
:10BF2C0081C395CB9C4385CB797122D406D698419D
:10BF3C0010082A843AC8D84185453ACA829701C963
:10BF4C002306A100035524006C00EFF0DFF9B2507A
:10BF5C002254456182808280011122CC06CE2A8433
:10BF6C002EC6EFE07FE15C5991CF83D74700B245F5
:10BF7C00639A870085476397F5006244F240056138
:10BF8C006FF01FCFF240624405618280411106C6FA
:10BF9C00EFF02F96C167FD176307F500B240DD4542
:10BFAC0041016FF07FD3B240410182802300B50084
:10BFBC00828001114AC84EC62E89AA899305300584
:10BFCC001305000326CA06CE22CCB2849780FE1F2E
:10BFDC00E780008521CD1306000381452A84EF50AC
:10BFEC00CF8A4146CE852285EF508F920D46CA8569
:10BFFC001305D401EF50CF911306040293050401ED
:10C00C002285EF90907C0D469305D4022685EF5047
:10C01C002F9022859780FE1FE78080890145F24092
:10C02C006244D2444249B249056182804D45C5BF44
:10C03C0081474146B306F5003387F50003470700F7
:10C04C0003C806008507334707012380E600E39306
:10C05C00C7FE82805D714EDE62D4AE892A8C930558
:10C06C00300513050003A6C2CAC052DC56DA5AD8F2
:10C07C005ED686C6A2C4B28B368BBA84BE8A42897F
:10C08C00468A9770FE1FE780A0796301050E1306A0
:10C09C00000381452A84EF405FFF4146E2852285FB
:10C0AC00EF500F87414681450A85EF401FFE1D4624
:10C0BC00DE850A85EF50CF851D46DA8513057100A4
:10C0CC00EF500F8533392001B33490004146814540
:10C0DC00080823072101A3079100EF401FFB194615
:10C0EC00D6854808EF50CF821946D2851305A10199
:10C0FC00EF500F82930404014146CE852685EF5004
:10C10C002F818A852685EFF0BFF2930904024E86B3
:10C11C00A6852285EF90706B2A891DE54146CE8558
:10C12C0026859780FE1FE78000840C082685EFF09B
:10C13C003FF04E86A6852285EF9030692A894645C8
:10C14C004146CE85EF40DFFC22859770FE1FE780CD
:10C15C002076B64026444A8596440649F259625ADE
:10C16C00D25A425BB25B225C616182804D49D5B789
:10C17C00011126CA52C4AA842E8A13050003930502
:10C18C0030054AC84EC606CE22CC3289B689977085
:10C19C00FE1FE780E06831CD2A84A6854146EF403A
:10C1AC003FF7930404012146D2852685EF405FF6C4
:10C1BC00CA85214613058401EF409FF5130904023B
:10C1CC00A6854A862285EF905060AA844146CA858E
:10C1DC004E85EF40FFF322859770FE1FE780406D80
:10C1EC00F240624426854249D244B249224A056152
:10C1FC008280CD44F5B75D71A2C4A6C24EDE52DC7E
:10C20C0086C6CAC0AE89328AAA84EFE0FFB640590E
:10C21C00414681450A85EF405FE759C00359440008
:10C22C006310990883470400A5EF0347140099474E
:10C23C00631CF70214081306C4049305C402130507
:10C24C007400EFF0FFF229ED2285EFF0CF9D2A86E6
:10C25C000C080A859770FE1FE780E0708A854A8576
:10C26C00EF10F074054569A82C509DC9C54683D7BD
:10C27C000501631FD7086310FA022146C9054E85D4
:10C28C00EF40DFE685476318F5002285EFF0AF99A4
:10C29C002A862C507DBF930520032685EFF0DFA363
:10C2AC002685EFE07FAD2A8449C54C55D9C183D78B
:10C2BC000501639047092146C9054E85EF401FE3F0
:10C2CC0085472A896317F5064C540A8503C6A501D0
:10C2DC009770FE1FE780206983C751B491C75C54E7
:10C2EC0083C7B70163942705BD452685EF1070649D
:10C2FC0083A781D3014589C71D458945829701458F
:10C30C00B640264496440649F259625A61618280CD
:10C31C00E318FAF82146C9054E85EF403FDD854705
:10C32C00E310F5F82C5003C6A50125B78A852685A0
:10C33C0005BF03C7B1C98947138481D0631DF700BA
:10C34C00BD452685EF10F05E1C589145E38C07F037
:10C35C001D45829701BF83C781CA9DCB414681454C
:10C36C000810EF409FD219469385C1DC08109770D6
:10C37C00FE1FE780405F0C100A862E85EF90F0447C
:10C38C008A852685EF10B0621C588D45F1F3D9BD16
:10C39C002685EF1010621C58E38607EC85454DBFCF
:10C3AC008147C1463307F500B388F5000347070002
:10C3BC0083C808003308F6008507334717012300AC
:10C3CC00E800E391D7FE82800147BD471308F00FC8
:10C3DC003306F50083460600B388F500FD17860684
:10C3EC00558F2380E8000347060093F7F70F1D8352
:10C3FC00E39007FF82808147930800F8414893F649
:10C40C00F70F3387F50063FCC600B306F50083C64F
:10C41C0006002300D7008507E39307FF828063950E
:10C42C00C60023001701C5BF23000700EDB701119B
:10C43C004AC856C22E89AA8A93053005414506CEB4
:10C44C0022CC26CA4EC652C4328A9770FE1FE78091
:10C45C00203DAA849305300541459770FE1FE78067
:10C46C00203C2A84CD49B5C021CD41468145EF40C1
:10C47C00DFC12686A2855685EF903035AA8929E141
:10C48C008387040063D30706A2852685EFF0DFF3CC
:10C49C00B7E502004A86938585A52285EFF05FF00B
:10C4AC008307090063D80704A2854A85EFF0DFF102
:10C4BC00B7E502005286938585A52285EFF05FEEE5
:10C4CC0026859770FE1FE780A03E11C422859770C9
:10C4DC00FE1FE780E03DF24062444E85D244424963
:10C4EC00B249224A924A05618280CA852685EFF0BC
:10C4FC00BFED7DB7D2854A85EFF01FEDD1B739710D
:10C50C005AD05ECE2A8BAE8B41459305300506DEA4
:10C51C0026DA52D456D262CC66CA6AC8368C328DB0
:10C52C00BA8C22DC4AD84ED69770FE1FE780402F7B
:10C53C00AA8A9305300541459770FE1FE780402E6F
:10C54C002A8ACD44638C0A0849C52A86D6855A8521
:10C55C00EFF0FFEDAA8435ED93053005414597705A
:10C56C00FE1FE780E02B2A89930530054145977023
:10C57C00FE1FE780E02AAA896308090E6304050EF2
:10C58C001304FD0011841376FD003DCC7D14420490
:10C59C00418025EE131544004E86D6855E95EFF04E
:10C5AC003FE0414681454A85EF403FAE014D931730
:10C5BC000D01C18363F48708BDC04A859770FE1FC7
:10C5CC00E780002F638709004E859770FE1FE78078
:10C5DC00202E56859770FE1FE780802D63070A007A
:10C5EC0052859770FE1FE780A02CF250625426856E
:10C5FC004259D254B259225A925A025BF24B624CB3
:10C60C00D24C424D216182800144131544008A852D
:10C61C005E95EFF05FDE4E86D2850A8549B793159D
:10C62C004D000A86DE954A85EFF09FD74A868A85AB
:10C63C005A85EF909019AA84050D95BFBDFC0A860A
:10C64C00CE854A85EFF0DFD54A868A855A85EF90EC
:10C65C00D017AA846686CA8562859770FE1FE7800C
:10C66C008030A1BFCD4491BFCD44A9BF894761C2E1
:10C67C00DDCD2300A60083C70500A300F60083C709
:10C68C0015002301F60083C72500A301F60083C71C
:10C69C003500A30206002302F60083D74500A183D0
:10C6AC00858BA302F60003D745001377072009C733
:10C6BC0093E72700A302F60083D7450093F70740C2
:10C6CC0099C78347560093E74700A302F60083D728
:10C6DC00450013974701635807008347560093E7BB
:10C6EC008700A302F6002303060083C74500858B51
:10C6FC002303F60003D74500098B09C793E72700EE
:10C70C002303F60083D74500918B99C783476600B6
:10C71C0093E747002303F60003D745008147218B9D
:10C72C0019C703476600136787002303E6003E859D
:10C73C0082802E86AA8505456FF05FF32E86AA852A
:10C74C0009456FF0BFF24DC95971A2D42A84035523
:10C75C004500A6D2CAD0CECED6CA86D6D2CCDAC89E
:10C76C00DEC6B68AB2892E89EFE00FE1AA8439C5FC
:10C77C000C182285EFE09FEF83470400138A6400B6
:10C78C00A9CBEF606FD92A8B014583CB5400EF60A6
:10C79C00EFD6AA840C100818EFF0BFF9084C2C1037
:10C7AC00EFF0DFF9D288268A56C05E88D2875A8786
:10C7BC0014103010CE854A85EFF0DF89B650265420
:10C7CC0096540659F649664AD64A464BB64B6561AD
:10C7DC008280EF606FD4AA8B014503CB5400EF60CD
:10C7EC00EFD12ACE084C0C10EFF0BFF42C10081827
:10C7FC00EFF0DFF4F2484DBF8280894791C909C937
:10C80C00AD472380F50083470500A380F5008147E1
:10C81C003E858280011122CC4AC806CE26CA2A84C3
:10C82C00EFE07FCC2A8901CDE147630EF50E21495B
:10C83C00F24062444A85D2444249056182807C4C74
:10C84C0083C72701858B91CF1C4C054783C72700D5
:10C85C008D8B6398E7008347640093E717002303ED
:10C86C00F4008344340089476391F4020355440077
:10C87C008545EF603FE58347640093E7470023035A
:10C88C00F4008D47A300F40065B70D476390E402F4
:10C89C00035544008945EF60FFE283476400A30021
:10C8AC00940093E747002303F40059B71147E38F33
:10C8BC00E4FA0547639EE40293047400A300F400B9
:10C8CC00414681452685EF404FFC1306C402328554
:10C8DC00C14532C6EF602F97324622859306C401BC
:10C8EC00A685EFF05FE62285EFE03FE631D181B718
:10C8FC001547E39FE4F293047400A300F40041464F
:10C90C0081452685EF406FF86C4C4146268589059C
:10C91C009770FE1FE78020058347640093E747006C
:10C92C002303F4005DB70D4921B7397122DC40595E
:10C93C0026DA4AD84ED606DEAA89AE843289630638
:10C94C0004200355250083574400638BA700A144A2
:10C95C00F250625426854259D254B25921618280D8
:10C96C008347040099E39D44E5B7AD47E3EDB7FE7B
:10C97C009387E5FF93F7F70F2547E366F7FE37E755
:10C98C0002008A071307079CBA979C438287B285DB
:10C99C002285EFF03FE8AA8465BF4146CA8513059E
:10C9AC00C4039770FE1FE78000FC2285EFE03FDD9B
:10C9BC00AA8411C1A1449547A300F40051BF930967
:10C9CC00C404CA8541464E859770FE1FE780A0F9C6
:10C9DC001309740014084E86CA852285EFF0BFD661
:10C9EC0041469305C4030808EF404FF08547E31117
:10C9FC00F5F68A861306C402CE854A85EFF04FF70A
:10CA0C0011ED2285EFE03FA22A87035544008146B1
:10CA1C0001468A85EFE0AFFBAA8411C1A144994776
:10CA2C0061BF034714009D47E31FF7F27C5089EB6D
:10CA3C009305300571459770FE1FE78060DE68D066
:10CA4C00685015D14146CA859770FE1FE780A0F14A
:10CA5C002285EFE05F9D7C50238DA700A147A300AA
:10CA6C00F4008144F5B56850E30F05EE034714005C
:10CA7C00A147E31AF7EE83570600930529002146D8
:10CA8C002318F50049059770FE1FE780C0ED7C4C1C
:10CA9C0083D7470113F727002DC3184C03574700C2
:10CAAC00098B21CFA54765BF03471400A547E31C9D
:10CABC00F7EA3C5481EB854559459770FE1FE7809A
:10CACC0020D628D4285419C54146CA859770FE1F14
:10CADC00E78060E9A94761B703471400A947E3144D
:10CAEC00F7E8285419469305190041059770FE1F65
:10CAFC00E78060E77C4C83D74701918B95CF1C4C2A
:10CB0C0083D74700918B8DCBAD4791BF7C5489EB7C
:10CB1C009305300551459770FE1FE78060D068D4AF
:10CB2C006854E30605E24146CA859770FE1FE7800C
:10CB3C0080E37C547D5798CB4E85EFF0AF9F15B7B3
:10CB4C0083450600EFF04F9929BFAD47E39BF5F005
:10CB5C008346060083552500130665000345050032
:10CB6C00EF60EFCEFDBD15C1AA8709458DC14111FE
:10CB7C002E8541469385170006C69770FE1FE780E9
:10CB8C0080DEB2400145410182800945828082806D
:10CB9C0089471DC595C5411106C603471500AE87CB
:10CBAC0019462380E500930525001385170097701F
:10CBBC00FE1FE78040DBB24081473E854101828009
:10CBCC003E85828015C1AA8709458DC141112E85EC
:10CBDC0041469385170006C69770FE1FE780A0D8C4
:10CBEC00B24001454101828009458280828089479B
:10CBFC001DC995C9411106C603472500834615007A
:10CC0C00AE872207558F2390E5002146930535000A
:10CC1C00138527009770FE1FE780E0D4B240814750
:10CC2C003E85410182803E85828015C1AA870945D7
:10CC3C008DC141112E8541469385170006C697700C
:10CC4C00FE1FE78040D2B240014541018280094578
:10CC5C0082808280094711CD89CD83471500A1467A
:10CC6C0001472380F500FD1793F7F70F63F3F600E8
:10CC7C0061473A85828015C1AA8709458DC141114A
:10CC8C002E8541469385170006C69770FE1FE780D8
:10CC9C0080CDB2400145410182800945828082806D
:10CCAC0089476309051063870510411106C622C424
:10CCBC0026C2834715002E842380F5008347250068
:10CCCC00A380F500834735002381F5008347450099
:10CCDC00A381F50083475500858B9396870083D7F6
:10CCEC00450093F7F7EFD58F2392F5008346550057
:10CCFC0093F7F7DFA20693F60620DD8E2392D5007C
:10CD0C000347550093F6F6BF220713770740558F5C
:10CD1C002392E50083475500FD769386F67F8D833D
:10CD2C00858B758FAE07D98F2392F50083466500EE
:10CD3C00F99B858ADD8E2392D50003476500937796
:10CD4C00270013F7D6FF5D8F2392E500834765001C
:10CD5C0093F647009377B7FFD58F2392F5000347DF
:10CD6C006500DD9B4D45218BD98F2392F500EF603B
:10CD7C008FF5AA845145EF600FF50347340093F407
:10CD8C00F40F1375F50FC94763609702636EE500E6
:10CD9C00834604001147E1476368D70083461400BB
:10CDAC0005476363D7008147B240224492443E85D5
:10CDBC00410182803E85828015C1AA8709458DC1BB
:10CDCC0041112E8541469385170006C69770FE1FAC
:10CDDC00E78060B9B24001454101828009458280FB
:10CDEC008280797122D42A84084506D626D223065D
:10CDFC0001008344050029479387F4FF93F7F70F4D
:10CE0C006360F70C37E702008A071307879EBA970F
:10CE1C009C4382870C08EFF0BFE8C9476312F50208
:10CE2C0099472306F100035524006C00EFF0AF8BFB
:10CE3C00B25022549254456182800C08EFF0FFDE10
:10CE4C0029C98347C100E5F303552400EFE0DF86D1
:10CE5C00C5B70C08EFF03FE2E5B70C08EFF09FDF29
:10CE6C00C5B70C08EFF03FD0E1BF0C08EFF03FD88E
:10CE7C00C1BF0C08EFF01FD5E1B70C08EFF05FD184
:10CE8C00C1B70C08EFF05FF365BF834715002308AB
:10CE9C00F10003552400EFD03FEEA14719CD034715
:10CEAC00C5006311F70203A741C39D4719C7184377
:10CEBC0009C71008A6850297AA872306F10051B767
:10CECC009D4785B703A781C3CDB7411122C406C6C0
:10CEDC0003470500930720092A84631CF70883473E
:10CEEC00150039476393E7028356450009676107CC
:10CEFC008147639DE6021C452244B24003C50700EE
:10CF0C009385170041016FE00FD41307E003639082
:10CF1C00E7080347250095476310F70403554500C0
:10CF2C00EFD0DFFC91476308F5008547B2402244FF
:10CF3C003E854101828083A781C3E5DB03A3870083
:10CF4C00E30503FE0356E400035544009305640017
:10CF5C002244B24041010283A1468147E318D7FC29
:10CF6C00224483456500B2400355450041016FE002
:10CF7C00DFE99306000A8147E31AD7FAEFF07FE660
:10CF8C00084445D59770FE1FE780809279BF814792
:10CF9C0071BF411122C426C206C62A84EFE0AFD469
:10CFAC00AA8419C9E147630FF50AA144B24022448F
:10CFBC0026859244410182802285EFE0DFC66C4CCD
:10CFCC0083C72501858B91CF1C4C054783C7270050
:10CFDC008D8B6398E7008347640093E71700230366
:10CFEC00F4008347340009476391E70289450355F0
:10CFFC004400EF602FED8347640093E74700230361
:10D00C00F4009147A300F40055B79386D7FF93F62D
:10D01C00F60F05466364D6008545D1BF6390C70201
:10D02C00A300E4004146814513057400EF40EF85F1
:10D03C00C1451305C402EF501FA18DBF9546E39760
:10D04C00D7F6A300E40041468905130574009770D8
:10D05C00FE1FE78040918347640093E7470023035A
:10D06C00F400F9B78D4499B7797122D4405926D27E
:10D07C004AD04ECE06D6AA89AE84328963080420E3
:10D08C000355250083574400638BA700A144B2507D
:10D09C002254268502599254F249456182800347F5
:10D0AC00040085476314F7009D44D5B79387F5FFBB
:10D0BC0093F7F70F2547E369F7FE37E702008A0776
:10D0CC00130747A1BA979C438287B2852285EFF05C
:10D0DC005FECAA846DBF4146CA851305C4039770E3
:10D0EC00FE1FE78040880347140091476305F70251
:10D0FC009306C4011306C402930574002285EFF055
:10D10C008FE42285EFE06FE4AA8411C1A144954716
:10D11C00A300F400ADBF8D47A300F400814485BF8C
:10D12C009307C4043E85CA8541463E899770FE1F0D
:10D13C00E78060838A864A86930574002285EFF027
:10D14C008FE041469305C4030A85EF303FFA8547CB
:10D15C00E31FF5F22285EFE08FE2AA8405F99947E7
:10D16C0045BF03471400B147E310F7F47C5089EB3B
:10D17C009305300571459760FE1FE780606A68D0A3
:10D18C0068501DD14146CA859760FE1FE780A07D7F
:10D19C002285EFE04FA97C50238DA700B547ADBF8A
:10D1AC006850E30305F003471400B547E31EF7EEA0
:10D1BC00835706009305290021462318F5004905DD
:10D1CC009760FE1FE780207A7C4C83D7470113F7CA
:10D1DC0007203DC3184C035747001377072029CF6E
:10D1EC00B9471DBF03471400B947E31FF7EA3C5486
:10D1FC0089EB9305300559459760FE1FE780406227
:10D20C0028D4285419C54146CA859760FE1FE7806B
:10D21C008075BD4711B703471400BD47E316F7E807
:10D22C00285419469305190041059760FE1FE780A5
:10D23C0080737C4C83D7470193F707409DCF1C4CE0
:10D24C0083D7470093F707408DCBC147F1B57C548A
:10D25C0089EB9305300551459760FE1FE780405CD4
:10D26C0068D46854E30405E24146CA859760FE1F02
:10D27C00E780606F7C547D5798CB03D5290081459E
:10D28C00EFE09FA561BD83450600DDBF8547E397B1
:10D29C00F5E80328460083473600034726008346FB
:10D2AC00160083552500034606000145EF505FD15B
:10D2BC00B5B5011126CA06CE22CC89441DCD95CD1B
:10D2CC00AA842E8468008D45EF50EFF78347E10068
:10D2DC002685228693F7F70393E707046C00230750
:10D2EC00F100EFE01FCDAA8409E90D466C0013058F
:10D2FC0034009760FE1FE7800067F2406244268589
:10D30C00D244056182805D714EDE86C6A2C4A6C27F
:10D31C00CAC052DC56DA5AD85ED6894955C54DC6B4
:10D32C00138B4500420B135B0B01AE8A2A8A9305C3
:10D33C0030055A85B2849760FE1FE780604E2A84C0
:10D34C00CD4959C1EF507F9E2A895686D285935A72
:10D35C008900135A0901937BF90F1305440093FAC2
:10D36C00FA0F137AFA0F13598901EF307FDAA30100
:10D37C00740123015401A300440123002401EF5044
:10D38C007F9AAA8541460808EF309FD82147340080
:10D39C005A86A2850808EFF08F96AA890DE12146DE
:10D3AC002C0023807401A380540123814401A381A8
:10D3BC00240113854400EF30BFD5EF509F97228591
:10D3CC009760FE1FE780C04EB64026444E859644BB
:10D3DC000649F259625AD25A425BB25B6161828051
:10D3EC00011106CE2AC6EFD0FFFE324599452381A6
:10D3FC00A1C4EFC08FBBF24037C50100130545F641
:10D40C0005616FD0DFA783C731C4A18B99C3938704
:10D41C0041AF23AAF1C201458280797152CC2A8A8C
:10D42C002E8506D622D426D24AD04ECE2EC6EFD08A
:10D43C00BF9445C5405945C4834734008949F91701
:10D44C0093F7F70F63EDF90883574400B24589440D
:10D45C006394B706130974004146D2854A859760D8
:10D46C00FE1FE78040501306C4023285C14532C608
:10D47C00EF506FDD32469306C401CA852285EFF06A
:10D48C008FAC03470400834714000DC30D47814440
:10D49C006394E702A300340122852254B2509254C3
:10D4AC000259F249624A45616FE02FAA1147639E07
:10D4BC00E700A30094008144B250225426850259FF
:10D4CC009254F249624A456182800D478144E3954A
:10D4DC00E7FE9547A300F400C1B78944F1BFC944E6
:10D4EC00E1BF79719397050122D406D626D24AD092
:10D4FC004ECEC1872E8463D30704938401C403C525
:10D50C002400EF30FF882AC611CDEFF01F9CB245E6
:10D51C0019E503C514009307F00F631EF5002E8563
:10D52C00EF307F802165218DB250225492540259E4
:10D53C00F24945618280EF301F8CEDB793F71500EF
:10D54C0091C7EFE05F8713451400F9BF8DE90145E2
:10D55C00E1BF850493F4F40FEFD01F92E3F9A4FE1E
:10D56C00339599001319050113590901B377240157
:10D57C00EDD34A85EFE09FA13345240175B785446F
:10D58C008549D9BF39C9011126CA06CE22CCAA8435
:10D59C0009459DCD0D4628002E848D059760FE1FF4
:10D5AC00E780603C8347A10070002C0093F7F703E1
:10D5BC0093E7070426852305F100EFE09F9F09E917
:10D5CC000D46A2856800EF307FB27D153335A00083
:10D5DC00F2406244D244056182800945828083C74F
:10D5EC0031C4918B99C3938701B023ACF1C201452F
:10D5FC008280011152C42A8A32854EC656C25AC044
:10D60C0006CE22CC26CA4AC82E8BB28AB689EFD057
:10D61C00AFF609ED8944F240624426854249D24472
:10D62C00B249224A924A024B056182805C592A898E
:10D63C00C544F5F34D45EF501FE91374F50F5145F3
:10D64C00EF507FE8E38809FC83C78901E3E487FC9A
:10D65C001375F50FE360F5FC930530051305000712
:10D66C009760FE1FE780C01B232AA9022A84CD44A1
:10D67C005DD1130600078145EF303FA1A3000400E4
:10D68C00230044012301640123125401232E340589
:10D69C00232C0400A301040063170A008547A30090
:10D6AC00F40081448DBF2285EFE0EFD78547A300BE
:10D6BC00F400AA842DD14A85EFE08FDBA9BF397124
:10D6CC0022DC06DE26DA4AD84ED652D456D25AD0AE
:10D6DC005ECE62CC66CA0944630F060E630D070E5C
:10D6EC00AA8B3A89368BB28A2E8CEFD0EFE82A8A35
:10D6FC0051446302050E9305300541459760FE1FAA
:10D70C00E7800012AA894D4479C5834419008347E8
:10D71C002900A204C207BE9483470900BE94834724
:10D72C003900E207BE9483278A0263E697007D578F
:10D73C000944639DE70863070C0083474A000544CE
:10D74C00898BC9C7930C4B00214681450A85C20CB5
:10D75C00EF30BF9393DC0C01930530056685976021
:10D76C00FE1FE780E00B2A8C4D442DC15A86D685CE
:10D77C001105EF30FF991146CA856285EF305F992C
:10D78C00414693058A014E85EF309F9821478A8642
:10D79C006686E2854E85EFE09FD62A841DE1214600
:10D7AC008A852800EF30DF96214693054900280032
:10D7BC00EF30DF938547631EF502A6855E85EF503B
:10D7CC003FFB62859760FE1FE780800E4E85976059
:10D7DC00FE1FE780E00D2285F2506254D25442596C
:10D7EC00B259225A925A025BF24B624CD24C2161D2
:10D7FC0082800544F9B739715ECEAA8B594526DA79
:10D80C004AD84ED652D456D25AD006DE22DCAE843A
:10D81C00328BB68A3AC63E8AC2894689EF306FD3BC
:10D82C0025C59167938717E92310F50085472301D8
:10D83C00F5002A843247210563830B0693071003F6
:10D84C00A301F40019468145EF303F84834701045E
:10D85C002312940023036401230AF40003C501C4BA
:10D86C00A303540123174401231834012319240161
:10D87C00A285EF304FD89D4763E8970086049387C5
:10D88C0081E5BE9423900400F2506254D254425964
:10D89C00B259225A925A025BF24B21618280A30147
:10D8AC0004001946BA859760FE1FE780C00B79BF4C
:10D8BC00797156CAAA8A1305100326D24AD04ECEC5
:10D8CC0052CC06D622D42EC6328AB684BA893E8968
:10D8DC00EF302FC839CDB24537460201930785008A
:10D8EC00130616E92A845CC110C123045501A30454
:10D8FC00B5001946D28529059760FE1FE780A00662
:10D90C00CE85230894001305140126869760FE1F0C
:10D91C00E780600523082403A2852254B250925458
:10D92C000259F249624AD24A03C501C445616F30BB
:10D93C008FCCB250225492540259F249624AD24AC4
:10D94C0045618280011122CC2A84314506CE2EC637
:10D95C0032C436C23AC0EF30CFBF1DCD916793872A
:10D96C0017E92310F500B2452246924602478D472F
:10D97C002301F500A301850062442312B500231393
:10D98C00C5002314D5002315E500F240AA8503C574
:10D99C0001C405616F302FC6F2406244056182807C
:10D9AC0001114AC82A89394526CA06CE22CC2EC670
:10D9BC00B284EF300FBA21C1B2459167938727E942
:10D9CC002310F50091472301F500A3012501231233
:10D9DC00B5002A84A685190521469760FE1FE780AD
:10D9EC0080F8A2856244F240D244424903C501C486
:10D9FC0005616F304FC0F2406244D2444249056128
:10DA0C00828001114AC82A89414526CA06CE22CCF9
:10DA1C002EC6B284EF30EFB31DCD9167B24593871C
:10DA2C0027E92310F50095472A842301F5002312DA
:10DA3C002501214619059760FE1FE780C0F2A285DB
:10DA4C00231794006244F240D244424903C521C4D6
:10DA5C0005616F304FBAF2406244D24442490561CD
:10DA6C008280011122CC2A84394506CE2EC632C4BE
:10DA7C0036C23AC0EF30EFAD1DCD9167938717E9F1
:10DA8C002310F500B24522469246024799472301DE
:10DA9C00F5002312850062442313B5002314C5003E
:10DAAC002315D5002316E500F240AA8503C501C451
:10DABC0005616F304FB4F240624405618280797128
:10DACC0022D406D62A842EC632C436C23AC0EFD02F
:10DADC00AFAA1DC1B245224692460247231CB10093
:10DAEC00231DC1002C081306F00F2285231ED10024
:10DAFC00231FE100EFD06F9BB2502254456182800E
:10DB0C00011122CC2A84394506CE2EC632C436C227
:10DB1C003AC0EF300FA41DCD9167938717E92310FE
:10DB2C00F500B2452246924602479D472301F50077
:10DB3C002312850062442313B5002314C50023155A
:10DB4C00D5002316E500F240AA8503C501C4056182
:10DB5C006F306FAAF240624405618280397166CAE7
:10DB6C00AA8C1305200226DA52D456D25AD05ECE95
:10DB7C0062CC06DE22DC4AD84ED6AE84328BB68A14
:10DB8C003AC63E8CC28B468AEF30AF9C51C591662B
:10DB9C00938616E9A9472A842310D5002301F500A2
:10DBAC009309E400210513094401324763830C08EF
:10DBBC0093071003A301F40019468145EF30EFCC15
:10DBCC00194681454E85EF304FCC194681454A8523
:10DBDC00EF30AFCB8357010423129400230364016D
:10DBEC00231EF40083574104A3035401231D440155
:10DBFC00231FF40083478104A2852300F40203C58C
:10DC0C0001C4EF304F9F9D4763E8970086049387CC
:10DC1C0081E5BE9423900400F2506254D2544259D0
:10DC2C00B259225A925A025BF24B624CD24C21618D
:10DC3C008280BA85A301040019469760FE1FE78015
:10DC4C0080D2E2854E8519469760FE1FE780A0D1F1
:10DC5C001946DE854A859760FE1FE780C0D09DBFC0
:10DC6C0079715EC6AA8B61454ECE52CC56CA5AC843
:10DC7C0062C406D622D426D24AD02E8BB28A368AD9
:10DC8C00BA893E8CEF30EF8C3DC937470B01130737
:10DC9C0017E913048500AA8418C140C10149130572
:10DCAC00240023007401A30064011946D6859760F3
:10DCBC00FE1FE78040CB1305940023044401194652
:10DCCC00CE859760FE1FE78000CAA307840103C7B7
:10DCDC00340005091379F90F4104E362E9FC22547D
:10DCEC00B2500259F249624AD24A424BB24B224CD0
:10DCFC00A68503C501C4925445616F30CF8FB250D5
:10DD0C00225492540259F249624AD24A424BB24BC3
:10DD1C00224C45618280011122CC2A84214506CEF9
:10DD2C002EC632C4EF30EF820DC52246B2459307A2
:10DD3C0010592310F500230185002303C50062440C
:10DD4C002312B500F240AA8503C501C405616F30EA
:10DD5C008F8AF240624405618280011122CC2A84B0
:10DD6C00214506CE2EC632C4EF20BFFE0DC9224679
:10DD7C009167938727E92310F500B245A14723014A
:10DD8C00F50023038500A303C50062442312B500EC
:10DD9C00F240AA8503C521C405616F30CF85F240DE
:10DDAC00624405618280011122CC2A84314506CE61
:10DDBC002EC632C436C23AC0EF20BFF905CD22467A
:10DDCC008567B24592460247938717C92310F50021
:10DDDC00230185002303C50062442312B5002314DC
:10DDEC00D5002315E500F240AA8503C501C40561E1
:10DDFC006F306F80F240624405618280011126CA47
:10DE0C00AE844AC82A891385C40006CE22CC32C6F9
:10DE1C00EF203FF40DCD8567938717E9B2452310AA
:10DE2C00F50023019500231225012A84310508C42D
:10DE3C0026869760FE1FE78000B3A2856244F240FD
:10DE4C00D244424903C501C405616F20DFFAF24098
:10DE5C006244D244424905618280011122CC2A8459
:10DE6C00194506CE2EC6EF20DFEE15C585679387C4
:10DE7C0017F92310F500B2458547A301F5002301DE
:10DE8C00850062442312B500F240AA8503C501C483
:10DE9C0005616F205FF6F24062440561828041119A
:10DEAC0022C42A840D4506C6EF20BFEA15C193078C
:10DEBC0010F92300F500E947A300F50023018500C4
:10DECC002244B240AA8503C501C441016F20BFF2B0
:10DEDC00B240224441018280011122CC2A8419458E
:10DEEC0006CE2EC6EF20FFE61DC18D67B245938787
:10DEFC0017092310F5002301850062442312B50095
:10DF0C00F240AA8503C501C405616F20DFEEF24023
:10DF1C006244056182800111214506CE2EC632C4B1
:10DF2C00EF203FE315C58567B24522469387073935
:10DF3C002310F50085472301F5002312B5002313A8
:10DF4C00C500F240AA8503C501C205616F20BFEA76
:10DF5C00F24005618280397122DC4ED656D25ECEFB
:10DF6C0006DE26DA4AD852D45AD0894BAA89328492
:10DF7C00B68A639E751183C781C14A8A8944D1C30D
:10DF8C0083C7160003C706009306C6FFA207D98FE6
:10DF9C002393F1C4138B61C4639AD70831452EC601
:10DFAC00EF203FDBAA843DCDB245420441802302E1
:10DFBC00B50023138500930700F91504A165231000
:10DFCC00F50023113501850522859760FE1FE7803A
:10DFDC00208588C439C183C781C19385EAFF135654
:10DFEC002400FD17238CF1C09760FE1FE780A099D9
:10DFFC009C44A68589079CC403C501C2EF20BFDFE2
:10E00C008144F250625426854259D254B259225A54
:10E01C00925A025BF24B2161828026859760FE1F2B
:10E02C00E7800089239201C48544E1BF1307D6FF22
:10E03C00E3CAE7FE83C7C1C39384C1C3138981C4F8
:10E04C0081CB0325090009C59760FE1FE780408638
:10E05C0003550B00A16585051105420541819750BB
:10E06C00FE1FE780E07B2320A9005DDD83C781C113
:10E07C002286D685FD17238CF1C09760FE1FE780A2
:10E08C00808E239281C485472380F40095BF138A28
:10E09C0041C483570A00138B41C4D9D7938461C4FC
:10E0AC0003D70400138981C4B386C7001107032565
:10E0BC0009006344D7063E95D6859760FE1FE7801E
:10E0CC00808A03560A0083D70400814432944204A8
:10E0DC00418023108A009107E315F4F23145EF20BB
:10E0EC005FC7AA850DC9930700F92310F500835764
:10E0FC000A0023113501230275012313F500832730
:10E10C0009001CC503C501C2EF20FFCE23100A0075
:10E11C00238E01C2FDB50325090009C59750FE1FCA
:10E12C00E780007923100B00238E01C2F5BD6FA090
:10E13C00D0676FA0F068411106C6EFA09068B2409E
:10E14C000145410182806FA0106B6FA0106D6FA014
:10E15C0030706FA030726FA010746FA0F0756FA04C
:10E16C00D0776FA0B0796FA0907B6FA0907D035398
:10E17C000100035E4100835E8100035FC10072C237
:10E18C0076C47AC61AC06FA0107E6FB020016FB033
:10E19C0000036FB000056FB000076FB0A008834795
:10E1AC00160003460600A2075D8E6FB0E0096FB043
:10E1BC00200B6FB0E00D6FB0001E6FB0E0206FB0A1
:10E1CC00C0236FB0E0256FB000286FB0202A6FB06D
:10E1DC00402C1307A5FF420785672A8841831385C6
:10E1EC00A7C7636CE502138707C801456368B702CC
:10E1FC0063E605031307301F6362C702138766FFCC
:10E20C0042074183938767C763EAE7000506330635
:10E21C00B6028E063325D600828001458280B7E691
:10E22C0002008147938686A61308F00F3387F60009
:10E23C00034607001317060141836364E50063136B
:10E24C000601828003D605006365C7002390E500B4
:10E25C008280850793F7F70FD1BF41119397050182
:10E26C0022C406C626C2C1872E8463D50702EF20BE
:10E27C003FB2AA8409CD83470500054793C7070819
:10E28C006364F700EF40B0712685EF20DFA92165AC
:10E29C00218D19A893F7150089CF83A781ECFC5F1A
:10E2AC0091C3829713451400B24022449244410119
:10E2BC00828093F7250091CB83A781EC83A7070875
:10E2CC0091C3829713452400C5B793F7450091C7B6
:10E2DC00EF00D04F13454400C1BF93F7050289CB23
:10E2EC0083A701EDBC4791C38297134504026DBF10
:10E2FC0093F7050189CB83A701EDFC4391C382976A
:10E30C001345040155B793F7052089CB83A781EDFD
:10E31C00BC5391C382971345042079B793F705102A
:10E32C0089CB83A781EDFC4F91C3829713450410D1
:10E33C00A5BF939725010145E3D807F6938781E99B
:10E34C0083C6770003C6670083C5570003C5470023
:10E35C00EFC0002209652DBF411126C2AA8422C438
:10E36C001306C00A138481E98145138581E923A82A
:10E37C0001C406C623A601C4EF203FD1A38391D4C8
:10E38C009307F00F3CDCF977FD172313F40A2314E1
:10E39C00F40AFD472305F40A83C771D1232E040622
:10E3AC0013970701B9078E072311F4022313F40204
:10E3BC00A1472317F400B70760819387777D1CC8AA
:10E3CC001CCCB70748014183ED072310E40223124C
:10E3DC00E4025CCC37176081B707160013078780FF
:10E3EC009387079058C81CD4EF808037EF20804D5E
:10E3FC00EF70D0072244B240924441016F50A0729A
:10E40C00397122DC3704400026DA4AD84ED606DEB3
:10E41C00AA89AE841309F4FFCA850145EF30EFAD2C
:10E42C0065DDE30B25FF498C131704014183218320
:10E43C009317840013590401D98F23160100137903
:10E44C00F90F10088A854E852317F100A3062101C8
:10E45C0002C002C202C402C802CA02CC02CEEF70D1
:10E46C00D0368347E1010347D101A3818400A20781
:10E47C004207BA970347F101218023828400BA979F
:10E48C00F25062542380F40013D78700C183A38217
:10E49C002401A380E4002381F4004259D254B259E0
:10E4AC0021618280011119469385E1D1138501F216
:10E4BC0006CE22CC26CA4AC891644EC69750FE1F7F
:10E4CC00E780604A9385F4FF0145EF30CFA02A84A2
:10E4DC00FD550145EF306FA2A287FD147D5933F72E
:10E4EC009700B366E500C5CA631425016305970A56
:10E4FC00138781E9230CF708A18393E707FC916943
:10E50C00C164232AA708A30CF708138481E9FD1919
:10E51C00FD14CE850145EF300F9C2A89FD55014530
:10E52C00EF30AF9DB3672501EDD7FD576314F500B0
:10E53C00E30139FF93570501230EF4089357850126
:10E54C00A30EF40883178408231DA408230F2409A1
:10E55C004205135989001379F9034185A30F240946
:10E56C00658DE58F6312F5020317C4098317A408A0
:10E57C00658FE58F631AF7000317E4098317C40846
:10E58C00658FE58FE307F7F8F2406244D2444249C5
:10E59C00B24905618280A6850145EF30CF932A846C
:10E5AC00FD550145EF306F95A28715BF011126CAA5
:10E5BC00938781E922CC805B4EC606CE4AC852C4F2
:10E5CC0003491406938981E9631809001946938558
:10E5DC0001F21305240621A885476314F90683C7A5
:10E5EC002900130524061946B1CB938561F2975087
:10E5FC00FE1FE780403783C7190091CF8347F4068D
:10E60C001307000493F7070C6397E70013058406C0
:10E61C00EF50204068CC8547A303F40003C571D4A8
:10E62C008545238C01E8EF20BFB20145F2406244DE
:10E63C00D2444249B249224A056182809385C1F293
:10E64C007DB7094A631749058347840623000406EE
:10E65C0089E785472300F40695BF13058406EF5020
:10E66C00803668CC0DC1EF50C0126C4C83C7A5002E
:10E67C0099CB230024071946B1051305240697509E
:10E68C00FE1FE780402E034704068947E305F7F693
:10E69C00C9B78D474945E31BF9F883478406230026
:10E6AC00040681EB85472300F4061946938561F235
:10E6BC000DB713058406EF50003168CC0DC1EF5037
:10E6CC00400D6C4C83C7A50099CB23004407194619
:10E6DC00B105130524069750FE1FE780C028034799
:10E6EC0004068947E309F7F075BF4111C5451305C9
:10E6FC00000922C406C69750FE1FE78060122A84C8
:10E70C0031C913060009814523A4A1ECEF20FF9722
:10E71C0085472302F400930700F92303F400938741
:10E72C0041F4D84B9C4F2322E4082324F4088D4752
:10E73C002307F400B7E701009387875B3CDCB7F74E
:10E74C000100938747A47CDCB7F701009387879C73
:10E75C002320F4082285B24022444101828083A701
:10E76C00C1EE639C0724011126CA83A781C606CE7D
:10E77C0022CC98434AC84EC60D8B05C3B84B619B3F
:10E78C00B8CB98431367870098C39C438D83858BC4
:10E79C0089C7010001000100010083A781C613078E
:10E7AC00A005B70600F9B8CB1307000AB8D37D470C
:10E7BC00D8C383A781C5FD16984F2A84758FB706D9
:10E7CC000002558F98CF984F137737F8136787014E
:10E7DC0098CF83A601C7D856759BD8D6034755004A
:10E7EC009376F7079843137707F8558F98C337C775
:10E7FC00898E130767ED98C7375755001307575580
:10E80C00D8C3D857B70600F0FD16719BD8D79843DC
:10E81C00758F98C383470501054783264508BD8B33
:10E82C002304F500639BE7163147A304E50023801E
:10E83C00F600834715061309A506898B8DC36C4D0D
:10E84C0099CD83C7250181CF83C735011946D105E1
:10E85C00A304F5064A859750FE1FE780C010834736
:10E86C00940689CB032744088347070093E707F8EE
:10E87C002300F700032544081946CA852105975043
:10E88C00FE1FE780400E8347140613092406898B6C
:10E89C0085C36C4C91CD83C7A50099CB89472300C8
:10E8AC00F4061946B1054A859750FE1FE780A00B68
:10E8BC0083471406858B91E7034704068947631A3F
:10E8CC00F700032744088347070093E70704230056
:10E8DC00F70083274408034794001946CA85A38090
:10E8EC00E7000325440809059750FE1FE780A007A1
:10E8FC00930720F92303F40083A7C1C50327440819
:10E90C0037F50100814598CB1305E5B4EF201FBB0B
:10E91C00EF707013938741F48546A383D700930659
:10E92C0040F92303D4009306003423810700D4C795
:10E93C0083A681C6A381070023820700138941F4B3
:10E94C00BC52FDFF83A701C783A707091397770064
:10E95C006349070083A781D389C785451305000840
:10E96C0082978347940003A781C6A166920793867A
:10E97C00363054C7938787113CD3930700F8230292
:10E98C00F9006244B167F240D2444249B2499387DC
:10E99C0037305CC705616F70700403472501930520
:10E9AC00C40119071377F703A304E5002380F600CD
:10E9BC000325450803462401D1B58280411122C4A8
:10E9CC0003A481EC06C68547034774006312F7065F
:10E9DC008347540013075002639AE70283471401DC
:10E9EC0013F7270015CB93076002A302F4002285CE
:10E9FC00EFF0FFD683471401918B9DCB2244B2409C
:10EA0C0003C571D4894541016F208FF4130760024F
:10EA1C006390E70283471401918B99CB93077002A3
:10EA2C00A302F40022852244B24041016FF03FD38F
:10EA3C00B240224441018280411126C2938781E970
:10EA4C0022C4805B06C68547034774006315F70A2A
:10EA5C00835684011307006483C781E93347D702C7
:10EA6C00850793F7F70F238CF1E863C6E700EF20D7
:10EA7C00DFCA238C01E883471401938641D403C574
:10EA8C00360093F61700938441D499CA13075002A9
:10EA9C00A302E400998B91CF8945EF206FEB11A86D
:10EAAC0013F74700898B95CB93076002A302F40000
:10EABC0065F703470401854783C434006315F702E7
:10EACC000356840126858545EF20AFF72285224425
:10EADC00B240924441016FF09FC861DF930770020E
:10EAEC00A302F400F9B7B9450545EF209FBC0356C6
:10EAFC0084012A96C1BFB2402244924441018280D3
:10EB0C00411122C403A481EC06C6EF70C073EF70F0
:10EB1C0000762313040023020400138441D403451C
:10EB2C0034008545EF209F87034534008945EF204D
:10EB3C00FF86034534002244B240914541016F20C9
:10EB4C00FF8539714ED6938781E922DC805B26DA0A
:10EB5C0052D456D2216AB16A5AD05ECE06DE4AD859
:10EB6C0062CC938981E9938441F4130A3A30938AF5
:10EB7C003A3083476400130750096393E738EF700A
:10EB8C00C06383C73400858B638E073203258408EA
:10EB9C001306F4008145A38104009750FE1FE78003
:10EBAC00E03F45ED832584087D4783C7150093F727
:10EBBC00F7032305F400E91793F7F70F636FF708D2
:10EBCC0083C70500BD8BA305F400F51793F7D70F8A
:10EBDC00C9E7130924061946A1054A85EF200FD170
:10EBEC002DCD83258408130C2407194683C70500F3
:10EBFC00628589059987858BA308F4069750FE1FBB
:10EC0C00E78060D683C71900638B071A8347140704
:10EC1C006387071A834774071307000493F7070CDD
:10EC2C00639FE7187C4CA9C703C7270131C303C7EF
:10EC3C003700628613672700A308E40603D5270074
:10EC4C0003D7470083D5670083D787004207598DC8
:10EC5C00C207DD8DEF40B06231E5A38404000347A9
:10EC6C00640093076009E306F7F0EF70406061A45D
:10EC7C00834784000547BD8B6399E7001946E285FD
:10EC8C001305A406EF208FC6C1BF13050407EF4080
:10EC9C00505868CC630505128347350093E727006D
:10ECAC00A308F4060347B40095476315F71483478C
:10ECBC008400B98BDDF383A7090663820720EF700C
:10ECCC00005B83A709068297EF10D01D2A89630881
:10ECDC00051E83A781B7829783258408232CA90658
:10ECEC00154683C7F50003C7050113050910A207D4
:10ECFC004207BA9703C7E500F905BA9703C735FF72
:10ED0C006207BA972324F90883C755FF03C765FF29
:10ED1C00A2074207BA9703C745FFBA972326F908FB
:10ED2C0083C775FFA303F90283C795FF03C785FF4C
:10ED3C00A207D98F2314F90283C7B5FF03C7A5FF18
:10ED4C00A207D98F2315F90283C7D5FF03C7C5FFC7
:10ED5C00A207D98F2316F90283C7F5FF03C7E5FF76
:10ED6C00A207D98F2317F9029750FE1FE780A0BF87
:10ED7C000327840883473702FD8B2302F90283475C
:10ED8C00370205679306A7C79583A302F902835739
:10ED9C00A902E917C207C18363EEF6008356C902C4
:10EDAC009307301F63E8D7008357E902130707C89E
:10EDBC006373F71003554900EF10F02979BD8347B1
:10EDCC0084000547BD8BE38BE7EA8347C400034708
:10EDDC00B40093F6170089CA8D466317D7002858DC
:10EDEC006C58EF60704E8DBD898BE38D07EA9547AB
:10EDFC00E307F7FE83478400BD8B81C71947E39E69
:10EE0C00E7E48347340111472304E4009907A30482
:10EE1C00F400832744082380E700834794000327EA
:10EE2C00440893F7F703A300F70083471406858B78
:10EE3C0091E7034704068947631AF7000327440840
:10EE4C008347070093E707042300F70003254408D2
:10EE5C00CA85194609059750FE1FE780C0B00325E7
:10EE6C004408034634019305C40321059750FE1F43
:10EE7C00E78060AF930760F92303F40083479400A5
:10EE8C0003A781C61305A005920723264701938784
:10EE9C00C71C3CD3930700F82382F40023265701A8
:10EEAC009750FE1FE78080029750FE1FE780E0FF1F
:10EEBC00EF70E03B5DB383A749064A858297EFF07C
:10EECC003FC461BB03C9440085471379F90FE312B2
:10EEDC00F9CA23820400EF70803983C7840081EF64
:10EEEC0083C79400850793F7F70FA384F400A18BD5
:10EEFC0099C323942401930720F92303F40079A8E0
:10EF0C0013074009639EE70283C72400858B8DC3DA
:10EF1C00834784002381040013F7E70009C7BD8BE6
:10EF2C001947E394E7D4930750F92303F40091B104
:10EF3C0083C744000547E31EF7C22382040035B3A0
:10EF4C0013076009E397E7C283C72400858BBDC311
:10EF5C0023810400EF70A031930710F92303F40010
:10EF6C0083A7C1C785CFDC4395CB89472302F1002A
:10EF7C0083471407130561001946A302F100834768
:10EF8C00F400930524072306F1009750FE1FE78039
:10EF9C00809D83A7C1C74800DC438297F25062541E
:10EFAC00D2544259B259225A925A025BF24B624CD9
:10EFBC002161828083C744000547E31CF7BA238292
:10EFCC000400EF70C02A930710F905BF411106C663
:10EFDC00EFF01FB3B240130620089305000801455B
:10EFEC0041016F40E01783C771D485E737E5010015
:10EFFC0041111305652606C6EF20CFD8EFF0CFB52B
:10F00C00B240B7E701009387676F23A6F1EC41018B
:10F01C008280B7E701009387676F23A6F1EC8280AB
:10F02C0011C98327050993E707402328F508FD57E5
:10F03C002300F502828023A6A1C48280011122CC78
:10F04C0006CE2A84034505029307F00F2E8663092A
:10F05C00F5002EC6EF208FB73246FD572300F40281
:10F06C00834734020357A4039306040293E707066D
:10F07C00A301F40283570403A285F240BA97231C20
:10F08C00F402624437F501001305C50205616F20D7
:10F09C006FA3011122CC06CE2A84034515029307D7
:10F0AC00F00F2E866309F5002EC6EF202FB23246E4
:10F0BC00FD57A300F40293061402A2856244F240A9
:10F0CC00370502001305251305616F20AF9F011151
:10F0DC0022CC06CE2A84034525029307F00F2E86F8
:10F0EC006309F5002EC6EF206FAE3246FD572301A3
:10F0FC00F40293062402A2856244F2403705020012
:10F10C001305C51505616F20EF9B938781E903C734
:10F11C000702ED46A30DE51203C71702230EE512F5
:10F12C0003D72702A30EE5122183230FE51203C791
:10F13C004702A30BE51203C7570283D767022311BB
:10F14C00D514230CE512A30CF512A183230DF51293
:10F15C00B7071B00938787142322F5149307801499
:10F16C002314F514ED4713078004A306F514854703
:10F17C0023070514A307E5142308F514A308D514D5
:10F18C0023090514A309E514230AF51482800357F7
:10F19C00C50395470356E502B307F7028356A5024C
:10F1AC0093D537406355B600118F93173700B3C70B
:10F1BC00D702C207C183231DF50282808327C50EA7
:10F1CC000D469306F00F03C707000D8B2305E500D2
:10F1DC006314C70083C62700A30AD50003C7070022
:10F1EC00418B2308E50083C71700A305F500828037
:10F1FC000327050F63010710411122C406C683477C
:10F20C008500032605152A8493F7C70F2304F50000
:10F21C008345970021828356C700420613958501CA
:10F22C00418261856375D606635E050403458700DC
:10F23C0093F5F507A304B700854593E627006314FF
:10F24C00B50093E617002304D4005C4389075CC324
:10F25C001376F60FA304C40003A581F54C430905EE
:10F26C009740FE1FE78020708327040F034694000D
:10F27C00D44303D7C700B296118FD4C32396E700AB
:10F28C00894715A893E717002304F400D1B713F6A8
:10F29C00F60F6359050403458700854593E627005F
:10F2AC006314B50093E617002304D400A304C40030
:10F2BC00A30407008547A30BF4008327040F014523
:10F2CC009C4389CF0347640283C791D16378F700CD
:10F2DC008347840093E707012304F400B2402244DF
:10F2EC004101828093E717002304F400A304C400B7
:10F2FC00A304070095B70545828083478500CD9B05
:10F30C002304F50082808327C50E0347850083C73D
:10F31C000700935637408987B58F858B99C713475C
:10F32C0087002304E5000145828005458280832700
:10F33C00C50E0347850083C70700935627408D876A
:10F34C00B58F858B99E7134747002304E5000145EA
:10F35C008280054582808327050C85072320F50CC8
:10F36C0091E78327450C85072322F50C8327450C51
:10F37C0093F7070891C785472320F50C2322050C2A
:10F38C008347350293F7070491CF8357050303573F
:10F39C00A503BA97231CF5028327450993F7F7BFFA
:10F3AC00232AF50882808327850C85072324F50CF6
:10F3BC0091E78327C50C85072326F50C8327C50CFD
:10F3CC0093F7070891C785472324F50C2326050CD2
:10F3DC008347350213F7070409C793E70702A30114
:10F3EC00F502828083A701EE014591E3828003C779
:10F3FC00770011E305059C43CDBF83A701EE0145C2
:10F40C00054791E3828083C677006393E600050588
:10F41C009C43C5BF411122C491452A84014506C6AF
:10F42C00EF202FA9138781E98356C7052314A40461
:10F43C00854763F0D70483570403835604050355AB
:10F44C00A404832887049D8EB386A6028327040810
:10F45C0085451303F5FF130E8002BE968327041512
:10F46C00A183C207C183938727028587AD0763E613
:10F47C006500B2402244410182803388C50346872F
:10F48C007D56369801E72314B404E5B76314E40001
:10F49C00184075DB832EC7076398AE000326070858
:10F4AC003306C8403376A6026364F6001843D9BF0E
:10F4BC00890575BF138781E98356C705854763F9AD
:10F4CC00D706832705158345750403238704A18379
:10F4DC00C207C183938727028587AD07FD150546B3
:10F4EC00130E80026363B6008280B306C603032743
:10F4FC0005087D58BA961A8701E72314C504828043
:10F50C006314E500184175DB832EC7078328C507F4
:10F51C00639A1E01832807083388D84063E41601D8
:10F52C00338816416364F8001843F9B705065DBFCC
:10F53C00828083C5C1D1835E850283288507139899
:10F54C0085011358884113871E00635208089307DE
:10F55C00204E3307F7023D07158393862800369714
:10F56C0063490800B707C0A86365F700B7074057A1
:10F57C003E97138681E98356C6052320E508854707
:10F58C0063F6D70C83260515032F86048147A182C9
:10F59C00C206C182938626028586AD067A867D5385
:10F5AC0021EAF697635C08061307204EB387E7023F
:10F5BC00BD079583C697634908003707C0A863E564
:10F5CC00E70037074057BA972320F508828093F756
:10F5DC00150091C7930780023307F702BDBF8566FC
:10F5EC009386B6473307D702130707041D83B5B7B5
:10F5FC006314A600104255D6832FC607032EC507E9
:10F60C00639ACF01032E06083303EE406364C701EF
:10F61C003303C7416364D302104259B7858991C53E
:10F62C0013078002B387E70271B705671307B74763
:10F63C00B387E702938707049D83ADBF034675022A
:10F64C00850713078702E3CBC7F4A1BF828093879A
:10F65C0081E983D6C70505476372D70C411122C4D3
:10F66C00A04706C626C2A28789E709E8230C050035
:10F67C00B5A003C7A7013DE39C43FDB76314A400E9
:10F68C0000406DD483477400C1EB785C7C5D6305EE
:10F69C00F7080347850193070008AA846315F7044C
:10F6AC008357A4021946930500082313F506231467
:10F6BC00F5068357C4022316F5048357E402231777
:10F6CC00F50403554500EF30B0298547238DF40030
:10F6DC0083C7840193F7F707238CF400B2402244CC
:10F6EC009244410182808357A50219469305000874
:10F6FC002313F4062314F4068357C5022316F404CB
:10F70C008357E502035544002317F404EF305025CA
:10F71C008947230DF400D9B7004081BF230C0500A5
:10F72C008280938781E983D6C705411126C206C61C
:10F73C0022C40547AA846372D7180347050E098BA8
:10F74C00630D0716B847BA85B5E983A704150144BC
:10F75C007D58A183C207C183938727028587AD0794
:10F76C007D5535E363000410834774008356A4026F
:10F77C00D5E38947A303F4040357040383572405F3
:10F78C002315D40422853E9741079D8B1D8F5C5415
:10F79C002318E4047CC4EFF0FFC78327440993E7E4
:10F7AC004700232AF4088547A30CF4008D47230D4A
:10F7BC00F400B240224492444101828083C7A501E7
:10F7CC00EDFB8C4151B7144363149700C1DE3687AF
:10F7DC000326070883A604086361D602B306D64045
:10F7EC00F05C6374D600B3F6C60263F6A6003685E9
:10F7FC0063F3F600BA851843ADB7918E705F6374EE
:10F80C00D600B3F6C602E3F806FF3688E3F5F6FE3B
:10F81C003A84D5B783D7A402B3F7D702D9FB1D47D7
:10F82C0099476375D70093D716008D070567231387
:10F83C00F406130707C88A076353F700BA87231423
:10F84C00F4065C5403554400130660087CC4C94795
:10F85C00230DF4002244B240924493050008410168
:10F86C006F301010B9C903D7A40283D7A502B3F720
:10F87C00E702A1E78387840163D107049D4699477A
:10F88C0063F5E600935717008D0705672393F4067D
:10F89C00130707C88A076353F700BA872394F40643
:10F8AC00DC5403D5440013066008FCC4CD47238DFB
:10F8BC00F40093050008EF30B00A238C0400D5BD8A
:10F8CC00938781E983D6C7050547637CD71E3971B9
:10F8DC0022DC26DA4AD84ED652D456D25AD05ECE34
:10F8EC0066CA06DE62CC6AC86EC6032C0515514981
:10F8FC00AA8C135C8C00420C135C0C01130C2C02B4
:10F90C00135C1C402D0C33592C037945E54413062C
:10F91C001027814681457D6AA0478569930B8A84AF
:10F92C00938A81D0938909C8130A0A403305AC0223
:10F93C00B3049C02EFD0B0362A8BA58005E0F250C0
:10F94C006254D2544259B259225A925A025BF24B27
:10F95C00624CD24C424DB24D2161828063958C0039
:10F96C0003A40C0069DC8347A401DDEB785C83A75E
:10F97C00CC0763E7E70A03A50C0883270408636137
:10F98C00F50A03CD4A011D8DDE87931D8D0193DD94
:10F99C008D4163C90D0093761D00D28781E6B707B0
:10F9AC0002008D07637EF5066374A7003375E502CC
:10F9BC0063788507935717006373FC00E287AA9757
:10F9CC0063D20D067945130610278146B3B5A702FD
:10F9DC003385A702EFD0B02C9307150085466381C1
:10F9EC00D704034674000357A40229EE2315E4043C
:10F9FC00585485832314F40478C40947A303E404FE
:10FA0C0083D70C03A30CD400A9072318F404832771
:10FA1C00440993E74700232AF4089147230DF40087
:10FA2C00004029BF13771D0009C7514533D5A702E4
:10FA3C0065B765473385E702B3B7E7022581DE0773
:10FA4C005D8D59BF83D6AC0263FFE602B3F6E602C6
:10FA5C00DA8763C70D0013761D00CA8711E2A687EB
:10FA6C008507858363E1F602DA8763C80D00137D91
:10FA7C001D00A68763030D00CA8785078583B3071E
:10FA8C00F740E3FFD7F89D46994763F5E6000583F9
:10FA9C00930737002313F4061397270063D3E90069
:10FAAC004E875C54035544002314E4067CC4D147B0
:10FABC00230DF4001306600893050008EF30406A2C
:10FACC0085B7828083A701C5411122C406C6858BE8
:10FADC002A84A5EF4165130525F5EF00103E35C5C9
:10FAEC008347E5002317F5008327840FB1E7232C08
:10FAFC00A40E232EA40E8547231AF40223200500FE
:10FB0C008347B4002316F5008347A4002304F500B3
:10FB1C008547A304F500938781E903D787002285E5
:10FB2C0005072394E7009740FE1FE780400C014532
:10FB3C00B2402244410182808327C40F88C383577B
:10FB4C004403232EA40E850745BF83478400230856
:10FB5C000400054593C747002304F400D1BF83C7B5
:10FB6C0071D4638A0710411126C206C6AA8422C426
:10FB7C004AC07D55DDC003A701EE45C3938781D0F4
:10FB8C0003C5D701838547017D540505138981D0B1
:10FB9C0085483708C0A8130E000C834677008327CE
:10FBAC000708639216090353E7068356C702637C62
:10FBBC00D3060346D700631816070326070F25E65E
:10FBCC00032647092DE20346F700631EC605705F46
:10FBDC00B386664079163306D60283264708B35699
:10FBEC00D602B297AA96C206C182231AD70663DF41
:10FBFC000502958F63F387003E84184359FF83A752
:10FC0C0081B782976368A402B307A4409CC09C4050
:10FC1C0035476361F70423A00400B24022449244A8
:10FC2C0002494101828083564707D1B7E3F3D7FCE1
:10FC3C00C297C1B7B307854063DB0700830749014F
:10FC4C00E3C407FCB707C0A8A297898FC1B723A04C
:10FC5C00040075BFCD179CC08307490163D507000D
:10FC6C00130534FF5DBFB147E3EC87FE3705C0A831
:10FC7C004D1522955DB77D558280411106C6EF006A
:10FC8C00702219C98327050F014581E7B240410154
:10FC9C0082809C430505D5BF7D55CDBF03A7C1C44C
:10FCAC0001114AC806CE22CC26CA4EC62A8931CFAB
:10FCBC00BE8903D741EF85476319F704138781D0B9
:10FCCC00030747018327050803544507938481D014
:10FCDC00635807043384874083A781B7829763678F
:10FCEC00A404B307A44003C5E40103A7C1C4058160
:10FCFC00637AF5063385A74083C744019396870141
:10FD0C00E18663D3060416050297F240624493071A
:10FD1C0000FB2306F900D2444249B24905618280B6
:10FD2C00E3FA87FA3707C0A8BA976DB7330785404F
:10FD3C008147E35A07FA83874401E3C407FAB707FC
:10FD4C00C0A8A297898F45B7858B99C79307803E2A
:10FD5C003305F50215814DBF9307D0033305F5022A
:10FD6C0005815DB701454DB7411126C2938781E9E5
:10FD7C00FC4B22C44AC006C62A842E89938481E98E
:10FD8C006394A70023AA04048327840F81CB035513
:10FD9C004400014693050008EF30803C8357640310
:10FDAC0081CB035544004D4693051008EF30403B82
:10FDBC0003554400154693051008EF30603A2303B1
:10FDCC000400A30604002303240503D7C4058547B8
:10FDDC0063E6E70085450145EF104FEEB240224443
:10FDEC009244024901454101828083476500638A40
:10FDFC0007328357E506411122C406C6850723172F
:10FE0C00F5068347F500230F05002A841397870115
:10FE1C0061876344070203570503954763E4E700D2
:10FE2C00014501A89305E003EFF01FF42300A4049F
:10FE3C000945B24022444101828013F707023DC7B5
:10FE4C0093F7F7FDA307F500832705090347750012
:10FE5C002300050493E747002328F508854763171B
:10FE6C00F704032745087C5D938681D0B3D7E7025E
:10FE7C0003C7D60183C64601139686016186910796
:10FE8C00BA97C207C1832319F50686071397070192
:10FE9C00418383477502635706129306204EB3873E
:10FEAC00D702BD079583BA972318F4068347E4005D
:10FEBC0013F71700630B072283570405035704033A
:10FECC006396E7208357C4028355E4040345240258
:10FEDC002319F404834774049205A303F402835793
:10FEEC0084042314F4027C445CD4EF102FD5834695
:10FEFC00740023170406138681D08357840203579A
:10FF0C00A404639C06120346460183260408931539
:10FF1C008601E18563D8050C1305204EB387A70233
:10FF2C00BD079583D106B69763C90500B706C0A86F
:10FF3C0063E5D700B7064057B6972320F40823157E
:10FF4C00E40263D2050C9307204EB307F7029583A6
:10FF5C007CDC63D9050C06079377E701230EF400CC
:10FF6C0083570403FD172319F4028347A40181C7A7
:10FF7C002285EFF02FD48347F40093E70702A30701
:10FF8C00F4008347E400F99B2307F4008347340211
:10FF9C0093F70704E38607E80357840383570403A6
:10FFAC00E310F7E80347D4009307200A6315F70022
:10FFBC008547A306F4008327440993E70740232AC7
:10FFCC00F408B9BD858A91C693068002B387D7021F
:10FFDC00D9BD85669386B647B387D7029387070446
:10FFEC009D83D1B51375160011C513058002B38717
:04FFFC00A7020DBF8C
:020000022000DC
:1000000005651305B547B387A702938707049D834A
:1000100005B79377160091C793078002B307F702DD
:1000200035BF85679387B747B307F7029D833DB711
:10003000058A814715FA85679387B747B307F702A3
:100040008983FD8B15B70346460193158601E1852B
:100050009DC78326040863D005041305204EB3878B
:10006000A702BD079583B69763C90500B706C0A868
:1000700063E5D700B7064057B6972320F408231549
:10008000E40263DB05029307204E3307F7023D07C6
:10009000158378DCFDB51375160011C513058002B4
:1000A000B387A702C9B705651305B547B387A7028C
:1000B000938707049D8345BF058A11C69307800275
:1000C0003307F702F9B785679387B7473307F70216
:1000D000130707041D8375BF998F13970701E35D0D
:1000E00007EA930580022285EFF0DFC82300A4040D
:1000F00013058002A9B3898BE38007EA0357A41094
:1001000083570403B306F74013960601E34B06FC3E
:10011000E314F7E8154693055410130504109740AF
:10012000FE1FE78000858347E400F59BA5B50545E4
:10013000828005C541119305200222C406C62A8487
:10014000EFF05FC3FD572300A404A3060400A3003F
:10015000F402B24022444101828082800DC94111E3
:1001600022C406C68307F5002A849305E00363D3FF
:100170000700A145EFF01FC0FD572300A404A3060C
:1001800004002301F402B2402244410182808280B3
:10019000938781E9B84763080744797126D293872A
:1001A00081D006D622D44AD04ECE52CC56CA5AC896
:1001B0005EC6938681E983884701AC4A01457D5834
:1001C000938481D03703C0A80326070883574707C5
:1001D00063D00810B307F64063F50701BA853E887F
:1001E0000545184375F311C1ACCAA04A0569370A21
:1001F000C0A8B70A4057054B1309B94783A781B771
:10020000832B04088297637E752D83C7E40103570F
:100210004407B38BAB40BA9763EC77218357040351
:100220002285A30E040085072318F402C52D22851C
:10023000EFF07FBC59E103864401230304028327C6
:10024000040803574407635906083387E74038DC3E
:10025000785CBA9763490600B706C0A863E5D70083
:10026000B7064057B697834674002320F4088545A7
:10027000639CB6068357E4060356C4026360F61413
:100280000346D400631CD6128326040F0149CDE235
:1002900083264409D1EE0346F4009306000C63194B
:1002A000D608B387E70203274408B3D7E70203C79A
:1002B000D4010507BA97231AF406B2502254925477
:1002C0000259F249624AD24A424BB24B456182809E
:1002D000E372F6F01A96FDBDE3F9E7F6B706C0A89B
:1002E000BE963387E640A5B70345C401014929C13D
:1002F000835604030359240313070002338926415C
:100300003309A902420913590901637327031387AB
:100310001700634A06003706C0A86366C7003707A0
:10032000405705073E97FD162320E4082319D40201
:1003300083A781B782972A8A83A781B78297E30D23
:1003400045FF83A781B7032A8407829783C74401A7
:10035000139787016187635507063305AA4051CD7E
:10036000745C637CD50863530706160583A781C6B2
:100370002167130737304A95D8C70605A8D39306D7
:1003800000F8138741F42302D70031671307373091
:10039000D8C7EF50106CEF50506E0347740085477C
:1003A00081456313F70437550200130565ACEF1060
:1003B000AF91930700FD2306F40001B701498DBFFB
:1003C000E37DAAF8B706C0A8369A41BF858B99C7C6
:1003D0009307803E3305F502158149BF9307D0038B
:1003E0003305F502058159B737250200130525B9F4
:1003F000EF108F8D930710FC7DBF03477400854776
:1004000003A304036317F7009545E30803EA1545C2
:1004100029A0E30403EA954519452254B2509254A9
:100420000259F249624AD24A424BB24B45610283B9
:1004300063DC0B0483570403228585072318F40229
:10044000F1292285EFF03F9B785C83270408BA9757
:10045000038744016345070063E34701D6972320E0
:10046000F40883477400639567012285EF40806339
:100470008347D40185458507A30EF4009C58E38F7C
:1004800007D6154582979DBB03C744018357E402F5
:1004900093168701E1868E0763D506021307204E67
:1004A000B387E7029583E3FA77E1A1452285EFF070
:1004B0007F8C03A304032300A4048945E31903F4F8
:1004C000EDBB058B11C713078002B387E702E1BFBD
:1004D00005671307B747B387E702938707049D8330
:1004E000D9B703C744018357E402B30B7541931690
:1004F0008701E1868E0763D3060A1307204EB38770
:10050000E702958363F3FB0C83A781B78297835738
:100510000403AA8B228585072318F4020121228572
:10052000EFF07F8DE31B05D8785C83270408BA972A
:10053000038744016345070063E34701D6972320FF
:10054000F4088347D40113F7070F35C72285EFF06E
:10055000EFB7A30E040083270408E3F7FBFA8356E2
:10056000E4067C5C03274408B387F602B3D7E702AE
:1005700003C7D4011107BA97231AF40683477400FE
:10058000639F67038357C402E3FAD7C62285EF400F
:1005900060519C58E38407C68D45E5B5058B11C7AE
:1005A00013078002B387E702B1BFB387270393879E
:1005B00007049D8381BF8507A30EF40069BF9C5883
:1005C000E38E07C28D45194575BDE3C80BCEA14525
:1005D0002285EFF02FFA03A304032300A404E30E03
:1005E00003CC91452DB58280411122C406C62A84D0
:1005F0008327040FB5EB8327840FC9EB0325840EF3
:1006000009C59730FE1FE780602B0345140293074E
:10061000F00F6304F500EF003FDC0345040293078D
:10062000F00F6304F500EF003FDB0345240293075E
:10063000F00F6304F500EF003FDA03554400152482
:1006400083A701D191CF83D741EF99EB138441D494
:10065000484C19C59730FE1FE7804026232E040022
:10066000B240224441018280C84309C59730FE1F31
:10067000E780C0248327040F03D7E700136707F040
:100680002397E7009C432328F40E9DB703D7E70088
:10069000C843136707F02397E70009C59730FE1F8B
:1006A000E780C0218327840F9C43232CF40EA1B73D
:1006B00083A701EE99E33E85828003D74700E30CD0
:1006C000A7FE9C43C5BF83A701EFC16683C581D147
:1006D000FD16014703D6E700630BA6006309D600A9
:1006E00005071377F70FC107E3F6E5FE81473E855F
:1006F0008280411122C4138481E93C4C06C626C283
:10070000A1EB03554402938481D083C704011305F0
:10071000150215858507160592073E95420541810C
:100720009305B0209730FE1FE780401015C183C6A7
:10073000040128CC81471387160012079395060100
:100740002A97C181130840F5930820F563D7F60076
:10075000B24022449244410182808DE32317150167
:1007600058C1A304050041052A8663E3B70001468A
:100770008507C2072328C5FEC183C9BF231705010A
:1007800023220500F9BF41119305A0201305801510
:1007900006C622C426C29730FE1FE7802009130632
:1007A000801581452A84EF001F8F014535CC938742
:1007B00081E9B047938481E921C2F44483D746009C
:1007C000138717009317070193150701C18363D39C
:1007D00005008547328783554700E383F5FE1843BC
:1007E0007DFB2312F40095CB83D7C40580C2E0C4FF
:1007F0008507239EF40411A885472312F400A0C4A2
:10080000E0C4239EF404EFF0DFEEFC4423A00700D5
:10081000230304002306040031A022859730FE1F25
:10082000E780C00903554400B2402244924441018C
:1008300082804111138781E926C2244F22C406C653
:10084000138481E981E8232C0404B24022449244B9
:100850004101828026859730FE1FE7802006844074
:10086000D5B7411122C4938781E9B44706C6014731
:10087000B687138481E9B1C703D647006317A6047E
:1008800015E7984238C43E859730FE1FE780000385
:100890007C4423A007008357C4058DE3EFF07FF964
:1008A00023240404B24022444101828074446394AE
:1008B000F60078C4C9BF944314C3F1B7FD17231ED3
:1008C000F4048357C405F9FFD1BF3E879C4365B745
:1008D00061468145138501EE6F00EFFB83474500BC
:1008E00081460147FD8B2302F50005488147954568
:1008F0003306F5000346060009C6638F06013287FA
:1009000085468507E396B7FE014581CA1305F7FFC3
:10091000798D3335A000828005458280011126CA79
:100920004AC806CE22CC4EC652C456C25AC02A89E4
:10093000930745109306F50F8144014793198700EB
:1009400003C7070013D68401B3693601A204FD175B
:10095000D98C4E87E394D7FE83474902034439017B
:100960003E941374F40F9307400263F68700130458
:10097000B4FD1374F40FA309890022862685CE8561
:10098000EFC0F02F058909CD23098900F2406244A8
:10099000D2444249B249224A924A024B05618280BE
:1009A000814A014A130B500256862685CE85EFC038
:1009B000102D058901C5050A137AFA0F850AE395FA
:1009C0006AFF33744403814A014A130B5002528672
:1009D0002685CE85EFC0B02A058911C963958A00A6
:1009E0002309490165B7850AE20A93DA8A41050AB3
:1009F000E31F6AFD61BFA30905008280797126D2D9
:100A0000938781E922D4A0434AD04ECE856952CC47
:100A100056CA06D65AC85EC6938481E99389B947F7
:100A2000938A41F4834764001307100B6390E752E5
:100A300083C741F4138B41F4858B6389075A28548B
:100A40001306B4008145238201F49730FE1FE7802E
:100A5000A05571E92C547D4783C7150093F7F70320
:100A60002305F400E91793F7F70F636EF70A83C7BE
:100A7000050013F7F700A304E400B98BCDE783C7A3
:100A80000500130B640419469987858BA302F404AF
:100A900089055A859730FE1FE780A0ED0347940033
:100AA00085476310F7022C5419461305E40483C7E5
:100AB0000500A1059D83A306F4049730FE1FE7807F
:100AC00040EB834794000547BD8B638CE7007C486F
:100AD000CDE38347D40005476399E72C68402C4455
:100AE000D5A8034744038947631DF7068347D40409
:100AF0009DCB834734051307000493F7070C6394D9
:100B0000E7027C481306E40403D5270003D7470017
:100B100083D5670083D787004207598DC207DD8DD3
:100B2000EF20F07B4DF5034764009307100BE31BA8
:100B3000F7EEBC40B755550037C5898E03C6570040
:100B400093855555130565EDEF502078138941F4D1
:100B50009947A303F900BC40130710FB2383E70068
:100B60009DA919469305E40413056403EF00CFD84B
:100B700055BF0347540431DF0347B4049306000410
:100B80001377070CE317D7F403D5270003D74700E3
:100B900083D5670083D7870042075A86C207DD8D59
:100BA000598DEF20906E8547631EF51E89472302FD
:100BB000F4048347D4006397A71C7C4803D527001F
:100BC00003D7470083D5670083D787004207598D35
:100BD000C207DD8DEF40107039D5785093072002A1
:100BE0002304F40095462300D7007850930B640348
:100BF000A300F700034744038947631AF7006C48D2
:100C000019465E85B1059730FE1FE78080D6834781
:100C10005403858B91E70347440389476319F70021
:100C200078508347070093E707042300F7006850D4
:100C30001946DE8509059730FE1FE78080D383477C
:100C40005404858B81CB78508347070093E707F8DE
:100C50002300F70068501946DA8521059730FE1FFA
:100C6000E78020D183A781B78297835F44023D0547
:100C700093D73F0095072311F40283D7C40508D802
:100C8000138881D0639007147C5018542387E700A1
:100C90001C547850A183A307F7007C500357A4028B
:100CA0002388E7007C500347B402A388E7007C5008
:100CB00058542389E7005C547850A183A309F700B6
:100CC0007C500357E402238AE7007C500357040258
:100CD000A38AE7007C5003572402238BE700835745
:100CE00024027850A183A30BF7007C5003574402E1
:100CF000238CE700835744027850A183A30CF700AC
:100D00007C5003572401238DE7008357240178503A
:100D1000A183A30DF7007C5003574401238EE70005
:100D2000835744017850A183A30EF7007C5003C77A
:100D3000640A238FE7007C5003C7740AA38FE7007F
:100D40007C5003C7840A2380E7027C5003C7940ABF
:100D5000A380E7027C5003C7A40A2381E7028347EC
:100D6000C4007850FD8BA301F702834748017850F7
:100D700093968701E18663D206168347370293E78D
:100D800007FABDA2E39107DA68488347D403034713
:100D90003500E31AF7D819469305E4031105EF006F
:100DA000AFB51DBD23020404BDBBE39E07D60347B8
:100DB000D40383475404E318F7D61946DA8513059C
:100DC000E403F1BF8346F800034648019307E004BB
:100DD00093862602931586018586E185AD0663C953
:100DE0000500137716009307000519E39307200504
:100DF00083A384043E95058A930E80029302204EBD
:100E0000B708C0A8370F40571E837D5E631E0300DE
:100E1000E3ECC6E7835724028507C207C183231189
:100E2000F402E3E3F7FF8DB503270308035B240215
:100E300063D80504B3005B02BD0093D05000AA90B4
:100E400063CE051C63E31001FA9063751704B307C2
:100E5000DB0311E6B3073B03938707049D83AA973F
:100E6000B380E74063C5050663E31701FA97B380D3
:100E7000E74063FEE7043387E840B300F70081A84A
:100E8000B300DB034DFEB3003B039380000493D01B
:100E9000700075B7B307DB0311E6B3073B03938715
:100EA00007049D83AA97B300F74063CC050063E372
:100EB0001701FA97B300F7406375F7004697B30040
:100EC000F74063F6D00093071B002311F40263F38D
:100ED000C001068E0323030015BF13F6070793F620
:100EE000370011CA99EA834637028607819BD58F5E
:100EF000A301F70219A0E38206E8785083A7C1C5D1
:100F0000A16693863630D8CB8347840003A781C679
:100F100092079387C71C54C73CD3930700F82382DA
:100F2000FA00B167938737305CC71305A005973087
:100F3000FE1FE78040029730FE1FE78040FFEF5022
:100F4000C033930730FB2303F400E9BC1307300BD5
:100F50006393E708138B41F483471B00858BD9C744
:100F6000A3000B00EF10E06DEFF08FF439C11858BB
:100F700038DD18542324E50858542326E508035780
:100F80000402A303E502035724022314E5020357D6
:100F900044022315E502035724012316E5020357F3
:100FA00044012317E5020347C4002302E502EF10C2
:100FB000005B938441D403C5340093050010EF0017
:100FC000AFBE03C5340093050020EF00EFBD230240
:100FD000040023130400B250225492540259F249DF
:100FE000624AD24A424BB24B4561828083474B00F2
:100FF0000547E319F7A223020B00BC40B755550083
:1010000037C5898E03C6570093855555130565ED81
:10101000EF50A02B9947A303FB0035BEB3075B023B
:10102000BD079583E36D17E2B5BD411122C49387D7
:1010300081E9FC4B06C626C2A9EF138481E924404E
:101040009307F00B03C764006304F700EF50E0223E
:1010500003D6A40103C571D493050020EF002F9F90
:1010600093075002A382F4003C40B755550037C5A2
:10107000898E03C6570093855555130565EDEF50CE
:10108000C0241947A385E1F43C40130710FB2383D8
:10109000E700B2402244924441018280011126CAF5
:1010A0004EC6938981E922CC03A4090406CE4AC81E
:1010B00083474400A9CF0347540093076002138974
:1010C00041D463EDE7040356A401034539009305B9
:1010D0000020EF00CF9783475400B755550037C520
:1010E000898E8507A302F40083A7090493855555CB
:1010F000130565ED03C65700EF50201D1947A38562
:10110000E1F483A70904130710FB2383E700F240EF
:101110006244D2444249B24905618280EF50E015F1
:101120008356C4011307006483C781E93347D7029C
:10113000850793F7F70F238CF1E863D5E70083C7A2
:10114000C1F489C7EF002FDE238C01E89307F0FB81
:101150002303F400624403453900F240D24442497B
:10116000B2499305002005616F000FA40111938718
:1011700081E922CCA04352C406CE26CA4AC84EC634
:10118000834454033A8A99E41946938501F213057E
:10119000640321A805496392240983C72700130526
:1011A00064031946A5CB938561F29720FE1FE78063
:1011B000407CB7050001FD150145EF00CFD448D4B0
:1011C000EF50C04508D4C1451545EF004FCF93847B
:1011D00041D42306A40085470356C40103C5340047
:1011E000A303F40099472302F40093050010EF00D5
:1011F000CF9803C5340093050010EFF03EF601458B
:10120000238C01E8F2406244D2444249B249224A66
:10121000056182809385C1F249BF83C717004945A4
:10122000F5D38949639234051305C403EF20607A2E
:1012300068C8EF20C0566C4899CD83C7A500639C51
:101240002701230A94021946B10513056403972068
:10125000FE1FE7800072034744038947E30BF7F45E
:101260008547230AF4020DB78D47E394F4F4130580
:10127000C403EF20007668C8EF2060526C4899CD17
:1012800083C7A500639C2701230A34031946B105CF
:10129000130564039720FE1FE780A06D03474403F6
:1012A0008947E308F7F08547230AF4021946938536
:1012B00061F2F1BD4111D1451305000722C406C6F4
:1012C0009720FE1FE78080562A8439C11306000745
:1012D0008145EFF05EDC23AC81EC938741F4D84B81
:1012E0009C4FA302040078D03CD49307000B231337
:1012F000F400B71702009387C7163CCCB71702005B
:101300009387A7027CCCB71702009387C7093CD00C
:101310002285B240224441018280411126C283A429
:1013200081ED138741F406C622C40347B7009387B3
:1013300041F401CB83C6A70019476394E600A38557
:10134000070003C7770095461376D70F6317D600BB
:101350002385E7000547A385E700EF40107213845B
:1013600041D40345340093050010EF00EF8303459B
:10137000340093050020EF002F8323820400239381
:1013800004002244B240924413061008930500085A
:10139000014541016F10905DB7170200371502003B
:1013A0009387472B91451305C59F23AEF1EC6F0042
:1013B000AF9183270509411122C406C62A84638997
:1013C000071813F7270019CBF59B2328F5080355B9
:1013D0004500194693050008EF105059832704096A
:1013E00013F7470021CBED9B2328F40883473402F1
:1013F00093F7070491CB83274409228593E707409D
:10140000232AF408EFD07FD98347940199E78347D3
:10141000340293E71700A301F402035544000D467C
:1014200093050008EF10905493070004231CF40068
:10143000230D04008327040913F7070139C7BD9B57
:101440002328F4088347F40303554400214689C741
:10145000A30F04021306000393051008EF101051A8
:101460008347340293E71700A301F4028347E403A0
:1014700089CF8347040EC18B89CB8355C403228552
:101480009205C205C181EFD03FBC8327040913F741
:10149000072001CF0355440093F7F7DF2328F40812
:1014A000314693051008EF10704C8327040913F799
:1014B000070415C30355440093F7F7FB2328F408EA
:1014C000114693050008EF10704A8347340293E7F2
:1014D0001700A301F40283270409139747016355FA
:1014E00007027D771307F77F03554400F98F232800
:1014F000F4081D4693050008EF1050478347340257
:1015000093E71700A301F4028327040913F70740A8
:1015100009CF0355440093F7F7BF2328F4081306B7
:10152000700593051008EF10704483270409139782
:101530002701635F070083473402834564042285E3
:1015400093E71700A301F402EFE0DF822300A40475
:101550008347640085CF8327840F99CF8347640135
:1015600081EF03554400014693050008EF10104039
:1015700001E58547230BF4008357640381CB0355B2
:1015800044004D4693051008EF10503E8347340247
:10159000F1C7918B91CF0346D400C165938505A017
:1015A0002285EFD0DFAF83473402ED9BA301F40225
:1015B00083473402858B8DC3034514029307F00FD4
:1015C0006307F500EFF05EE1FD57A300F4028347E7
:1015D0003402F99BA301F40283473402898B89CF3B
:1015E0008355E402034524029205EFF0FEE58347AC
:1015F0003402F59BA301F40283473402A18B99CFF7
:101600008355E4020D4622859205C205C181EFD0C3
:101610001FA983473402DD9BA301F40283473402F0
:1016200013F7070101CF0345040293F7F7F8A3016D
:10163000F402EFF07EDAFD572300F4028347340210
:1016400013F7070201CF8355C4030345040293F740
:10165000F7FDA301F4029205EFF01EDF834784013A
:1016600093F7070C99C722852244B24041016FD0FD
:10167000DFFEB240224441018280411122C426C2D1
:1016800006C64AC0834765022A8485072303F502FC
:1016900083471501A5EB0347850093070004A308C2
:1016A000F50083274509319B13673700A30B05001D
:1016B0002304E5009396070163D60602E176FD1642
:1016C000F58F232AF5088327850E2380E7008327DB
:1016D000840E03479400A380E70083A7C1C50327B6
:1016E000840E89A80347D500054963192721638F14
:1016F000071E13F7070829C393F7F7F7232AF508FE
:10170000EF1080308347740105476399E7448327CE
:10171000040F03478400DC432380E7008327040F82
:1017200003479400DC43A380E7000327040F83A74B
:10173000C1C5584398CB99A113F7072011CBEF10DF
:10174000C03A8327440993F7F7DF232AF4085DBFE3
:1017500013F7270019C7F59B232AF508EF10404817
:1017600055B713F7470019C7ED9B232AF508EF007B
:10177000B07F49BF13F7870019C7DD9B232AF508FF
:10178000EF10E00941B713F7074001CB93F7F7BF1C
:10179000232AF508EF10A05BB5B713973701635004
:1017A0000702EFD0BFA539DD832744097D777D1778
:1017B000F98F232AF4082285EF10E05DA1B713F713
:1017C000070201CBEF10602D8327440993F7F7FD43
:1017D000ADBF13F7070401CBEF10200E8327440998
:1017E00093F7F7FB9DB713F7071001CBEF10C02657
:1017F0008327440993F7F7EF89BF139717016355C0
:10180000070271777D17F98F232AF5088347040EA5
:10181000918B99C7BD452285EF1000518547B9A02E
:101820002285EF108034DDBF1397F700635E070059
:1018300041777D17F98F232AF5088327040993E759
:1018400027002328F4087DBD1397E700635607029D
:1018500001777D17F98F232AF5088347050E918BB1
:1018600089CBBD45EF10404C930720F9A306F40047
:1018700051BDEF10802FCDBF1397D70063530702E0
:101880003707FCFF7D17F98F232AF5088347050EDC
:10189000918B89C7BD45EF102049ADB5EF10E02C05
:1018A00095B50567130707807D8F11CBEF10004DAD
:1018B000832744097D771307F77FF98F79B513974D
:1018C000C70063520702EFD07F93E30D05E2832741
:1018D00044093707F8FF7D17F98F232AF40822857A
:1018E000EF10805305B5232A050829BDEFD01F91BD
:1018F000E30A05E02285EF10005929B565DF93065C
:1019000050076300D71863EAE60893069004630E55
:10191000D71463E9E604930730036308F71463EC14
:10192000E70093070003E317F7FCEF00D075D947F2
:101930002303F404C1BB93075004E30DF7FA9307A4
:101940008004E319F7FA2285EF10E0538347E4009F
:10195000DD9B2307F4008327040993E7070123286D
:10196000F4086DBD93063006630ED71263E9E600F6
:1019700093073005630AF71093075005D9B793060C
:1019800050066306D71293074007E315F7F685471D
:10199000A30FF502EF007072B5B39307300A630E20
:1019A000F71663E2E7069307900963EFE7029307F0
:1019B0008009637AF708930750086309F7129307C1
:1019C0003009E319F7F2834705047947E380E7E438
:1019D0000549639527078357650603578506BA9718
:1019E00085872315F50461B39307A009E314F7F085
:1019F00003470504F9476318F704EF1000178547FC
:101A0000A306F400A1A89307300B630BF71063E95A
:101A1000E7009307500AE3EFE7ECEF10C046C5B7C5
:101A20009307400B630EF7109307500BE314F7EC8A
:101A3000EF1060458547A306F40011AAEF10A044FB
:101A4000A3062401DDBB8357640603578406228561
:101A5000BA9785872315F404EF00105183473402A9
:101A600093E71700A301F40271B92285EF10A0419A
:101A7000832704090967A3060400D98F2328F408E3
:101A800051B1EF106004BDB98D47230FF50223203B
:101A9000050C2322050C2324050C2326050CEF003E
:101AA00030728DB1EF00507BA3062401A1B903472A
:101AB000C5138346B5132207558FED4663FBE60039
:101AC0000347050E1377070209C70567D98F232A35
:101AD000F5082285EF10203B8547A306F4008327F5
:101AE00004092300040493E70704A1BBEF10A03905
:101AF0008347B401858B99CB832704092300040411
:101B0000A30D040093E707202328F4088347340239
:101B100093E71700A301F40211B3EF10202669B771
:101B2000EFD0CFEDE30005BE2285EF10E02E832736
:101B3000040905671307078023000404D98F05B53E
:101B4000EF1060348547A306F400230004048327C4
:101B50000409056713070780D98FE5B10947639525
:101B6000E70283A781F541779443758F98C3835625
:101B70008400558F98C303A7C1C51CCBB240224433
:101B800092440249410182808327840E03478400E6
:101B90002DBE79714ECE938781E922D4A04B26D2F7
:101BA00052CC56CAA16A316A4AD05AC85EC606D615
:101BB000938981E9938441F4138B3A30130A3A30C4
:101BC0008347C4001307100C6394E71283A781C6F0
:101BD00098430D8B05C3B84B619BB8CB98431367F3
:101BE000870098C39C438D83858B89C701000100C2
:101BF000010001002285EFF05FA803A781C683C71B
